{
  "_format": "hh-sol-artifact-1",
  "contractName": "EAS",
  "sourceName": "contracts/eas/EAS.sol",
  "abi": [
    {
      "inputs": [
        {
          "internalType": "contract ISchemaRegistry",
          "name": "registry",
          "type": "address"
        }
      ],
      "stateMutability": "nonpayable",
      "type": "constructor"
    },
    {
      "inputs": [],
      "name": "AccessDenied",
      "type": "error"
    },
    {
      "inputs": [],
      "name": "AlreadyRevoked",
      "type": "error"
    },
    {
      "inputs": [],
      "name": "AlreadyRevokedOffchain",
      "type": "error"
    },
    {
      "inputs": [],
      "name": "AlreadyTimestamped",
      "type": "error"
    },
    {
      "inputs": [],
      "name": "DeadlineExpired",
      "type": "error"
    },
    {
      "inputs": [],
      "name": "FailedCall",
      "type": "error"
    },
    {
      "inputs": [
        {
          "internalType": "uint256",
          "name": "balance",
          "type": "uint256"
        },
        {
          "internalType": "uint256",
          "name": "needed",
          "type": "uint256"
        }
      ],
      "name": "InsufficientBalance",
      "type": "error"
    },
    {
      "inputs": [],
      "name": "InsufficientValue",
      "type": "error"
    },
    {
      "inputs": [],
      "name": "InvalidAttestation",
      "type": "error"
    },
    {
      "inputs": [],
      "name": "InvalidAttestations",
      "type": "error"
    },
    {
      "inputs": [],
      "name": "InvalidExpirationTime",
      "type": "error"
    },
    {
      "inputs": [],
      "name": "InvalidLength",
      "type": "error"
    },
    {
      "inputs": [],
      "name": "InvalidNonce",
      "type": "error"
    },
    {
      "inputs": [],
      "name": "InvalidOffset",
      "type": "error"
    },
    {
      "inputs": [],
      "name": "InvalidRegistry",
      "type": "error"
    },
    {
      "inputs": [],
      "name": "InvalidRevocation",
      "type": "error"
    },
    {
      "inputs": [],
      "name": "InvalidRevocations",
      "type": "error"
    },
    {
      "inputs": [],
      "name": "InvalidSchema",
      "type": "error"
    },
    {
      "inputs": [],
      "name": "InvalidShortString",
      "type": "error"
    },
    {
      "inputs": [],
      "name": "InvalidSignature",
      "type": "error"
    },
    {
      "inputs": [],
      "name": "InvalidVerifier",
      "type": "error"
    },
    {
      "inputs": [],
      "name": "Irrevocable",
      "type": "error"
    },
    {
      "inputs": [],
      "name": "NotFound",
      "type": "error"
    },
    {
      "inputs": [],
      "name": "NotPayable",
      "type": "error"
    },
    {
      "inputs": [
        {
          "internalType": "string",
          "name": "str",
          "type": "string"
        }
      ],
      "name": "StringTooLong",
      "type": "error"
    },
    {
      "inputs": [],
      "name": "WrongSchema",
      "type": "error"
    },
    {
      "anonymous": false,
      "inputs": [
        {
          "indexed": true,
          "internalType": "address",
          "name": "recipient",
          "type": "address"
        },
        {
          "indexed": true,
          "internalType": "address",
          "name": "attester",
          "type": "address"
        },
        {
          "indexed": false,
          "internalType": "bytes32",
          "name": "uid",
          "type": "bytes32"
        },
        {
          "indexed": true,
          "internalType": "bytes32",
          "name": "schemaUID",
          "type": "bytes32"
        }
      ],
      "name": "Attested",
      "type": "event"
    },
    {
      "anonymous": false,
      "inputs": [],
      "name": "EIP712DomainChanged",
      "type": "event"
    },
    {
      "anonymous": false,
      "inputs": [
        {
          "indexed": false,
          "internalType": "uint256",
          "name": "oldNonce",
          "type": "uint256"
        },
        {
          "indexed": false,
          "internalType": "uint256",
          "name": "newNonce",
          "type": "uint256"
        }
      ],
      "name": "NonceIncreased",
      "type": "event"
    },
    {
      "anonymous": false,
      "inputs": [
        {
          "indexed": true,
          "internalType": "address",
          "name": "recipient",
          "type": "address"
        },
        {
          "indexed": true,
          "internalType": "address",
          "name": "attester",
          "type": "address"
        },
        {
          "indexed": false,
          "internalType": "bytes32",
          "name": "uid",
          "type": "bytes32"
        },
        {
          "indexed": true,
          "internalType": "bytes32",
          "name": "schemaUID",
          "type": "bytes32"
        }
      ],
      "name": "Revoked",
      "type": "event"
    },
    {
      "anonymous": false,
      "inputs": [
        {
          "indexed": true,
          "internalType": "address",
          "name": "revoker",
          "type": "address"
        },
        {
          "indexed": true,
          "internalType": "bytes32",
          "name": "data",
          "type": "bytes32"
        },
        {
          "indexed": true,
          "internalType": "uint64",
          "name": "timestamp",
          "type": "uint64"
        }
      ],
      "name": "RevokedOffchain",
      "type": "event"
    },
    {
      "anonymous": false,
      "inputs": [
        {
          "indexed": true,
          "internalType": "bytes32",
          "name": "data",
          "type": "bytes32"
        },
        {
          "indexed": true,
          "internalType": "uint64",
          "name": "timestamp",
          "type": "uint64"
        }
      ],
      "name": "Timestamped",
      "type": "event"
    },
    {
      "inputs": [
        {
          "components": [
            {
              "internalType": "bytes32",
              "name": "schema",
              "type": "bytes32"
            },
            {
              "components": [
                {
                  "internalType": "address",
                  "name": "recipient",
                  "type": "address"
                },
                {
                  "internalType": "uint64",
                  "name": "expirationTime",
                  "type": "uint64"
                },
                {
                  "internalType": "bool",
                  "name": "revocable",
                  "type": "bool"
                },
                {
                  "internalType": "bytes32",
                  "name": "refUID",
                  "type": "bytes32"
                },
                {
                  "internalType": "bytes",
                  "name": "data",
                  "type": "bytes"
                },
                {
                  "internalType": "uint256",
                  "name": "value",
                  "type": "uint256"
                }
              ],
              "internalType": "struct AttestationRequestData",
              "name": "data",
              "type": "tuple"
            }
          ],
          "internalType": "struct AttestationRequest",
          "name": "request",
          "type": "tuple"
        }
      ],
      "name": "attest",
      "outputs": [
        {
          "internalType": "bytes32",
          "name": "",
          "type": "bytes32"
        }
      ],
      "stateMutability": "payable",
      "type": "function"
    },
    {
      "inputs": [
        {
          "components": [
            {
              "internalType": "bytes32",
              "name": "schema",
              "type": "bytes32"
            },
            {
              "components": [
                {
                  "internalType": "address",
                  "name": "recipient",
                  "type": "address"
                },
                {
                  "internalType": "uint64",
                  "name": "expirationTime",
                  "type": "uint64"
                },
                {
                  "internalType": "bool",
                  "name": "revocable",
                  "type": "bool"
                },
                {
                  "internalType": "bytes32",
                  "name": "refUID",
                  "type": "bytes32"
                },
                {
                  "internalType": "bytes",
                  "name": "data",
                  "type": "bytes"
                },
                {
                  "internalType": "uint256",
                  "name": "value",
                  "type": "uint256"
                }
              ],
              "internalType": "struct AttestationRequestData",
              "name": "data",
              "type": "tuple"
            },
            {
              "components": [
                {
                  "internalType": "uint8",
                  "name": "v",
                  "type": "uint8"
                },
                {
                  "internalType": "bytes32",
                  "name": "r",
                  "type": "bytes32"
                },
                {
                  "internalType": "bytes32",
                  "name": "s",
                  "type": "bytes32"
                }
              ],
              "internalType": "struct Signature",
              "name": "signature",
              "type": "tuple"
            },
            {
              "internalType": "address",
              "name": "attester",
              "type": "address"
            },
            {
              "internalType": "uint64",
              "name": "deadline",
              "type": "uint64"
            }
          ],
          "internalType": "struct DelegatedAttestationRequest",
          "name": "delegatedRequest",
          "type": "tuple"
        }
      ],
      "name": "attestByDelegation",
      "outputs": [
        {
          "internalType": "bytes32",
          "name": "",
          "type": "bytes32"
        }
      ],
      "stateMutability": "payable",
      "type": "function"
    },
    {
      "inputs": [],
      "name": "eip712Domain",
      "outputs": [
        {
          "internalType": "bytes1",
          "name": "fields",
          "type": "bytes1"
        },
        {
          "internalType": "string",
          "name": "name",
          "type": "string"
        },
        {
          "internalType": "string",
          "name": "version",
          "type": "string"
        },
        {
          "internalType": "uint256",
          "name": "chainId",
          "type": "uint256"
        },
        {
          "internalType": "address",
          "name": "verifyingContract",
          "type": "address"
        },
        {
          "internalType": "bytes32",
          "name": "salt",
          "type": "bytes32"
        },
        {
          "internalType": "uint256[]",
          "name": "extensions",
          "type": "uint256[]"
        }
      ],
      "stateMutability": "view",
      "type": "function"
    },
    {
      "inputs": [],
      "name": "getAttestTypeHash",
      "outputs": [
        {
          "internalType": "bytes32",
          "name": "",
          "type": "bytes32"
        }
      ],
      "stateMutability": "pure",
      "type": "function"
    },
    {
      "inputs": [
        {
          "internalType": "bytes32",
          "name": "uid",
          "type": "bytes32"
        }
      ],
      "name": "getAttestation",
      "outputs": [
        {
          "components": [
            {
              "internalType": "bytes32",
              "name": "uid",
              "type": "bytes32"
            },
            {
              "internalType": "bytes32",
              "name": "schema",
              "type": "bytes32"
            },
            {
              "internalType": "uint64",
              "name": "time",
              "type": "uint64"
            },
            {
              "internalType": "uint64",
              "name": "expirationTime",
              "type": "uint64"
            },
            {
              "internalType": "uint64",
              "name": "revocationTime",
              "type": "uint64"
            },
            {
              "internalType": "bytes32",
              "name": "refUID",
              "type": "bytes32"
            },
            {
              "internalType": "address",
              "name": "recipient",
              "type": "address"
            },
            {
              "internalType": "address",
              "name": "attester",
              "type": "address"
            },
            {
              "internalType": "bool",
              "name": "revocable",
              "type": "bool"
            },
            {
              "internalType": "bytes",
              "name": "data",
              "type": "bytes"
            }
          ],
          "internalType": "struct Attestation",
          "name": "",
          "type": "tuple"
        }
      ],
      "stateMutability": "view",
      "type": "function"
    },
    {
      "inputs": [],
      "name": "getDomainSeparator",
      "outputs": [
        {
          "internalType": "bytes32",
          "name": "",
          "type": "bytes32"
        }
      ],
      "stateMutability": "view",
      "type": "function"
    },
    {
      "inputs": [],
      "name": "getName",
      "outputs": [
        {
          "internalType": "string",
          "name": "",
          "type": "string"
        }
      ],
      "stateMutability": "view",
      "type": "function"
    },
    {
      "inputs": [
        {
          "internalType": "address",
          "name": "account",
          "type": "address"
        }
      ],
      "name": "getNonce",
      "outputs": [
        {
          "internalType": "uint256",
          "name": "",
          "type": "uint256"
        }
      ],
      "stateMutability": "view",
      "type": "function"
    },
    {
      "inputs": [
        {
          "internalType": "address",
          "name": "revoker",
          "type": "address"
        },
        {
          "internalType": "bytes32",
          "name": "data",
          "type": "bytes32"
        }
      ],
      "name": "getRevokeOffchain",
      "outputs": [
        {
          "internalType": "uint64",
          "name": "",
          "type": "uint64"
        }
      ],
      "stateMutability": "view",
      "type": "function"
    },
    {
      "inputs": [],
      "name": "getRevokeTypeHash",
      "outputs": [
        {
          "internalType": "bytes32",
          "name": "",
          "type": "bytes32"
        }
      ],
      "stateMutability": "pure",
      "type": "function"
    },
    {
      "inputs": [],
      "name": "getSchemaRegistry",
      "outputs": [
        {
          "internalType": "contract ISchemaRegistry",
          "name": "",
          "type": "address"
        }
      ],
      "stateMutability": "view",
      "type": "function"
    },
    {
      "inputs": [
        {
          "internalType": "bytes32",
          "name": "data",
          "type": "bytes32"
        }
      ],
      "name": "getTimestamp",
      "outputs": [
        {
          "internalType": "uint64",
          "name": "",
          "type": "uint64"
        }
      ],
      "stateMutability": "view",
      "type": "function"
    },
    {
      "inputs": [
        {
          "internalType": "uint256",
          "name": "newNonce",
          "type": "uint256"
        }
      ],
      "name": "increaseNonce",
      "outputs": [],
      "stateMutability": "nonpayable",
      "type": "function"
    },
    {
      "inputs": [
        {
          "internalType": "bytes32",
          "name": "uid",
          "type": "bytes32"
        }
      ],
      "name": "isAttestationValid",
      "outputs": [
        {
          "internalType": "bool",
          "name": "",
          "type": "bool"
        }
      ],
      "stateMutability": "view",
      "type": "function"
    },
    {
      "inputs": [
        {
          "components": [
            {
              "internalType": "bytes32",
              "name": "schema",
              "type": "bytes32"
            },
            {
              "components": [
                {
                  "internalType": "address",
                  "name": "recipient",
                  "type": "address"
                },
                {
                  "internalType": "uint64",
                  "name": "expirationTime",
                  "type": "uint64"
                },
                {
                  "internalType": "bool",
                  "name": "revocable",
                  "type": "bool"
                },
                {
                  "internalType": "bytes32",
                  "name": "refUID",
                  "type": "bytes32"
                },
                {
                  "internalType": "bytes",
                  "name": "data",
                  "type": "bytes"
                },
                {
                  "internalType": "uint256",
                  "name": "value",
                  "type": "uint256"
                }
              ],
              "internalType": "struct AttestationRequestData[]",
              "name": "data",
              "type": "tuple[]"
            }
          ],
          "internalType": "struct MultiAttestationRequest[]",
          "name": "multiRequests",
          "type": "tuple[]"
        }
      ],
      "name": "multiAttest",
      "outputs": [
        {
          "internalType": "bytes32[]",
          "name": "",
          "type": "bytes32[]"
        }
      ],
      "stateMutability": "payable",
      "type": "function"
    },
    {
      "inputs": [
        {
          "components": [
            {
              "internalType": "bytes32",
              "name": "schema",
              "type": "bytes32"
            },
            {
              "components": [
                {
                  "internalType": "address",
                  "name": "recipient",
                  "type": "address"
                },
                {
                  "internalType": "uint64",
                  "name": "expirationTime",
                  "type": "uint64"
                },
                {
                  "internalType": "bool",
                  "name": "revocable",
                  "type": "bool"
                },
                {
                  "internalType": "bytes32",
                  "name": "refUID",
                  "type": "bytes32"
                },
                {
                  "internalType": "bytes",
                  "name": "data",
                  "type": "bytes"
                },
                {
                  "internalType": "uint256",
                  "name": "value",
                  "type": "uint256"
                }
              ],
              "internalType": "struct AttestationRequestData[]",
              "name": "data",
              "type": "tuple[]"
            },
            {
              "components": [
                {
                  "internalType": "uint8",
                  "name": "v",
                  "type": "uint8"
                },
                {
                  "internalType": "bytes32",
                  "name": "r",
                  "type": "bytes32"
                },
                {
                  "internalType": "bytes32",
                  "name": "s",
                  "type": "bytes32"
                }
              ],
              "internalType": "struct Signature[]",
              "name": "signatures",
              "type": "tuple[]"
            },
            {
              "internalType": "address",
              "name": "attester",
              "type": "address"
            },
            {
              "internalType": "uint64",
              "name": "deadline",
              "type": "uint64"
            }
          ],
          "internalType": "struct MultiDelegatedAttestationRequest[]",
          "name": "multiDelegatedRequests",
          "type": "tuple[]"
        }
      ],
      "name": "multiAttestByDelegation",
      "outputs": [
        {
          "internalType": "bytes32[]",
          "name": "",
          "type": "bytes32[]"
        }
      ],
      "stateMutability": "payable",
      "type": "function"
    },
    {
      "inputs": [
        {
          "components": [
            {
              "internalType": "bytes32",
              "name": "schema",
              "type": "bytes32"
            },
            {
              "components": [
                {
                  "internalType": "bytes32",
                  "name": "uid",
                  "type": "bytes32"
                },
                {
                  "internalType": "uint256",
                  "name": "value",
                  "type": "uint256"
                }
              ],
              "internalType": "struct RevocationRequestData[]",
              "name": "data",
              "type": "tuple[]"
            }
          ],
          "internalType": "struct MultiRevocationRequest[]",
          "name": "multiRequests",
          "type": "tuple[]"
        }
      ],
      "name": "multiRevoke",
      "outputs": [],
      "stateMutability": "payable",
      "type": "function"
    },
    {
      "inputs": [
        {
          "components": [
            {
              "internalType": "bytes32",
              "name": "schema",
              "type": "bytes32"
            },
            {
              "components": [
                {
                  "internalType": "bytes32",
                  "name": "uid",
                  "type": "bytes32"
                },
                {
                  "internalType": "uint256",
                  "name": "value",
                  "type": "uint256"
                }
              ],
              "internalType": "struct RevocationRequestData[]",
              "name": "data",
              "type": "tuple[]"
            },
            {
              "components": [
                {
                  "internalType": "uint8",
                  "name": "v",
                  "type": "uint8"
                },
                {
                  "internalType": "bytes32",
                  "name": "r",
                  "type": "bytes32"
                },
                {
                  "internalType": "bytes32",
                  "name": "s",
                  "type": "bytes32"
                }
              ],
              "internalType": "struct Signature[]",
              "name": "signatures",
              "type": "tuple[]"
            },
            {
              "internalType": "address",
              "name": "revoker",
              "type": "address"
            },
            {
              "internalType": "uint64",
              "name": "deadline",
              "type": "uint64"
            }
          ],
          "internalType": "struct MultiDelegatedRevocationRequest[]",
          "name": "multiDelegatedRequests",
          "type": "tuple[]"
        }
      ],
      "name": "multiRevokeByDelegation",
      "outputs": [],
      "stateMutability": "payable",
      "type": "function"
    },
    {
      "inputs": [
        {
          "internalType": "bytes32[]",
          "name": "data",
          "type": "bytes32[]"
        }
      ],
      "name": "multiRevokeOffchain",
      "outputs": [
        {
          "internalType": "uint64",
          "name": "",
          "type": "uint64"
        }
      ],
      "stateMutability": "nonpayable",
      "type": "function"
    },
    {
      "inputs": [
        {
          "internalType": "bytes32[]",
          "name": "data",
          "type": "bytes32[]"
        }
      ],
      "name": "multiTimestamp",
      "outputs": [
        {
          "internalType": "uint64",
          "name": "",
          "type": "uint64"
        }
      ],
      "stateMutability": "nonpayable",
      "type": "function"
    },
    {
      "inputs": [
        {
          "components": [
            {
              "internalType": "bytes32",
              "name": "schema",
              "type": "bytes32"
            },
            {
              "components": [
                {
                  "internalType": "bytes32",
                  "name": "uid",
                  "type": "bytes32"
                },
                {
                  "internalType": "uint256",
                  "name": "value",
                  "type": "uint256"
                }
              ],
              "internalType": "struct RevocationRequestData",
              "name": "data",
              "type": "tuple"
            }
          ],
          "internalType": "struct RevocationRequest",
          "name": "request",
          "type": "tuple"
        }
      ],
      "name": "revoke",
      "outputs": [],
      "stateMutability": "payable",
      "type": "function"
    },
    {
      "inputs": [
        {
          "components": [
            {
              "internalType": "bytes32",
              "name": "schema",
              "type": "bytes32"
            },
            {
              "components": [
                {
                  "internalType": "bytes32",
                  "name": "uid",
                  "type": "bytes32"
                },
                {
                  "internalType": "uint256",
                  "name": "value",
                  "type": "uint256"
                }
              ],
              "internalType": "struct RevocationRequestData",
              "name": "data",
              "type": "tuple"
            },
            {
              "components": [
                {
                  "internalType": "uint8",
                  "name": "v",
                  "type": "uint8"
                },
                {
                  "internalType": "bytes32",
                  "name": "r",
                  "type": "bytes32"
                },
                {
                  "internalType": "bytes32",
                  "name": "s",
                  "type": "bytes32"
                }
              ],
              "internalType": "struct Signature",
              "name": "signature",
              "type": "tuple"
            },
            {
              "internalType": "address",
              "name": "revoker",
              "type": "address"
            },
            {
              "internalType": "uint64",
              "name": "deadline",
              "type": "uint64"
            }
          ],
          "internalType": "struct DelegatedRevocationRequest",
          "name": "delegatedRequest",
          "type": "tuple"
        }
      ],
      "name": "revokeByDelegation",
      "outputs": [],
      "stateMutability": "payable",
      "type": "function"
    },
    {
      "inputs": [
        {
          "internalType": "bytes32",
          "name": "data",
          "type": "bytes32"
        }
      ],
      "name": "revokeOffchain",
      "outputs": [
        {
          "internalType": "uint64",
          "name": "",
          "type": "uint64"
        }
      ],
      "stateMutability": "nonpayable",
      "type": "function"
    },
    {
      "inputs": [
        {
          "internalType": "bytes32",
          "name": "data",
          "type": "bytes32"
        }
      ],
      "name": "timestamp",
      "outputs": [
        {
          "internalType": "uint64",
          "name": "",
          "type": "uint64"
        }
      ],
      "stateMutability": "nonpayable",
      "type": "function"
    },
    {
      "inputs": [],
      "name": "version",
      "outputs": [
        {
          "internalType": "string",
          "name": "",
          "type": "string"
        }
      ],
      "stateMutability": "view",
      "type": "function"
    }
  ],
  "bytecode": "0x6101e0604052348015610010575f5ffd5b50604051613f2e380380613f2e83398101604081905261002f916101ef565b604080518082018252600381526245415360e81b602080830191909152825180840190935260058352640312e342e360dc1b908301526001608052600460a0525f60c081905290919082908290610087908390610177565b61018052610096816001610177565b6101a0528151602080840191909120610140528151908201206101605246610100526101256101405161016051604080517f8b73c3c69bb8fe3d512ecc4cf759cc79239f7b179b0ffacaa9a75d522b39400f60208201529081019290925260608201524660808201523060a08201525f9060c00160405160208183030381529060405280519060200120905090565b60e05250503061012052600261013b83826102b4565b5050506001600160a01b038116610165576040516311a1e69760e01b815260040160405180910390fd5b6001600160a01b03166101c0526103c6565b5f6020835110156101925761018b836101a9565b90506101a3565b8161019d84826102b4565b5060ff90505b92915050565b5f5f829050601f815111156101dc578260405163305a27a960e01b81526004016101d3919061036e565b60405180910390fd5b80516101e7826103a3565b179392505050565b5f602082840312156101ff575f5ffd5b81516001600160a01b0381168114610215575f5ffd5b9392505050565b634e487b7160e01b5f52604160045260245ffd5b600181811c9082168061024457607f821691505b60208210810361026257634e487b7160e01b5f52602260045260245ffd5b50919050565b601f8211156102af57805f5260205f20601f840160051c8101602085101561028d5750805b601f840160051c820191505b818110156102ac575f8155600101610299565b50505b505050565b81516001600160401b038111156102cd576102cd61021c565b6102e1816102db8454610230565b84610268565b6020601f821160018114610313575f83156102fc5750848201515b5f19600385901b1c1916600184901b1784556102ac565b5f84815260208120601f198516915b828110156103425787850151825560209485019460019092019101610322565b508482101561035f57868401515f19600387901b60f8161c191681555b50505050600190811b01905550565b602081525f82518060208401528060208501604085015e5f604082850101526040601f19601f83011684010191505092915050565b80516020808301519190811015610262575f1960209190910360031b1b16919050565b60805160a05160c05160e05161010051610120516101405161016051610180516101a0516101c051613ae161044d5f395f81816104c3015281816112a0015261198201525f61206e01525f61204201525f61216d01525f61214501525f6120a001525f6120ca01525f6120f401525f610ad901525f610ab001525f610a870152613ae15ff3fe608060405260043610610161575f3560e01c806384b0196e116100cd578063cf190f3411610087578063e71ff36511610062578063e71ff36514610477578063ed24911d14610496578063f10b5cc8146104aa578063f17325e7146104ed575f5ffd5b8063cf190f34146103e7578063d45c443514610406578063e30bb5631461043a575f5ffd5b806384b0196e146102f25780639541152514610319578063a3112a641461032c578063a6d4dbc714610358578063b469318d1461036b578063b83010d3146103b5575f5ffd5b806344adc90e1161011e57806344adc90e1461025a578063469262671461027a5780634cb7e9e51461028d5780634d003070146102a057806354fd4d50146102bf57806379f7573a146102d3575f5ffd5b80630eabf6601461016557806312b11a171461017a57806313893f61146101bb57806317d7de7c146101f25780632d0335ab146102135780633c04271514610247575b5f5ffd5b610178610173366004612ca3565b610500565b005b348015610185575f5ffd5b507ffeb2925a02bae3dae48d424a0437a2b6ac939aa9230ddc55a1a76f065d9880765b6040519081526020015b60405180910390f35b3480156101c6575f5ffd5b506101da6101d5366004612ca3565b610646565b6040516001600160401b0390911681526020016101b2565b3480156101fd575f5ffd5b5061020661068a565b6040516101b29190612d0f565b34801561021e575f5ffd5b506101a861022d366004612d45565b6001600160a01b03165f9081526003602052604090205490565b6101a8610255366004612d60565b61071a565b61026d610268366004612ca3565b6107f9565b6040516101b29190612d96565b610178610288366004612dd8565b610937565b61017861029b366004612ca3565b6109b8565b3480156102ab575f5ffd5b506101da6102ba366004612df1565b610a74565b3480156102ca575f5ffd5b50610206610a80565b3480156102de575f5ffd5b506101786102ed366004612df1565b610b23565b3480156102fd575f5ffd5b50610306610ba1565b6040516101b29796959493929190612e42565b61026d610327366004612ca3565b610be3565b348015610337575f5ffd5b5061034b610346366004612df1565b610e03565b6040516101b29190612f7e565b610178610366366004612f90565b610f46565b348015610376575f5ffd5b506101da610385366004612fa2565b6001600160a01b03919091165f90815260066020908152604080832093835292905220546001600160401b031690565b3480156103c0575f5ffd5b507fb5d556f07587ec0f08cf386545cc4362c702a001650c2058002615ee5c9d1e756101a8565b3480156103f2575f5ffd5b506101da610401366004612df1565b610fe8565b348015610411575f5ffd5b506101da610420366004612df1565b5f908152600560205260409020546001600160401b031690565b348015610445575f5ffd5b50610467610454366004612df1565b5f90815260046020526040902054151590565b60405190151581526020016101b2565b348015610482575f5ffd5b506101da610491366004612ca3565b610ff5565b3480156104a1575f5ffd5b506101a861102c565b3480156104b5575f5ffd5b506040516001600160a01b037f00000000000000000000000000000000000000000000000000000000000000001681526020016101b2565b6101a86104fb366004612fcc565b61103a565b34815f5b8181101561063f575f19820181145f86868481811061052557610525613002565b90506020028101906105379190613016565b61054090613241565b602081015180519192509080158061055d57508260400151518114155b1561057b5760405163251f56a160e21b815260040160405180910390fd5b5f5b8181101561060f576106076040518060a00160405280865f015181526020018584815181106105ae576105ae613002565b60200260200101518152602001866040015184815181106105d1576105d1613002565b6020026020010151815260200186606001516001600160a01b0316815260200186608001516001600160401b03168152506110d6565b60010161057d565b50610624835f01518385606001518a8861127e565b61062e908861334e565b965050505050806001019050610504565b5050505050565b5f4282825b8181101561067e576106763387878481811061066957610669613002565b90506020020135856116f5565b60010161064b565b50909150505b92915050565b60606002805461069990613361565b80601f01602080910402602001604051908101604052809291908181526020018280546106c590613361565b80156107105780601f106106e757610100808354040283529160200191610710565b820191905f5260205f20905b8154815290600101906020018083116106f357829003601f168201915b5050505050905090565b5f61072c61072783613498565b6117a6565b6040805160018082528183019092525f91816020015b6040805160c0810182525f80825260208083018290529282018190526060808301829052608083015260a082015282525f19909201910181610742579050509050610790602084018461350f565b61079990613523565b815f815181106107ab576107ab613002565b60209081029190910101526107d48335826107cc60c0870160a08801612d45565b3460016118f9565b602001515f815181106107e9576107e9613002565b6020026020010151915050919050565b6060815f816001600160401b0381111561081557610815613034565b60405190808252806020026020018201604052801561084857816020015b60608152602001906001900390816108335790505b5090505f34815b84811015610921575f19850181143689898481811061087057610870613002565b9050602002810190610882919061352e565b90506108916020820182613542565b90505f036108b25760405163251f56a160e21b815260040160405180910390fd5b5f6108d682356108c56020850185613542565b6108ce91613587565b3388876118f9565b80519091506108e5908661334e565b945080602001518785815181106108fe576108fe613002565b60200260200101819052508060200151518601955050505080600101905061084f565b5061092c8383611e3f565b979650505050505050565b6040805160018082528183019092525f91816020015b604080518082019091525f808252602082015281526020019060019003908161094d579050509050610987368390038301602084016135e9565b815f8151811061099957610999613002565b60209081029190910101526109b38235823334600161127e565b505050565b34815f5b8181101561063f575f1982018114368686848181106109dd576109dd613002565b90506020028101906109ef919061352e565b9050610a5b8135610a036020840184613603565b808060200260200160405190810160405280939291908181526020015f905b82821015610a4e57610a3f604083028601368190038101906135e9565b81526020019060010190610a22565b505050505033888661127e565b610a65908661334e565b945050508060010190506109bc565b5f426106848382611f1e565b6060610aab7f0000000000000000000000000000000000000000000000000000000000000000611fac565b610ad47f0000000000000000000000000000000000000000000000000000000000000000611fac565b610afd7f0000000000000000000000000000000000000000000000000000000000000000611fac565b604051602001610b0f9392919061365f565b604051602081830303815290604052905090565b335f90815260036020526040902054808211610b5257604051633ab3447f60e11b815260040160405180910390fd5b335f9081526003602090815260409182902084905581518381529081018490527f57b09af877df9068fd60a69d7b21f5576b8b38955812d6ae4ac52942f1e38fb7910160405180910390a15050565b5f6060805f5f5f6060610bb261203b565b610bba612067565b604080515f80825260208201909252600f60f81b9b939a50919850469750309650945092509050565b6060815f816001600160401b03811115610bff57610bff613034565b604051908082528060200260200182016040528015610c3257816020015b6060815260200190600190039081610c1d5790505b5090505f34815b84811015610921575f198501811436898984818110610c5a57610c5a613002565b9050602002810190610c6c9190613016565b9050365f610c7d6020840184613542565b909250905080801580610c9e5750610c986040850185613694565b90508114155b15610cbc5760405163251f56a160e21b815260040160405180910390fd5b5f5b81811015610d8d57610d856040518060a00160405280875f01358152602001868685818110610cef57610cef613002565b9050602002810190610d01919061350f565b610d0a90613523565b8152602001610d1c6040890189613694565b85818110610d2c57610d2c613002565b905060600201803603810190610d4291906136d8565b8152602001610d576080890160608a01612d45565b6001600160a01b03168152602001610d7560a0890160808a016136f2565b6001600160401b031690526117a6565b600101610cbe565b505f610db58535610d9e8587613587565b610dae6080890160608a01612d45565b8b8a6118f9565b8051909150610dc4908961334e565b975080602001518a8881518110610ddd57610ddd613002565b602002602001018190525080602001515189019850505050505050806001019050610c39565b610e0b612be3565b5f828152600460208181526040928390208351610140810185528154815260018201549281019290925260028101546001600160401b0380821695840195909552600160401b810485166060840152600160801b90049093166080820152600383015460a0820152908201546001600160a01b0390811660c0830152600583015490811660e0830152600160a01b900460ff16151561010082015260068201805491929161012084019190610ebf90613361565b80601f0160208091040260200160405190810160405280929190818152602001828054610eeb90613361565b8015610f365780601f10610f0d57610100808354040283529160200191610f36565b820191905f5260205f20905b815481529060010190602001808311610f1957829003601f168201915b5050505050815250509050919050565b610f5d610f583683900383018361370b565b6110d6565b6040805160018082528183019092525f91816020015b604080518082019091525f8082526020820152815260200190600190039081610f73579050509050610fad368390038301602084016135e9565b815f81518110610fbf57610fbf613002565b60209081029190910101526109b3823582610fe060e0860160c08701612d45565b34600161127e565b5f426106843384836116f5565b5f4282825b8181101561067e5761102486868381811061101757611017613002565b9050602002013584611f1e565b600101610ffa565b5f611035612094565b905090565b6040805160018082528183019092525f91829190816020015b6040805160c0810182525f80825260208083018290529282018190526060808301829052608083015260a082015282525f199092019101816110535790505090506110a1602084018461350f565b6110aa90613523565b815f815181106110bc576110bc613002565b60209081029190910101526107d4833582333460016118f9565b60808101516001600160401b0316158015906111075750426001600160401b031681608001516001600160401b0316105b1561112557604051631ab7da6b60e01b815260040160405180910390fd5b602080820151604080840151606085015185518451858701516001600160a01b0384165f908152600390985294872080549697949694956111fe957fb5d556f07587ec0f08cf386545cc4362c702a001650c2058002615ee5c9d1e75959493928861118f83613779565b909155506080808c01516040805160208101999099526001600160a01b039097169688019690965260608701949094529285019190915260a084015260c08301526001600160401b031660e0820152610100015b604051602081830303815290604052805190602001206121bd565b905061125b84606001518284602001518560400151865f015160405160200161124793929190928352602083019190915260f81b6001600160f81b031916604082015260410190565b6040516020818303038152906040526121e9565b61127857604051638baa579f60e01b815260040160405180910390fd5b50505050565b6040516351753e3760e11b8152600481018690525f9081906001600160a01b037f0000000000000000000000000000000000000000000000000000000000000000169063a2ea7c6e906024015f60405180830381865afa1580156112e4573d5f5f3e3d5ffd5b505050506040513d5f823e601f3d908101601f1916820160405261130b9190810190613791565b805190915061132d57604051635f9bd90760e11b815260040160405180910390fd5b85515f816001600160401b0381111561134857611348613034565b60405190808252806020026020018201604052801561138157816020015b61136e612be3565b8152602001906001900390816113665790505b5090505f826001600160401b0381111561139d5761139d613034565b6040519080825280602002602001820160405280156113c6578160200160208202803683370190505b5090505f5b838110156116d7575f8a82815181106113e6576113e6613002565b60209081029190910181015180515f908152600490925260409091208054919250906114255760405163c5723b5160e01b815260040160405180910390fd5b8c81600101541461144957604051635f9bd90760e11b815260040160405180910390fd5b60058101546001600160a01b038c811691161461147957604051634ca8886760e01b815260040160405180910390fd5b6005810154600160a01b900460ff166114a55760405163157bd4c360e01b815260040160405180910390fd5b6002810154600160801b90046001600160401b0316156114d85760405163905e710760e01b815260040160405180910390fd5b4260028201805467ffffffffffffffff60801b198116600160801b6001600160401b03948516810291821793849055604080516101408101825287548152600188015460208201529386169286169290921791830191909152600160401b8304841660608301529091049091166080820152600382015460a082015260048201546001600160a01b0390811660c0830152600583015490811660e0830152600160a01b900460ff161515610100820152600682018054839161012084019161159f90613361565b80601f01602080910402602001604051908101604052809291908181526020018280546115cb90613361565b80156116165780601f106115ed57610100808354040283529160200191611616565b820191905f5260205f20905b8154815290600101906020018083116115f957829003601f168201915b50505050508152505085848151811061163157611631613002565b6020026020010181905250816020015184848151811061165357611653613002565b6020026020010181815250508c8b6001600160a01b031686858151811061167c5761167c613002565b602002602001015160c001516001600160a01b03167ff930a6e2523c9cc298691873087a740550b8fc85a0680830414c148ed927f615855f01516040516116c591815260200190565b60405180910390a450506001016113cb565b506116e784838360018b8b61225c565b9a9950505050505050505050565b6001600160a01b0383165f90815260066020908152604080832085845291829052909120546001600160401b0316156117415760405163ec9d6eeb60e01b815260040160405180910390fd5b5f83815260208290526040808220805467ffffffffffffffff19166001600160401b0386169081179091559051909185916001600160a01b038816917f92a1f7a41a7c585a8b09e25b195e225b1d43248daca46b0faf9e0792777a222991a450505050565b60808101516001600160401b0316158015906117d75750426001600160401b031681608001516001600160401b0316105b156117f557604051631ab7da6b60e01b815260040160405180910390fd5b6020808201516040808401516060808601518651855186880151868801519488015160808901518051908b012060a08a01516001600160a01b0387165f9081526003909c52988b2080549a9b989a98996111fe997ffeb2925a02bae3dae48d424a0437a2b6ac939aa9230ddc55a1a76f065d988076999493928c61187883613779565b919050558e608001516040516020016111e39b9a999897969594939291909a8b526001600160a01b03998a1660208c015260408b01989098529590971660608901526001600160401b03938416608089015291151560a088015260c087015260e0860152610100850193909352610120840152166101408201526101600190565b604080518082019091525f8152606060208201528451604080518082019091525f815260606020820152816001600160401b0381111561193b5761193b613034565b604051908082528060200260200182016040528015611964578160200160208202803683370190505b5060208201526040516351753e3760e11b8152600481018990525f907f00000000000000000000000000000000000000000000000000000000000000006001600160a01b03169063a2ea7c6e906024015f60405180830381865afa1580156119ce573d5f5f3e3d5ffd5b505050506040513d5f823e601f3d908101601f191682016040526119f59190810190613791565b8051909150611a1757604051635f9bd90760e11b815260040160405180910390fd5b5f836001600160401b03811115611a3057611a30613034565b604051908082528060200260200182016040528015611a6957816020015b611a56612be3565b815260200190600190039081611a4e5790505b5090505f846001600160401b03811115611a8557611a85613034565b604051908082528060200260200182016040528015611aae578160200160208202803683370190505b5090505f5b85811015611e1f575f8b8281518110611ace57611ace613002565b602002602001015190505f6001600160401b031681602001516001600160401b031614158015611b145750426001600160401b031681602001516001600160401b031611155b15611b32576040516308e8b93760e01b815260040160405180910390fd5b8460400151158015611b45575080604001515b15611b635760405163157bd4c360e01b815260040160405180910390fd5b5f6040518061014001604052805f5f1b81526020018f8152602001611b854290565b6001600160401b0316815260200183602001516001600160401b031681526020015f6001600160401b0316815260200183606001518152602001835f01516001600160a01b031681526020018d6001600160a01b03168152602001836040015115158152602001836080015181525090505f5f5f90505b611c06838261255d565b5f8181526004602052604090205490925015611c2457600101611bfc565b8183525f828152600460208181526040928390208651815590860151600182015591850151600283018054606088015160808901516001600160401b03908116600160801b0267ffffffffffffffff60801b19928216600160401b026fffffffffffffffffffffffffffffffff199094169190951617919091171691909117905560a0850151600383015560c085015190820180546001600160a01b039283166001600160a01b031990911617905560e08501516005830180546101008801511515600160a01b026001600160a81b031990911692909316919091179190911790556101208401518491906006820190611d1e90826138ad565b505050606084015115611d5b5760608401515f90815260046020526040902054611d5b5760405163c5723b5160e01b815260040160405180910390fd5b82878681518110611d6e57611d6e613002565b60200260200101819052508360a00151868681518110611d9057611d90613002565b6020026020010181815250508189602001518681518110611db357611db3613002565b6020026020010181815250508f8e6001600160a01b0316855f01516001600160a01b03167f8bf46bf4cfd674fa735a3d63ec1c9ad4153f033c290341f3a588b75685141b3585604051611e0891815260200190565b60405180910390a450505050806001019050611ab3565b50611e2e8383835f8c8c61225c565b845250919998505050505050505050565b60605f826001600160401b03811115611e5a57611e5a613034565b604051908082528060200260200182016040528015611e83578160200160208202803683370190505b5084519091505f90815b81811015611f13575f878281518110611ea857611ea8613002565b602090810291909101015180519091505f5b81811015611f0557828181518110611ed457611ed4613002565b6020026020010151878781518110611eee57611eee613002565b602090810291909101015260019586019501611eba565b505050806001019050611e8d565b509195945050505050565b5f828152600560205260409020546001600160401b031615611f53576040516317133ca360e11b815260040160405180910390fd5b5f82815260056020526040808220805467ffffffffffffffff19166001600160401b0385169081179091559051909184917f5aafceeb1c7ad58e4a84898bdee37c02c0fc46e7d24e6b60e8209449f183459f9190a35050565b60605f611fb8836125bb565b60010190505f816001600160401b03811115611fd657611fd6613034565b6040519080825280601f01601f191660200182016040528015612000576020820181803683370190505b5090508181016020015b5f19016f181899199a1a9b1b9c1cb0b131b232b360811b600a86061a8153600a850494508461200a57509392505050565b60606110357f00000000000000000000000000000000000000000000000000000000000000005f612692565b60606110357f00000000000000000000000000000000000000000000000000000000000000006001612692565b5f306001600160a01b037f0000000000000000000000000000000000000000000000000000000000000000161480156120ec57507f000000000000000000000000000000000000000000000000000000000000000046145b1561211657507f000000000000000000000000000000000000000000000000000000000000000090565b611035604080517f8b73c3c69bb8fe3d512ecc4cf759cc79239f7b179b0ffacaa9a75d522b39400f60208201527f0000000000000000000000000000000000000000000000000000000000000000918101919091527f000000000000000000000000000000000000000000000000000000000000000060608201524660808201523060a08201525f9060c00160405160208183030381529060405280519060200120905090565b5f6106846121c9612094565b8360405161190160f01b8152600281019290925260228201526042902090565b5f836001600160a01b03163b5f03612247575f5f612207858561273b565b5090925090505f81600381111561222057612220613967565b14801561223e5750856001600160a01b0316826001600160a01b0316145b92505050612255565b612252848484612784565b90505b9392505050565b84515f9060018190036122b1576122a988885f8151811061227f5761227f613002565b6020026020010151885f8151811061229957612299613002565b60200260200101518888886127d5565b915050612553565b60208801516001600160a01b038116612329575f5b8281101561230f578781815181106122e0576122e0613002565b60200260200101515f1461230757604051631574f9f360e01b815260040160405180910390fd5b6001016122c6565b50831561231f5761231f85612a09565b5f92505050612553565b5f5f90505f826001600160a01b031663ce46e0466040518163ffffffff1660e01b8152600401602060405180830381865afa15801561236a573d5f5f3e3d5ffd5b505050506040513d601f19601f8201168201806040525081019061238e919061397b565b90505f5b84811015612416575f8a82815181106123ad576123ad613002565b60200260200101519050805f036123c4575061240e565b826123e257604051631574f9f360e01b815260040160405180910390fd5b888111156124035760405163044044a560e21b815260040160405180910390fd5b978890039792909201915b600101612392565b5087156124b0576040516388e5b2d960e01b81526001600160a01b038416906388e5b2d990849061244d908e908e90600401613996565b60206040518083038185885af1158015612469573d5f5f3e3d5ffd5b50505050506040513d601f19601f8201168201806040525081019061248e919061397b565b6124ab5760405163bf2f3a8b60e01b815260040160405180910390fd5b61253e565b6040516348ed85bf60e11b81526001600160a01b038416906391db0b7e9084906124e0908e908e90600401613996565b60206040518083038185885af11580156124fc573d5f5f3e3d5ffd5b50505050506040513d601f19601f82011682018060405250810190612521919061397b565b61253e5760405163e8bee83960e01b815260040160405180910390fd5b851561254d5761254d87612a09565b50925050505b9695505050505050565b60208083015160c084015160e0850151604080870151606088015161010089015160a08a01516101208b015194515f9961259d99989796918c9101613a0c565b60405160208183030381529060405280519060200120905092915050565b5f8072184f03e93ff9f4daa797ed6e38ed64bf6a1f0160401b83106125f95772184f03e93ff9f4daa797ed6e38ed64bf6a1f0160401b830492506040015b6d04ee2d6d415b85acef81000000008310612625576d04ee2d6d415b85acef8100000000830492506020015b662386f26fc10000831061264357662386f26fc10000830492506010015b6305f5e100831061265b576305f5e100830492506008015b612710831061266f57612710830492506004015b60648310612681576064830492506002015b600a83106106845760010192915050565b606060ff83146126ac576126a583612a1c565b9050610684565b8180546126b890613361565b80601f01602080910402602001604051908101604052809291908181526020018280546126e490613361565b801561272f5780601f106127065761010080835404028352916020019161272f565b820191905f5260205f20905b81548152906001019060200180831161271257829003601f168201915b50505050509050610684565b5f5f5f8351604103612772576020840151604085015160608601515f1a61276488828585612a59565b95509550955050505061277d565b505081515f91506002905b9250925092565b805160408051630b135d3f60e11b8082526004820186905260248201929092525f92906020820185604483015e60205f60648401838a5afa9050825f5114601f3d1116811693505050509392505050565b60208601515f906001600160a01b03811661282157851561280957604051631574f9f360e01b815260040160405180910390fd5b82156128185761281884612a09565b5f915050612553565b85156128cb57806001600160a01b031663ce46e0466040518163ffffffff1660e01b8152600401602060405180830381865afa158015612863573d5f5f3e3d5ffd5b505050506040513d601f19601f82011682018060405250810190612887919061397b565b6128a457604051631574f9f360e01b815260040160405180910390fd5b838611156128c55760405163044044a560e21b815260040160405180910390fd5b85840393505b84156129625760405163e49617e160e01b81526001600160a01b0382169063e49617e19088906128ff908b90600401612f7e565b60206040518083038185885af115801561291b573d5f5f3e3d5ffd5b50505050506040513d601f19601f82011682018060405250810190612940919061397b565b61295d5760405163ccf3bb2760e01b815260040160405180910390fd5b6129ee565b60405163e60c350560e01b81526001600160a01b0382169063e60c3505908890612990908b90600401612f7e565b60206040518083038185885af11580156129ac573d5f5f3e3d5ffd5b50505050506040513d601f19601f820116820180604052508101906129d1919061397b565b6129ee5760405163bd8ba84d60e01b815260040160405180910390fd5b82156129fd576129fd84612a09565b50939695505050505050565b8015612a1957612a193382612b21565b50565b60605f612a2883612b9c565b6040805160208082528183019092529192505f91906020820181803683375050509182525060208101929092525090565b5f80807f7fffffffffffffffffffffffffffffff5d576e7357a4501ddfe92f46681b20a0841115612a9257505f91506003905082612b17565b604080515f808252602082018084528a905260ff891692820192909252606081018790526080810186905260019060a0016020604051602081039080840390855afa158015612ae3573d5f5f3e3d5ffd5b5050604051601f1901519150506001600160a01b038116612b0e57505f925060019150829050612b17565b92505f91508190505b9450945094915050565b80471015612b4f5760405163cf47918160e01b81524760048201526024810182905260440160405180910390fd5b612b68828260405180602001604052805f815250612bc3565b15612b71575050565b3d15612b8357612b7f612bd8565b5050565b60405163d6bda27560e01b815260040160405180910390fd5b5f60ff8216601f81111561068457604051632cd44ac360e21b815260040160405180910390fd5b5f5f5f83516020850186885af1949350505050565b6040513d5f823e3d81fd5b6040518061014001604052805f81526020015f81526020015f6001600160401b031681526020015f6001600160401b031681526020015f6001600160401b031681526020015f81526020015f6001600160a01b031681526020015f6001600160a01b031681526020015f15158152602001606081525090565b5f5f83601f840112612c6c575f5ffd5b5081356001600160401b03811115612c82575f5ffd5b6020830191508360208260051b8501011115612c9c575f5ffd5b9250929050565b5f5f60208385031215612cb4575f5ffd5b82356001600160401b03811115612cc9575f5ffd5b612cd585828601612c5c565b90969095509350505050565b5f81518084528060208401602086015e5f602082860101526020601f19601f83011685010191505092915050565b602081525f6122556020830184612ce1565b6001600160a01b0381168114612a19575f5ffd5b8035612d4081612d21565b919050565b5f60208284031215612d55575f5ffd5b813561225581612d21565b5f60208284031215612d70575f5ffd5b81356001600160401b03811115612d85575f5ffd5b820160e08185031215612255575f5ffd5b602080825282518282018190525f918401906040840190835b81811015612dcd578351835260209384019390920191600101612daf565b509095945050505050565b5f6060828403128015612de9575f5ffd5b509092915050565b5f60208284031215612e01575f5ffd5b5035919050565b5f8151808452602084019350602083015f5b82811015612e38578151865260209586019590910190600101612e1a565b5093949350505050565b60ff60f81b8816815260e060208201525f612e6060e0830189612ce1565b8281036040840152612e728189612ce1565b606084018890526001600160a01b038716608085015260a0840186905283810360c085015290506116e78185612e08565b80518252602081015160208301525f6040820151612ecc60408501826001600160401b03169052565b506060820151612ee760608501826001600160401b03169052565b506080820151612f0260808501826001600160401b03169052565b5060a082015160a084015260c0820151612f2760c08501826001600160a01b03169052565b5060e0820151612f4260e08501826001600160a01b03169052565b50610100820151612f5861010085018215159052565b50610120820151610140610120850152612f76610140850182612ce1565b949350505050565b602081525f6122556020830184612ea3565b5f610100828403128015612de9575f5ffd5b5f5f60408385031215612fb3575f5ffd5b8235612fbe81612d21565b946020939093013593505050565b5f60208284031215612fdc575f5ffd5b81356001600160401b03811115612ff1575f5ffd5b820160408185031215612255575f5ffd5b634e487b7160e01b5f52603260045260245ffd5b5f8235609e1983360301811261302a575f5ffd5b9190910192915050565b634e487b7160e01b5f52604160045260245ffd5b60405160a081016001600160401b038111828210171561306a5761306a613034565b60405290565b60405160c081016001600160401b038111828210171561306a5761306a613034565b604051608081016001600160401b038111828210171561306a5761306a613034565b604051601f8201601f191681016001600160401b03811182821017156130dc576130dc613034565b604052919050565b5f6001600160401b038211156130fc576130fc613034565b5060051b60200190565b5f60408284031215613116575f5ffd5b604080519081016001600160401b038111828210171561313857613138613034565b604052823581526020928301359281019290925250919050565b5f60608284031215613162575f5ffd5b604051606081016001600160401b038111828210171561318457613184613034565b604052905080823560ff8116811461319a575f5ffd5b815260208381013590820152604092830135920191909152919050565b5f82601f8301126131c6575f5ffd5b81356131d96131d4826130e4565b6130b4565b808282526020820191506020606084028601019250858311156131fa575f5ffd5b602085015b83811015613221576132118782613152565b83526020909201916060016131ff565b5095945050505050565b80356001600160401b0381168114612d40575f5ffd5b5f60a08236031215613251575f5ffd5b613259613048565b8235815260208301356001600160401b03811115613275575f5ffd5b830136601f820112613285575f5ffd5b80356132936131d4826130e4565b8082825260208201915060208360061b8501019250368311156132b4575f5ffd5b6020840193505b828410156132e0576132cd3685613106565b82526020820191506040840193506132bb565b602085015250505060408301356001600160401b03811115613300575f5ffd5b61330c368286016131b7565b60408301525061331e60608401612d35565b606082015261332f6080840161322b565b608082015292915050565b634e487b7160e01b5f52601160045260245ffd5b818103818111156106845761068461333a565b600181811c9082168061337557607f821691505b60208210810361339357634e487b7160e01b5f52602260045260245ffd5b50919050565b8015158114612a19575f5ffd5b5f6001600160401b038211156133be576133be613034565b50601f01601f191660200190565b5f60c082840312156133dc575f5ffd5b6133e4613070565b905081356133f181612d21565b81526133ff6020830161322b565b6020820152604082013561341281613399565b60408201526060828101359082015260808201356001600160401b03811115613439575f5ffd5b8201601f81018413613449575f5ffd5b80356134576131d4826133a6565b81815285602083850101111561346b575f5ffd5b816020840160208301375f9181016020019190915260808301525060a09182013591810191909152919050565b5f60e082360312156134a8575f5ffd5b6134b0613048565b8235815260208301356001600160401b038111156134cc575f5ffd5b6134d8368286016133cc565b6020830152506134eb3660408501613152565b604082015260a08301356134fe81612d21565b606082015261332f60c0840161322b565b5f823560be1983360301811261302a575f5ffd5b5f61068436836133cc565b5f8235603e1983360301811261302a575f5ffd5b5f5f8335601e19843603018112613557575f5ffd5b8301803591506001600160401b03821115613570575f5ffd5b6020019150600581901b3603821315612c9c575f5ffd5b5f6135946131d4846130e4565b8381526020810190600585901b8401368111156135af575f5ffd5b845b81811015612dcd5780356001600160401b038111156135ce575f5ffd5b6135da368289016133cc565b855250602093840193016135b1565b5f604082840312156135f9575f5ffd5b6122558383613106565b5f5f8335601e19843603018112613618575f5ffd5b8301803591506001600160401b03821115613631575f5ffd5b6020019150600681901b3603821315612c9c575f5ffd5b5f81518060208401855e5f93019283525090919050565b5f61366a8286613648565b601760f91b815261367e6001820186613648565b9050601760f91b81526125536001820185613648565b5f5f8335601e198436030181126136a9575f5ffd5b8301803591506001600160401b038211156136c2575f5ffd5b6020019150606081023603821315612c9c575f5ffd5b5f606082840312156136e8575f5ffd5b6122558383613152565b5f60208284031215613702575f5ffd5b6122558261322b565b5f61010082840312801561371d575f5ffd5b50613726613048565b823581526137378460208501613106565b60208201526137498460608501613152565b604082015260c083013561375c81612d21565b606082015261376d60e0840161322b565b60808201529392505050565b5f6001820161378a5761378a61333a565b5060010190565b5f602082840312156137a1575f5ffd5b81516001600160401b038111156137b6575f5ffd5b8201608081850312156137c7575f5ffd5b6137cf613092565b8151815260208201516137e181612d21565b602082015260408201516137f481613399565b604082015260608201516001600160401b03811115613811575f5ffd5b80830192505084601f830112613825575f5ffd5b81516138336131d4826133a6565b818152866020838601011115613847575f5ffd5b8160208501602083015e5f918101602001919091526060820152949350505050565b601f8211156109b357805f5260205f20601f840160051c8101602085101561388e5750805b601f840160051c820191505b8181101561063f575f815560010161389a565b81516001600160401b038111156138c6576138c6613034565b6138da816138d48454613361565b84613869565b6020601f82116001811461390c575f83156138f55750848201515b5f19600385901b1c1916600184901b17845561063f565b5f84815260208120601f198516915b8281101561393b578785015182556020948501946001909201910161391b565b508482101561395857868401515f19600387901b60f8161c191681555b50505050600190811b01905550565b634e487b7160e01b5f52602160045260245ffd5b5f6020828403121561398b575f5ffd5b815161225581613399565b5f604082016040835280855180835260608501915060608160051b8601019250602087015f5b828110156139ed57605f198786030184526139d8858351612ea3565b945060209384019391909101906001016139bc565b505050508281036020840152613a038185612e08565b95945050505050565b8981526bffffffffffffffffffffffff198960601b1660208201526bffffffffffffffffffffffff198860601b1660348201526001600160401b0360c01b8760c01b1660488201526001600160401b0360c01b8660c01b16605082015284151560f81b60588201528360598201525f613a886079830185613648565b60e09390931b6001600160e01b031916835250506004019897505050505050505056fea264697066735822122078869330ff3a08339aaa8100680140c6946925b6d1282ef342413f13e893706d64736f6c634300081c0033",
  "linkReferences": {},
  "deployedLinkReferences": {}
}