{
  "_format": "hh-sol-artifact-1",
  "contractName": "RevocationResolver",
  "sourceName": "contracts/eas/resolver/examples/RevocationResolver.sol",
  "abi": [
    {
      "inputs": [
        {
          "internalType": "contract IEAS",
          "name": "eas",
          "type": "address"
        }
      ],
      "stateMutability": "nonpayable",
      "type": "constructor"
    },
    {
      "inputs": [],
      "name": "AccessDenied",
      "type": "error"
    },
    {
      "inputs": [],
      "name": "InsufficientValue",
      "type": "error"
    },
    {
      "inputs": [],
      "name": "InvalidEAS",
      "type": "error"
    },
    {
      "inputs": [],
      "name": "InvalidLength",
      "type": "error"
    },
    {
      "inputs": [],
      "name": "NotPayable",
      "type": "error"
    },
    {
      "inputs": [
        {
          "components": [
            {
              "internalType": "bytes32",
              "name": "uid",
              "type": "bytes32"
            },
            {
              "internalType": "bytes32",
              "name": "schema",
              "type": "bytes32"
            },
            {
              "internalType": "uint64",
              "name": "time",
              "type": "uint64"
            },
            {
              "internalType": "uint64",
              "name": "expirationTime",
              "type": "uint64"
            },
            {
              "internalType": "uint64",
              "name": "revocationTime",
              "type": "uint64"
            },
            {
              "internalType": "bytes32",
              "name": "refUID",
              "type": "bytes32"
            },
            {
              "internalType": "address",
              "name": "recipient",
              "type": "address"
            },
            {
              "internalType": "address",
              "name": "attester",
              "type": "address"
            },
            {
              "internalType": "bool",
              "name": "revocable",
              "type": "bool"
            },
            {
              "internalType": "bytes",
              "name": "data",
              "type": "bytes"
            }
          ],
          "internalType": "struct Attestation",
          "name": "attestation",
          "type": "tuple"
        }
      ],
      "name": "attest",
      "outputs": [
        {
          "internalType": "bool",
          "name": "",
          "type": "bool"
        }
      ],
      "stateMutability": "payable",
      "type": "function"
    },
    {
      "inputs": [],
      "name": "isPayable",
      "outputs": [
        {
          "internalType": "bool",
          "name": "",
          "type": "bool"
        }
      ],
      "stateMutability": "pure",
      "type": "function"
    },
    {
      "inputs": [
        {
          "components": [
            {
              "internalType": "bytes32",
              "name": "uid",
              "type": "bytes32"
            },
            {
              "internalType": "bytes32",
              "name": "schema",
              "type": "bytes32"
            },
            {
              "internalType": "uint64",
              "name": "time",
              "type": "uint64"
            },
            {
              "internalType": "uint64",
              "name": "expirationTime",
              "type": "uint64"
            },
            {
              "internalType": "uint64",
              "name": "revocationTime",
              "type": "uint64"
            },
            {
              "internalType": "bytes32",
              "name": "refUID",
              "type": "bytes32"
            },
            {
              "internalType": "address",
              "name": "recipient",
              "type": "address"
            },
            {
              "internalType": "address",
              "name": "attester",
              "type": "address"
            },
            {
              "internalType": "bool",
              "name": "revocable",
              "type": "bool"
            },
            {
              "internalType": "bytes",
              "name": "data",
              "type": "bytes"
            }
          ],
          "internalType": "struct Attestation[]",
          "name": "attestations",
          "type": "tuple[]"
        },
        {
          "internalType": "uint256[]",
          "name": "values",
          "type": "uint256[]"
        }
      ],
      "name": "multiAttest",
      "outputs": [
        {
          "internalType": "bool",
          "name": "",
          "type": "bool"
        }
      ],
      "stateMutability": "payable",
      "type": "function"
    },
    {
      "inputs": [
        {
          "components": [
            {
              "internalType": "bytes32",
              "name": "uid",
              "type": "bytes32"
            },
            {
              "internalType": "bytes32",
              "name": "schema",
              "type": "bytes32"
            },
            {
              "internalType": "uint64",
              "name": "time",
              "type": "uint64"
            },
            {
              "internalType": "uint64",
              "name": "expirationTime",
              "type": "uint64"
            },
            {
              "internalType": "uint64",
              "name": "revocationTime",
              "type": "uint64"
            },
            {
              "internalType": "bytes32",
              "name": "refUID",
              "type": "bytes32"
            },
            {
              "internalType": "address",
              "name": "recipient",
              "type": "address"
            },
            {
              "internalType": "address",
              "name": "attester",
              "type": "address"
            },
            {
              "internalType": "bool",
              "name": "revocable",
              "type": "bool"
            },
            {
              "internalType": "bytes",
              "name": "data",
              "type": "bytes"
            }
          ],
          "internalType": "struct Attestation[]",
          "name": "attestations",
          "type": "tuple[]"
        },
        {
          "internalType": "uint256[]",
          "name": "values",
          "type": "uint256[]"
        }
      ],
      "name": "multiRevoke",
      "outputs": [
        {
          "internalType": "bool",
          "name": "",
          "type": "bool"
        }
      ],
      "stateMutability": "payable",
      "type": "function"
    },
    {
      "inputs": [
        {
          "components": [
            {
              "internalType": "bytes32",
              "name": "uid",
              "type": "bytes32"
            },
            {
              "internalType": "bytes32",
              "name": "schema",
              "type": "bytes32"
            },
            {
              "internalType": "uint64",
              "name": "time",
              "type": "uint64"
            },
            {
              "internalType": "uint64",
              "name": "expirationTime",
              "type": "uint64"
            },
            {
              "internalType": "uint64",
              "name": "revocationTime",
              "type": "uint64"
            },
            {
              "internalType": "bytes32",
              "name": "refUID",
              "type": "bytes32"
            },
            {
              "internalType": "address",
              "name": "recipient",
              "type": "address"
            },
            {
              "internalType": "address",
              "name": "attester",
              "type": "address"
            },
            {
              "internalType": "bool",
              "name": "revocable",
              "type": "bool"
            },
            {
              "internalType": "bytes",
              "name": "data",
              "type": "bytes"
            }
          ],
          "internalType": "struct Attestation",
          "name": "attestation",
          "type": "tuple"
        }
      ],
      "name": "revoke",
      "outputs": [
        {
          "internalType": "bool",
          "name": "",
          "type": "bool"
        }
      ],
      "stateMutability": "payable",
      "type": "function"
    },
    {
      "inputs": [
        {
          "internalType": "bool",
          "name": "status",
          "type": "bool"
        }
      ],
      "name": "setRevocation",
      "outputs": [],
      "stateMutability": "nonpayable",
      "type": "function"
    },
    {
      "inputs": [],
      "name": "version",
      "outputs": [
        {
          "internalType": "string",
          "name": "",
          "type": "string"
        }
      ],
      "stateMutability": "view",
      "type": "function"
    },
    {
      "stateMutability": "payable",
      "type": "receive"
    }
  ],
  "bytecode": "0x610100604052348015610010575f5ffd5b5060405161084d38038061084d83398101604081905261002f91610077565b6001608052600460a0525f60c052806001600160a01b038116610065576040516341bc07ff60e11b815260040160405180910390fd5b6001600160a01b031660e052506100a4565b5f60208284031215610087575f5ffd5b81516001600160a01b038116811461009d575f5ffd5b9392505050565b60805160a05160c05160e0516107766100d75f395f61044501525f6101b201525f61018901525f61016001526107765ff3fe608060405260043610610071575f3560e01c8063ce46e0461161004c578063ce46e046146100f5578063e49617e114610107578063e60c35051461011a578063f545cb661461012d575f5ffd5b806354fd4d501461009557806388e5b2d9146100bf57806391db0b7e146100e2575f5ffd5b3661009157604051631574f9f360e01b815260040160405180910390fd5b005b5f5ffd5b3480156100a0575f5ffd5b506100a9610159565b6040516100b6919061055c565b60405180910390f35b6100d26100cd3660046105d9565b6101fc565b60405190151581526020016100b6565b6100d26100f03660046105d9565b6102ca565b348015610100575f5ffd5b505f6100d2565b6100d2610115366004610645565b610385565b6100d2610128366004610645565b61039a565b348015610138575f5ffd5b5061008f610147366004610684565b5f805460ff1916911515919091179055565b60606101847f00000000000000000000000000000000000000000000000000000000000000006103aa565b6101ad7f00000000000000000000000000000000000000000000000000000000000000006103aa565b6101d67f00000000000000000000000000000000000000000000000000000000000000006103aa565b6040516020016101e8939291906106ba565b604051602081830303815290604052905090565b5f61020561043a565b838281146102265760405163251f56a160e21b815260040160405180910390fd5b345f5b828110156102ba575f868683818110610244576102446106f9565b9050602002013590508281111561026e5760405163044044a560e21b815260040160405180910390fd5b61029e898984818110610283576102836106f9565b9050602002810190610295919061070d565b505f5460ff1690565b6102ae575f9450505050506102c2565b90910390600101610229565b506001925050505b949350505050565b5f6102d361043a565b838281146102f45760405163251f56a160e21b815260040160405180910390fd5b345f5b828110156102ba575f868683818110610312576103126106f9565b9050602002013590508281111561033c5760405163044044a560e21b815260040160405180910390fd5b610369898984818110610351576103516106f9565b9050602002810190610363919061070d565b50600190565b610379575f9450505050506102c2565b909103906001016102f7565b5f61038e61043a565b5f5460ff165b92915050565b5f6103a361043a565b6001610394565b60605f6103b683610485565b60010190505f8167ffffffffffffffff8111156103d5576103d561072c565b6040519080825280601f01601f1916602001820160405280156103ff576020820181803683370190505b5090508181016020015b5f19016f181899199a1a9b1b9c1cb0b131b232b360811b600a86061a8153600a850494508461040957509392505050565b336001600160a01b037f0000000000000000000000000000000000000000000000000000000000000000161461048357604051634ca8886760e01b815260040160405180910390fd5b565b5f8072184f03e93ff9f4daa797ed6e38ed64bf6a1f0160401b83106104c35772184f03e93ff9f4daa797ed6e38ed64bf6a1f0160401b830492506040015b6d04ee2d6d415b85acef810000000083106104ef576d04ee2d6d415b85acef8100000000830492506020015b662386f26fc10000831061050d57662386f26fc10000830492506010015b6305f5e1008310610525576305f5e100830492506008015b612710831061053957612710830492506004015b6064831061054b576064830492506002015b600a83106103945760010192915050565b602081525f82518060208401528060208501604085015e5f604082850101526040601f19601f83011684010191505092915050565b5f5f83601f8401126105a1575f5ffd5b50813567ffffffffffffffff8111156105b8575f5ffd5b6020830191508360208260051b85010111156105d2575f5ffd5b9250929050565b5f5f5f5f604085870312156105ec575f5ffd5b843567ffffffffffffffff811115610602575f5ffd5b61060e87828801610591565b909550935050602085013567ffffffffffffffff81111561062d575f5ffd5b61063987828801610591565b95989497509550505050565b5f60208284031215610655575f5ffd5b813567ffffffffffffffff81111561066b575f5ffd5b8201610140818503121561067d575f5ffd5b9392505050565b5f60208284031215610694575f5ffd5b8135801515811461067d575f5ffd5b5f81518060208401855e5f93019283525090919050565b5f6106c582866106a3565b601760f91b81526106d960018201866106a3565b9050601760f91b81526106ef60018201856106a3565b9695505050505050565b634e487b7160e01b5f52603260045260245ffd5b5f823561013e19833603018112610722575f5ffd5b9190910192915050565b634e487b7160e01b5f52604160045260245ffdfea2646970667358221220b225ddec5912a6b2766ec4c8c964077cd696fcd82efb6778289b355c1f7bab7864736f6c634300081c0033",
  "linkReferences": {},
  "deployedLinkReferences": {}
}