{
  "_format": "hh-sol-artifact-1",
  "contractName": "PayingResolver",
  "sourceName": "contracts/eas/resolver/examples/PayingResolver.sol",
  "abi": [
    {
      "inputs": [
        {
          "internalType": "contract IEAS",
          "name": "eas",
          "type": "address"
        },
        {
          "internalType": "uint256",
          "name": "incentive",
          "type": "uint256"
        }
      ],
      "stateMutability": "nonpayable",
      "type": "constructor"
    },
    {
      "inputs": [],
      "name": "AccessDenied",
      "type": "error"
    },
    {
      "inputs": [],
      "name": "FailedCall",
      "type": "error"
    },
    {
      "inputs": [
        {
          "internalType": "uint256",
          "name": "balance",
          "type": "uint256"
        },
        {
          "internalType": "uint256",
          "name": "needed",
          "type": "uint256"
        }
      ],
      "name": "InsufficientBalance",
      "type": "error"
    },
    {
      "inputs": [],
      "name": "InsufficientValue",
      "type": "error"
    },
    {
      "inputs": [],
      "name": "InvalidEAS",
      "type": "error"
    },
    {
      "inputs": [],
      "name": "InvalidLength",
      "type": "error"
    },
    {
      "inputs": [],
      "name": "InvalidValue",
      "type": "error"
    },
    {
      "inputs": [],
      "name": "NotPayable",
      "type": "error"
    },
    {
      "inputs": [
        {
          "components": [
            {
              "internalType": "bytes32",
              "name": "uid",
              "type": "bytes32"
            },
            {
              "internalType": "bytes32",
              "name": "schema",
              "type": "bytes32"
            },
            {
              "internalType": "uint64",
              "name": "time",
              "type": "uint64"
            },
            {
              "internalType": "uint64",
              "name": "expirationTime",
              "type": "uint64"
            },
            {
              "internalType": "uint64",
              "name": "revocationTime",
              "type": "uint64"
            },
            {
              "internalType": "bytes32",
              "name": "refUID",
              "type": "bytes32"
            },
            {
              "internalType": "address",
              "name": "recipient",
              "type": "address"
            },
            {
              "internalType": "address",
              "name": "attester",
              "type": "address"
            },
            {
              "internalType": "bool",
              "name": "revocable",
              "type": "bool"
            },
            {
              "internalType": "bytes",
              "name": "data",
              "type": "bytes"
            }
          ],
          "internalType": "struct Attestation",
          "name": "attestation",
          "type": "tuple"
        }
      ],
      "name": "attest",
      "outputs": [
        {
          "internalType": "bool",
          "name": "",
          "type": "bool"
        }
      ],
      "stateMutability": "payable",
      "type": "function"
    },
    {
      "inputs": [],
      "name": "isPayable",
      "outputs": [
        {
          "internalType": "bool",
          "name": "",
          "type": "bool"
        }
      ],
      "stateMutability": "pure",
      "type": "function"
    },
    {
      "inputs": [
        {
          "components": [
            {
              "internalType": "bytes32",
              "name": "uid",
              "type": "bytes32"
            },
            {
              "internalType": "bytes32",
              "name": "schema",
              "type": "bytes32"
            },
            {
              "internalType": "uint64",
              "name": "time",
              "type": "uint64"
            },
            {
              "internalType": "uint64",
              "name": "expirationTime",
              "type": "uint64"
            },
            {
              "internalType": "uint64",
              "name": "revocationTime",
              "type": "uint64"
            },
            {
              "internalType": "bytes32",
              "name": "refUID",
              "type": "bytes32"
            },
            {
              "internalType": "address",
              "name": "recipient",
              "type": "address"
            },
            {
              "internalType": "address",
              "name": "attester",
              "type": "address"
            },
            {
              "internalType": "bool",
              "name": "revocable",
              "type": "bool"
            },
            {
              "internalType": "bytes",
              "name": "data",
              "type": "bytes"
            }
          ],
          "internalType": "struct Attestation[]",
          "name": "attestations",
          "type": "tuple[]"
        },
        {
          "internalType": "uint256[]",
          "name": "values",
          "type": "uint256[]"
        }
      ],
      "name": "multiAttest",
      "outputs": [
        {
          "internalType": "bool",
          "name": "",
          "type": "bool"
        }
      ],
      "stateMutability": "payable",
      "type": "function"
    },
    {
      "inputs": [
        {
          "components": [
            {
              "internalType": "bytes32",
              "name": "uid",
              "type": "bytes32"
            },
            {
              "internalType": "bytes32",
              "name": "schema",
              "type": "bytes32"
            },
            {
              "internalType": "uint64",
              "name": "time",
              "type": "uint64"
            },
            {
              "internalType": "uint64",
              "name": "expirationTime",
              "type": "uint64"
            },
            {
              "internalType": "uint64",
              "name": "revocationTime",
              "type": "uint64"
            },
            {
              "internalType": "bytes32",
              "name": "refUID",
              "type": "bytes32"
            },
            {
              "internalType": "address",
              "name": "recipient",
              "type": "address"
            },
            {
              "internalType": "address",
              "name": "attester",
              "type": "address"
            },
            {
              "internalType": "bool",
              "name": "revocable",
              "type": "bool"
            },
            {
              "internalType": "bytes",
              "name": "data",
              "type": "bytes"
            }
          ],
          "internalType": "struct Attestation[]",
          "name": "attestations",
          "type": "tuple[]"
        },
        {
          "internalType": "uint256[]",
          "name": "values",
          "type": "uint256[]"
        }
      ],
      "name": "multiRevoke",
      "outputs": [
        {
          "internalType": "bool",
          "name": "",
          "type": "bool"
        }
      ],
      "stateMutability": "payable",
      "type": "function"
    },
    {
      "inputs": [
        {
          "components": [
            {
              "internalType": "bytes32",
              "name": "uid",
              "type": "bytes32"
            },
            {
              "internalType": "bytes32",
              "name": "schema",
              "type": "bytes32"
            },
            {
              "internalType": "uint64",
              "name": "time",
              "type": "uint64"
            },
            {
              "internalType": "uint64",
              "name": "expirationTime",
              "type": "uint64"
            },
            {
              "internalType": "uint64",
              "name": "revocationTime",
              "type": "uint64"
            },
            {
              "internalType": "bytes32",
              "name": "refUID",
              "type": "bytes32"
            },
            {
              "internalType": "address",
              "name": "recipient",
              "type": "address"
            },
            {
              "internalType": "address",
              "name": "attester",
              "type": "address"
            },
            {
              "internalType": "bool",
              "name": "revocable",
              "type": "bool"
            },
            {
              "internalType": "bytes",
              "name": "data",
              "type": "bytes"
            }
          ],
          "internalType": "struct Attestation",
          "name": "attestation",
          "type": "tuple"
        }
      ],
      "name": "revoke",
      "outputs": [
        {
          "internalType": "bool",
          "name": "",
          "type": "bool"
        }
      ],
      "stateMutability": "payable",
      "type": "function"
    },
    {
      "inputs": [],
      "name": "version",
      "outputs": [
        {
          "internalType": "string",
          "name": "",
          "type": "string"
        }
      ],
      "stateMutability": "view",
      "type": "function"
    },
    {
      "stateMutability": "payable",
      "type": "receive"
    }
  ],
  "bytecode": "0x610120604052348015610010575f5ffd5b50604051610a0d380380610a0d83398101604081905261002f9161007b565b6001608052600460a0525f60c052816001600160a01b038116610065576040516341bc07ff60e11b815260040160405180910390fd5b6001600160a01b031660e05261010052506100b2565b5f5f6040838503121561008c575f5ffd5b82516001600160a01b03811681146100a2575f5ffd5b6020939093015192949293505050565b60805160a05160c05160e051610100516109096101045f395f818161042e0152818161045d0152818161048b015261050601525f6103eb01525f61015401525f61012b01525f61010201526109095ff3fe608060405260043610610057575f3560e01c806354fd4d501461006257806388e5b2d91461008c57806391db0b7e146100af578063ce46e046146100c2578063e49617e1146100d5578063e60c3505146100e8575f5ffd5b3661005e57005b5f5ffd5b34801561006d575f5ffd5b506100766100fb565b60405161008391906106c9565b60405180910390f35b61009f61009a366004610746565b61019e565b6040519015158152602001610083565b61009f6100bd366004610746565b610269565b3480156100cd575f5ffd5b50600161009f565b61009f6100e33660046107b2565b610324565b61009f6100f63660046107b2565b61033d565b60606101267f0000000000000000000000000000000000000000000000000000000000000000610350565b61014f7f0000000000000000000000000000000000000000000000000000000000000000610350565b6101787f0000000000000000000000000000000000000000000000000000000000000000610350565b60405160200161018a93929190610808565b604051602081830303815290604052905090565b5f6101a76103e0565b838281146101c85760405163251f56a160e21b815260040160405180910390fd5b345f5b82811015610259575f8686838181106101e6576101e6610847565b905060200201359050828111156102105760405163044044a560e21b815260040160405180910390fd5b61023d89898481811061022557610225610847565b9050602002810190610237919061085b565b8261042b565b61024d575f945050505050610261565b909103906001016101cb565b506001925050505b949350505050565b5f6102726103e0565b838281146102935760405163251f56a160e21b815260040160405180910390fd5b345f5b82811015610259575f8686838181106102b1576102b1610847565b905060200201359050828111156102db5760405163044044a560e21b815260040160405180910390fd5b6103088989848181106102f0576102f0610847565b9050602002810190610302919061085b565b826104d9565b610318575f945050505050610261565b90910390600101610296565b5f61032d6103e0565b610337823461042b565b92915050565b5f6103466103e0565b61033782346104d9565b60605f61035c83610557565b60010190505f8167ffffffffffffffff81111561037b5761037b61087a565b6040519080825280601f01601f1916602001820160405280156103a5576020820181803683370190505b5090508181016020015b5f19016f181899199a1a9b1b9c1cb0b131b232b360811b600a86061a8153600a85049450846103af57509392505050565b336001600160a01b037f0000000000000000000000000000000000000000000000000000000000000000161461042957604051634ca8886760e01b815260040160405180910390fd5b565b5f7f000000000000000000000000000000000000000000000000000000000000000082101561045b57505f610337565b7f00000000000000000000000000000000000000000000000000000000000000008211156104d0576104d06104b07f00000000000000000000000000000000000000000000000000000000000000008461088e565b6104c1610100860160e087016108ad565b6001600160a01b03169061062e565b50600192915050565b5f81156104e757505f610337565b6104f8610100840160e085016108ad565b6001600160a01b03166108fc7f000000000000000000000000000000000000000000000000000000000000000090811502906040515f60405180830381858888f1935050505015801561054d573d5f5f3e3d5ffd5b5060019392505050565b5f8072184f03e93ff9f4daa797ed6e38ed64bf6a1f0160401b83106105955772184f03e93ff9f4daa797ed6e38ed64bf6a1f0160401b830492506040015b6d04ee2d6d415b85acef810000000083106105c1576d04ee2d6d415b85acef8100000000830492506020015b662386f26fc1000083106105df57662386f26fc10000830492506010015b6305f5e10083106105f7576305f5e100830492506008015b612710831061060b57612710830492506004015b6064831061061d576064830492506002015b600a83106103375760010192915050565b8047101561065c5760405163cf47918160e01b81524760048201526024810182905260440160405180910390fd5b610675828260405180602001604052805f8152506106a9565b1561067e575050565b3d156106905761068c6106be565b5050565b60405163d6bda27560e01b815260040160405180910390fd5b5f5f5f83516020850186885af1949350505050565b6040513d5f823e3d81fd5b602081525f82518060208401528060208501604085015e5f604082850101526040601f19601f83011684010191505092915050565b5f5f83601f84011261070e575f5ffd5b50813567ffffffffffffffff811115610725575f5ffd5b6020830191508360208260051b850101111561073f575f5ffd5b9250929050565b5f5f5f5f60408587031215610759575f5ffd5b843567ffffffffffffffff81111561076f575f5ffd5b61077b878288016106fe565b909550935050602085013567ffffffffffffffff81111561079a575f5ffd5b6107a6878288016106fe565b95989497509550505050565b5f602082840312156107c2575f5ffd5b813567ffffffffffffffff8111156107d8575f5ffd5b820161014081850312156107ea575f5ffd5b9392505050565b5f81518060208401855e5f93019283525090919050565b5f61081382866107f1565b601760f91b815261082760018201866107f1565b9050601760f91b815261083d60018201856107f1565b9695505050505050565b634e487b7160e01b5f52603260045260245ffd5b5f823561013e19833603018112610870575f5ffd5b9190910192915050565b634e487b7160e01b5f52604160045260245ffd5b8181038181111561033757634e487b7160e01b5f52601160045260245ffd5b5f602082840312156108bd575f5ffd5b81356001600160a01b03811681146107ea575f5ffdfea26469706673582212208abbb5e2c8a8fb999d686a3fa0613d263871d6c1bfd40e1b4d4a7abba6db62f064736f6c634300081c0033",
  "linkReferences": {},
  "deployedLinkReferences": {}
}