{
  "_format": "hh-sol-artifact-1",
  "contractName": "AttestationResolver",
  "sourceName": "contracts/eas/resolver/examples/AttestationResolver.sol",
  "abi": [
    {
      "inputs": [
        {
          "internalType": "contract IEAS",
          "name": "eas",
          "type": "address"
        }
      ],
      "stateMutability": "nonpayable",
      "type": "constructor"
    },
    {
      "inputs": [],
      "name": "AccessDenied",
      "type": "error"
    },
    {
      "inputs": [],
      "name": "InsufficientValue",
      "type": "error"
    },
    {
      "inputs": [],
      "name": "InvalidEAS",
      "type": "error"
    },
    {
      "inputs": [],
      "name": "InvalidLength",
      "type": "error"
    },
    {
      "inputs": [],
      "name": "NotPayable",
      "type": "error"
    },
    {
      "inputs": [],
      "name": "OutOfBounds",
      "type": "error"
    },
    {
      "inputs": [
        {
          "components": [
            {
              "internalType": "bytes32",
              "name": "uid",
              "type": "bytes32"
            },
            {
              "internalType": "bytes32",
              "name": "schema",
              "type": "bytes32"
            },
            {
              "internalType": "uint64",
              "name": "time",
              "type": "uint64"
            },
            {
              "internalType": "uint64",
              "name": "expirationTime",
              "type": "uint64"
            },
            {
              "internalType": "uint64",
              "name": "revocationTime",
              "type": "uint64"
            },
            {
              "internalType": "bytes32",
              "name": "refUID",
              "type": "bytes32"
            },
            {
              "internalType": "address",
              "name": "recipient",
              "type": "address"
            },
            {
              "internalType": "address",
              "name": "attester",
              "type": "address"
            },
            {
              "internalType": "bool",
              "name": "revocable",
              "type": "bool"
            },
            {
              "internalType": "bytes",
              "name": "data",
              "type": "bytes"
            }
          ],
          "internalType": "struct Attestation",
          "name": "attestation",
          "type": "tuple"
        }
      ],
      "name": "attest",
      "outputs": [
        {
          "internalType": "bool",
          "name": "",
          "type": "bool"
        }
      ],
      "stateMutability": "payable",
      "type": "function"
    },
    {
      "inputs": [],
      "name": "isPayable",
      "outputs": [
        {
          "internalType": "bool",
          "name": "",
          "type": "bool"
        }
      ],
      "stateMutability": "pure",
      "type": "function"
    },
    {
      "inputs": [
        {
          "components": [
            {
              "internalType": "bytes32",
              "name": "uid",
              "type": "bytes32"
            },
            {
              "internalType": "bytes32",
              "name": "schema",
              "type": "bytes32"
            },
            {
              "internalType": "uint64",
              "name": "time",
              "type": "uint64"
            },
            {
              "internalType": "uint64",
              "name": "expirationTime",
              "type": "uint64"
            },
            {
              "internalType": "uint64",
              "name": "revocationTime",
              "type": "uint64"
            },
            {
              "internalType": "bytes32",
              "name": "refUID",
              "type": "bytes32"
            },
            {
              "internalType": "address",
              "name": "recipient",
              "type": "address"
            },
            {
              "internalType": "address",
              "name": "attester",
              "type": "address"
            },
            {
              "internalType": "bool",
              "name": "revocable",
              "type": "bool"
            },
            {
              "internalType": "bytes",
              "name": "data",
              "type": "bytes"
            }
          ],
          "internalType": "struct Attestation[]",
          "name": "attestations",
          "type": "tuple[]"
        },
        {
          "internalType": "uint256[]",
          "name": "values",
          "type": "uint256[]"
        }
      ],
      "name": "multiAttest",
      "outputs": [
        {
          "internalType": "bool",
          "name": "",
          "type": "bool"
        }
      ],
      "stateMutability": "payable",
      "type": "function"
    },
    {
      "inputs": [
        {
          "components": [
            {
              "internalType": "bytes32",
              "name": "uid",
              "type": "bytes32"
            },
            {
              "internalType": "bytes32",
              "name": "schema",
              "type": "bytes32"
            },
            {
              "internalType": "uint64",
              "name": "time",
              "type": "uint64"
            },
            {
              "internalType": "uint64",
              "name": "expirationTime",
              "type": "uint64"
            },
            {
              "internalType": "uint64",
              "name": "revocationTime",
              "type": "uint64"
            },
            {
              "internalType": "bytes32",
              "name": "refUID",
              "type": "bytes32"
            },
            {
              "internalType": "address",
              "name": "recipient",
              "type": "address"
            },
            {
              "internalType": "address",
              "name": "attester",
              "type": "address"
            },
            {
              "internalType": "bool",
              "name": "revocable",
              "type": "bool"
            },
            {
              "internalType": "bytes",
              "name": "data",
              "type": "bytes"
            }
          ],
          "internalType": "struct Attestation[]",
          "name": "attestations",
          "type": "tuple[]"
        },
        {
          "internalType": "uint256[]",
          "name": "values",
          "type": "uint256[]"
        }
      ],
      "name": "multiRevoke",
      "outputs": [
        {
          "internalType": "bool",
          "name": "",
          "type": "bool"
        }
      ],
      "stateMutability": "payable",
      "type": "function"
    },
    {
      "inputs": [
        {
          "components": [
            {
              "internalType": "bytes32",
              "name": "uid",
              "type": "bytes32"
            },
            {
              "internalType": "bytes32",
              "name": "schema",
              "type": "bytes32"
            },
            {
              "internalType": "uint64",
              "name": "time",
              "type": "uint64"
            },
            {
              "internalType": "uint64",
              "name": "expirationTime",
              "type": "uint64"
            },
            {
              "internalType": "uint64",
              "name": "revocationTime",
              "type": "uint64"
            },
            {
              "internalType": "bytes32",
              "name": "refUID",
              "type": "bytes32"
            },
            {
              "internalType": "address",
              "name": "recipient",
              "type": "address"
            },
            {
              "internalType": "address",
              "name": "attester",
              "type": "address"
            },
            {
              "internalType": "bool",
              "name": "revocable",
              "type": "bool"
            },
            {
              "internalType": "bytes",
              "name": "data",
              "type": "bytes"
            }
          ],
          "internalType": "struct Attestation",
          "name": "attestation",
          "type": "tuple"
        }
      ],
      "name": "revoke",
      "outputs": [
        {
          "internalType": "bool",
          "name": "",
          "type": "bool"
        }
      ],
      "stateMutability": "payable",
      "type": "function"
    },
    {
      "inputs": [
        {
          "internalType": "bytes",
          "name": "data",
          "type": "bytes"
        },
        {
          "internalType": "uint256",
          "name": "start",
          "type": "uint256"
        }
      ],
      "name": "toBytes32",
      "outputs": [
        {
          "internalType": "bytes32",
          "name": "",
          "type": "bytes32"
        }
      ],
      "stateMutability": "pure",
      "type": "function"
    },
    {
      "inputs": [],
      "name": "version",
      "outputs": [
        {
          "internalType": "string",
          "name": "",
          "type": "string"
        }
      ],
      "stateMutability": "view",
      "type": "function"
    },
    {
      "stateMutability": "payable",
      "type": "receive"
    }
  ],
  "bytecode": "0x610100604052348015610010575f5ffd5b50604051610c6f380380610c6f83398101604081905261002f91610077565b6001608052600460a0525f60c052806001600160a01b038116610065576040516341bc07ff60e11b815260040160405180910390fd5b6001600160a01b031660e052506100a4565b5f60208284031215610087575f5ffd5b81516001600160a01b038116811461009d575f5ffd5b9392505050565b60805160a05160c05160e051610b916100de5f395f8181610454015261050301525f6101b101525f61018801525f61015f0152610b915ff3fe608060405260043610610071575f3560e01c806399dd9bd71161004c57806399dd9bd7146100f3578063ce46e04614610120578063e49617e114610132578063e60c350514610145575f5ffd5b806354fd4d501461009357806388e5b2d9146100bd57806391db0b7e146100e0575f5ffd5b3661008f57604051631574f9f360e01b815260040160405180910390fd5b5f5ffd5b34801561009e575f5ffd5b506100a7610158565b6040516100b491906106c4565b60405180910390f35b6100d06100cb366004610740565b6101fb565b60405190151581526020016100b4565b6100d06100ee366004610740565b6102c6565b3480156100fe575f5ffd5b5061011261010d36600461083d565b610381565b6040519081526020016100b4565b34801561012b575f5ffd5b505f6100d0565b6100d06101403660046108b8565b610393565b6100d06101533660046108b8565b6103a7565b60606101837f00000000000000000000000000000000000000000000000000000000000000006103ba565b6101ac7f00000000000000000000000000000000000000000000000000000000000000006103ba565b6101d57f00000000000000000000000000000000000000000000000000000000000000006103ba565b6040516020016101e793929190610906565b604051602081830303815290604052905090565b5f610204610449565b838281146102255760405163251f56a160e21b815260040160405180910390fd5b345f5b828110156102b6575f86868381811061024357610243610945565b9050602002013590508281111561026d5760405163044044a560e21b815260040160405180910390fd5b61029a89898481811061028257610282610945565b90506020028101906102949190610959565b50600190565b6102aa575f9450505050506102be565b90910390600101610228565b506001925050505b949350505050565b5f6102cf610449565b838281146102f05760405163251f56a160e21b815260040160405180910390fd5b345f5b828110156102b6575f86868381811061030e5761030e610945565b905060200201359050828111156103385760405163044044a560e21b815260040160405180910390fd5b61036589898481811061034d5761034d610945565b905060200281019061035f9190610959565b82610494565b610375575f9450505050506102be565b909103906001016102f3565b5f61038c83836105bd565b9392505050565b5f61039c610449565b60015b90505b919050565b5f6103b0610449565b61039f8234610494565b60605f6103c6836105ec565b60010190505f816001600160401b038111156103e4576103e46107aa565b6040519080825280601f01601f19166020018201604052801561040e576020820181803683370190505b5090508181016020015b5f19016f181899199a1a9b1b9c1cb0b131b232b360811b600a86061a8153600a850494508461041857509392505050565b336001600160a01b037f0000000000000000000000000000000000000000000000000000000000000000161461049257604051634ca8886760e01b815260040160405180910390fd5b565b5f806104e06104a7610120860186610978565b8080601f0160208091040260200160405190810160405280939291908181526020018383808284375f92018290525092506105bd915050565b6040516328c44a9960e21b8152600481018290529091505f906001600160a01b037f0000000000000000000000000000000000000000000000000000000000000000169063a3112a64906024015f60405180830381865afa158015610547573d5f5f3e3d5ffd5b505050506040513d5f823e601f3d908101601f1916820160405261056e9190810190610a42565b6101208101515190915060201480156105b457507f45413545413545413545413545413545413545413545413545413545413500008161012001516105b290610b35565b145b95945050505050565b5f81602001835110156105e357604051632d0483c560e21b815260040160405180910390fd5b50016020015190565b5f8072184f03e93ff9f4daa797ed6e38ed64bf6a1f0160401b831061062a5772184f03e93ff9f4daa797ed6e38ed64bf6a1f0160401b830492506040015b6d04ee2d6d415b85acef81000000008310610656576d04ee2d6d415b85acef8100000000830492506020015b662386f26fc10000831061067457662386f26fc10000830492506010015b6305f5e100831061068c576305f5e100830492506008015b61271083106106a057612710830492506004015b606483106106b2576064830492506002015b600a83106106be576001015b92915050565b602081525f82518060208401528060208501604085015e5f604082850101526040601f19601f83011684010191505092915050565b5f5f83601f840112610709575f5ffd5b5081356001600160401b0381111561071f575f5ffd5b6020830191508360208260051b8501011115610739575f5ffd5b9250929050565b5f5f5f5f60408587031215610753575f5ffd5b84356001600160401b03811115610768575f5ffd5b610774878288016106f9565b90955093505060208501356001600160401b03811115610792575f5ffd5b61079e878288016106f9565b95989497509550505050565b634e487b7160e01b5f52604160045260245ffd5b60405161014081016001600160401b03811182821017156107e1576107e16107aa565b60405290565b604051601f8201601f191681016001600160401b038111828210171561080f5761080f6107aa565b604052919050565b5f6001600160401b0382111561082f5761082f6107aa565b50601f01601f191660200190565b5f5f6040838503121561084e575f5ffd5b82356001600160401b03811115610863575f5ffd5b8301601f81018513610873575f5ffd5b803561088661088182610817565b6107e7565b81815286602083850101111561089a575f5ffd5b816020840160208301375f6020928201830152969401359450505050565b5f602082840312156108c8575f5ffd5b81356001600160401b038111156108dd575f5ffd5b8201610140818503121561038c575f5ffd5b5f81518060208401855e5f93019283525090919050565b5f61091182866108ef565b601760f91b815261092560018201866108ef565b9050601760f91b815261093b60018201856108ef565b9695505050505050565b634e487b7160e01b5f52603260045260245ffd5b5f823561013e1983360301811261096e575f5ffd5b9190910192915050565b5f5f8335601e1984360301811261098d575f5ffd5b8301803591506001600160401b038211156109a6575f5ffd5b602001915036819003821315610739575f5ffd5b80516001600160401b03811681146103a2575f5ffd5b80516001600160a01b03811681146103a2575f5ffd5b805180151581146103a2575f5ffd5b5f82601f830112610a04575f5ffd5b8151610a1261088182610817565b818152846020838601011115610a26575f5ffd5b8160208501602083015e5f918101602001919091529392505050565b5f60208284031215610a52575f5ffd5b81516001600160401b03811115610a67575f5ffd5b82016101408185031215610a79575f5ffd5b610a816107be565b8151815260208083015190820152610a9b604083016109ba565b6040820152610aac606083016109ba565b6060820152610abd608083016109ba565b608082015260a08281015190820152610ad860c083016109d0565b60c0820152610ae960e083016109d0565b60e0820152610afb61010083016109e6565b6101008201526101208201516001600160401b03811115610b1a575f5ffd5b610b26868285016109f5565b61012083015250949350505050565b80516020808301519190811015610b55575f198160200360031b1b821691505b5091905056fea2646970667358221220ed11e2b60574289373bb31cc76773fb48ec9e82aa44e7d0cdda69fd982c1700064736f6c634300081c0033",
  "linkReferences": {},
  "deployedLinkReferences": {}
}