{
  "_format": "hh-sol-artifact-1",
  "contractName": "EIP712Proxy",
  "sourceName": "contracts/eas/eip712/proxy/EIP712Proxy.sol",
  "abi": [
    {
      "inputs": [
        {
          "internalType": "contract IEAS",
          "name": "eas",
          "type": "address"
        },
        {
          "internalType": "string",
          "name": "name",
          "type": "string"
        }
      ],
      "stateMutability": "nonpayable",
      "type": "constructor"
    },
    {
      "inputs": [],
      "name": "AccessDenied",
      "type": "error"
    },
    {
      "inputs": [],
      "name": "DeadlineExpired",
      "type": "error"
    },
    {
      "inputs": [],
      "name": "ECDSAInvalidSignature",
      "type": "error"
    },
    {
      "inputs": [
        {
          "internalType": "uint256",
          "name": "length",
          "type": "uint256"
        }
      ],
      "name": "ECDSAInvalidSignatureLength",
      "type": "error"
    },
    {
      "inputs": [
        {
          "internalType": "bytes32",
          "name": "s",
          "type": "bytes32"
        }
      ],
      "name": "ECDSAInvalidSignatureS",
      "type": "error"
    },
    {
      "inputs": [],
      "name": "InvalidEAS",
      "type": "error"
    },
    {
      "inputs": [],
      "name": "InvalidLength",
      "type": "error"
    },
    {
      "inputs": [],
      "name": "InvalidShortString",
      "type": "error"
    },
    {
      "inputs": [],
      "name": "InvalidSignature",
      "type": "error"
    },
    {
      "inputs": [],
      "name": "NotFound",
      "type": "error"
    },
    {
      "inputs": [
        {
          "internalType": "string",
          "name": "str",
          "type": "string"
        }
      ],
      "name": "StringTooLong",
      "type": "error"
    },
    {
      "inputs": [],
      "name": "UsedSignature",
      "type": "error"
    },
    {
      "anonymous": false,
      "inputs": [],
      "name": "EIP712DomainChanged",
      "type": "event"
    },
    {
      "inputs": [
        {
          "components": [
            {
              "internalType": "bytes32",
              "name": "schema",
              "type": "bytes32"
            },
            {
              "components": [
                {
                  "internalType": "address",
                  "name": "recipient",
                  "type": "address"
                },
                {
                  "internalType": "uint64",
                  "name": "expirationTime",
                  "type": "uint64"
                },
                {
                  "internalType": "bool",
                  "name": "revocable",
                  "type": "bool"
                },
                {
                  "internalType": "bytes32",
                  "name": "refUID",
                  "type": "bytes32"
                },
                {
                  "internalType": "bytes",
                  "name": "data",
                  "type": "bytes"
                },
                {
                  "internalType": "uint256",
                  "name": "value",
                  "type": "uint256"
                }
              ],
              "internalType": "struct AttestationRequestData",
              "name": "data",
              "type": "tuple"
            },
            {
              "components": [
                {
                  "internalType": "uint8",
                  "name": "v",
                  "type": "uint8"
                },
                {
                  "internalType": "bytes32",
                  "name": "r",
                  "type": "bytes32"
                },
                {
                  "internalType": "bytes32",
                  "name": "s",
                  "type": "bytes32"
                }
              ],
              "internalType": "struct Signature",
              "name": "signature",
              "type": "tuple"
            },
            {
              "internalType": "address",
              "name": "attester",
              "type": "address"
            },
            {
              "internalType": "uint64",
              "name": "deadline",
              "type": "uint64"
            }
          ],
          "internalType": "struct DelegatedProxyAttestationRequest",
          "name": "delegatedRequest",
          "type": "tuple"
        }
      ],
      "name": "attestByDelegation",
      "outputs": [
        {
          "internalType": "bytes32",
          "name": "",
          "type": "bytes32"
        }
      ],
      "stateMutability": "payable",
      "type": "function"
    },
    {
      "inputs": [],
      "name": "eip712Domain",
      "outputs": [
        {
          "internalType": "bytes1",
          "name": "fields",
          "type": "bytes1"
        },
        {
          "internalType": "string",
          "name": "name",
          "type": "string"
        },
        {
          "internalType": "string",
          "name": "version",
          "type": "string"
        },
        {
          "internalType": "uint256",
          "name": "chainId",
          "type": "uint256"
        },
        {
          "internalType": "address",
          "name": "verifyingContract",
          "type": "address"
        },
        {
          "internalType": "bytes32",
          "name": "salt",
          "type": "bytes32"
        },
        {
          "internalType": "uint256[]",
          "name": "extensions",
          "type": "uint256[]"
        }
      ],
      "stateMutability": "view",
      "type": "function"
    },
    {
      "inputs": [],
      "name": "getAttestTypeHash",
      "outputs": [
        {
          "internalType": "bytes32",
          "name": "",
          "type": "bytes32"
        }
      ],
      "stateMutability": "pure",
      "type": "function"
    },
    {
      "inputs": [
        {
          "internalType": "bytes32",
          "name": "uid",
          "type": "bytes32"
        }
      ],
      "name": "getAttester",
      "outputs": [
        {
          "internalType": "address",
          "name": "",
          "type": "address"
        }
      ],
      "stateMutability": "view",
      "type": "function"
    },
    {
      "inputs": [],
      "name": "getDomainSeparator",
      "outputs": [
        {
          "internalType": "bytes32",
          "name": "",
          "type": "bytes32"
        }
      ],
      "stateMutability": "view",
      "type": "function"
    },
    {
      "inputs": [],
      "name": "getEAS",
      "outputs": [
        {
          "internalType": "contract IEAS",
          "name": "",
          "type": "address"
        }
      ],
      "stateMutability": "view",
      "type": "function"
    },
    {
      "inputs": [],
      "name": "getName",
      "outputs": [
        {
          "internalType": "string",
          "name": "",
          "type": "string"
        }
      ],
      "stateMutability": "view",
      "type": "function"
    },
    {
      "inputs": [],
      "name": "getRevokeTypeHash",
      "outputs": [
        {
          "internalType": "bytes32",
          "name": "",
          "type": "bytes32"
        }
      ],
      "stateMutability": "pure",
      "type": "function"
    },
    {
      "inputs": [
        {
          "components": [
            {
              "internalType": "bytes32",
              "name": "schema",
              "type": "bytes32"
            },
            {
              "components": [
                {
                  "internalType": "address",
                  "name": "recipient",
                  "type": "address"
                },
                {
                  "internalType": "uint64",
                  "name": "expirationTime",
                  "type": "uint64"
                },
                {
                  "internalType": "bool",
                  "name": "revocable",
                  "type": "bool"
                },
                {
                  "internalType": "bytes32",
                  "name": "refUID",
                  "type": "bytes32"
                },
                {
                  "internalType": "bytes",
                  "name": "data",
                  "type": "bytes"
                },
                {
                  "internalType": "uint256",
                  "name": "value",
                  "type": "uint256"
                }
              ],
              "internalType": "struct AttestationRequestData[]",
              "name": "data",
              "type": "tuple[]"
            },
            {
              "components": [
                {
                  "internalType": "uint8",
                  "name": "v",
                  "type": "uint8"
                },
                {
                  "internalType": "bytes32",
                  "name": "r",
                  "type": "bytes32"
                },
                {
                  "internalType": "bytes32",
                  "name": "s",
                  "type": "bytes32"
                }
              ],
              "internalType": "struct Signature[]",
              "name": "signatures",
              "type": "tuple[]"
            },
            {
              "internalType": "address",
              "name": "attester",
              "type": "address"
            },
            {
              "internalType": "uint64",
              "name": "deadline",
              "type": "uint64"
            }
          ],
          "internalType": "struct MultiDelegatedProxyAttestationRequest[]",
          "name": "multiDelegatedRequests",
          "type": "tuple[]"
        }
      ],
      "name": "multiAttestByDelegation",
      "outputs": [
        {
          "internalType": "bytes32[]",
          "name": "",
          "type": "bytes32[]"
        }
      ],
      "stateMutability": "payable",
      "type": "function"
    },
    {
      "inputs": [
        {
          "components": [
            {
              "internalType": "bytes32",
              "name": "schema",
              "type": "bytes32"
            },
            {
              "components": [
                {
                  "internalType": "bytes32",
                  "name": "uid",
                  "type": "bytes32"
                },
                {
                  "internalType": "uint256",
                  "name": "value",
                  "type": "uint256"
                }
              ],
              "internalType": "struct RevocationRequestData[]",
              "name": "data",
              "type": "tuple[]"
            },
            {
              "components": [
                {
                  "internalType": "uint8",
                  "name": "v",
                  "type": "uint8"
                },
                {
                  "internalType": "bytes32",
                  "name": "r",
                  "type": "bytes32"
                },
                {
                  "internalType": "bytes32",
                  "name": "s",
                  "type": "bytes32"
                }
              ],
              "internalType": "struct Signature[]",
              "name": "signatures",
              "type": "tuple[]"
            },
            {
              "internalType": "address",
              "name": "revoker",
              "type": "address"
            },
            {
              "internalType": "uint64",
              "name": "deadline",
              "type": "uint64"
            }
          ],
          "internalType": "struct MultiDelegatedProxyRevocationRequest[]",
          "name": "multiDelegatedRequests",
          "type": "tuple[]"
        }
      ],
      "name": "multiRevokeByDelegation",
      "outputs": [],
      "stateMutability": "payable",
      "type": "function"
    },
    {
      "inputs": [
        {
          "components": [
            {
              "internalType": "bytes32",
              "name": "schema",
              "type": "bytes32"
            },
            {
              "components": [
                {
                  "internalType": "bytes32",
                  "name": "uid",
                  "type": "bytes32"
                },
                {
                  "internalType": "uint256",
                  "name": "value",
                  "type": "uint256"
                }
              ],
              "internalType": "struct RevocationRequestData",
              "name": "data",
              "type": "tuple"
            },
            {
              "components": [
                {
                  "internalType": "uint8",
                  "name": "v",
                  "type": "uint8"
                },
                {
                  "internalType": "bytes32",
                  "name": "r",
                  "type": "bytes32"
                },
                {
                  "internalType": "bytes32",
                  "name": "s",
                  "type": "bytes32"
                }
              ],
              "internalType": "struct Signature",
              "name": "signature",
              "type": "tuple"
            },
            {
              "internalType": "address",
              "name": "revoker",
              "type": "address"
            },
            {
              "internalType": "uint64",
              "name": "deadline",
              "type": "uint64"
            }
          ],
          "internalType": "struct DelegatedProxyRevocationRequest",
          "name": "delegatedRequest",
          "type": "tuple"
        }
      ],
      "name": "revokeByDelegation",
      "outputs": [],
      "stateMutability": "payable",
      "type": "function"
    },
    {
      "inputs": [],
      "name": "version",
      "outputs": [
        {
          "internalType": "string",
          "name": "",
          "type": "string"
        }
      ],
      "stateMutability": "view",
      "type": "function"
    }
  ],
  "bytecode": "0x6101e0604052348015610010575f5ffd5b5060405161262c38038061262c83398101604081905261002f916101e6565b6040805180820190915260058152640312e342e360dc1b60208201526001608052600460a0525f60c081905282919061006990839061015a565b6101805261007881600161015a565b6101a0528151602080840191909120610140528151908201206101605246610100526101076101405161016051604080517f8b73c3c69bb8fe3d512ecc4cf759cc79239f7b179b0ffacaa9a75d522b39400f60208201529081019290925260608201524660808201523060a08201525f9060c00160405160208183030381529060405280519060200120905090565b60e052505030610120526001600160a01b038216610138576040516341bc07ff60e11b815260040160405180910390fd5b6001600160a01b0382166101c05260026101528282610339565b50505061044b565b5f6020835110156101755761016e8361018c565b9050610186565b816101808482610339565b5060ff90505b92915050565b5f5f829050601f815111156101bf578260405163305a27a960e01b81526004016101b691906103f3565b60405180910390fd5b80516101ca82610428565b179392505050565b634e487b7160e01b5f52604160045260245ffd5b5f5f604083850312156101f7575f5ffd5b82516001600160a01b038116811461020d575f5ffd5b60208401519092506001600160401b03811115610228575f5ffd5b8301601f81018513610238575f5ffd5b80516001600160401b03811115610251576102516101d2565b604051601f8201601f19908116603f011681016001600160401b038111828210171561027f5761027f6101d2565b604052818152828201602001871015610296575f5ffd5b8160208401602083015e5f602083830101528093505050509250929050565b600181811c908216806102c957607f821691505b6020821081036102e757634e487b7160e01b5f52602260045260245ffd5b50919050565b601f82111561033457805f5260205f20601f840160051c810160208510156103125750805b601f840160051c820191505b81811015610331575f815560010161031e565b50505b505050565b81516001600160401b03811115610352576103526101d2565b6103668161036084546102b5565b846102ed565b6020601f821160018114610398575f83156103815750848201515b5f19600385901b1c1916600184901b178455610331565b5f84815260208120601f198516915b828110156103c757878501518255602094850194600190920191016103a7565b50848210156103e457868401515f19600387901b60f8161c191681555b50505050600190811b01905550565b602081525f82518060208401528060208501604085015e5f604082850101526040601f19601f83011684010191505092915050565b805160208083015191908110156102e7575f1960209190910360031b1b16919050565b60805160a05160c05160e05161010051610120516101405161016051610180516101a0516101c05161214c6104e05f395f81816101a10152818161042f0152818161053f015281816109260152610aac01525f610f7601525f610f4a01525f61107501525f61104d01525f610fa801525f610fd201525f610ffc01525f61069601525f61066d01525f610644015261214c5ff3fe6080604052600436106100a5575f3560e01c806365c40b9c1161006257806365c40b9c1461019357806384b0196e146101c557806395411525146101ec578063a6d4dbc71461020c578063b83010d31461021f578063ed24911d14610251575f5ffd5b80630eabf660146100a957806310d736d5146100be57806312b11a171461010f57806317d7de7c1461014b5780633c0427151461016c57806354fd4d501461017f575b5f5ffd5b6100bc6100b736600461158f565b610265565b005b3480156100c9575f5ffd5b506100f26100d83660046115cd565b5f908152600360205260409020546001600160a01b031690565b6040516001600160a01b0390911681526020015b60405180910390f35b34801561011a575f5ffd5b507fea02ffba7dcb45f6fc649714d23f315eef12e3b27f9a7735d8d8bf41eb2b1af15b604051908152602001610106565b348015610156575f5ffd5b5061015f61049a565b6040516101069190611612565b61013d61017a36600461162b565b61052a565b34801561018a575f5ffd5b5061015f61063d565b34801561019e575f5ffd5b507f00000000000000000000000000000000000000000000000000000000000000006100f2565b3480156101d0575f5ffd5b506101d96106e0565b6040516101069796959493929190611661565b6101ff6101fa36600461158f565b610722565b60405161010691906116f7565b6100bc61021a366004611739565b610a93565b34801561022a575f5ffd5b507f78a69a78c1a55cdff5cbf949580b410778cd9e4d1ecbe6f06a7fa8dc2441b57d61013d565b34801561025c575f5ffd5b5061013d610b69565b805f816001600160401b0381111561027f5761027f611753565b6040519080825280602002602001820160405280156102c457816020015b604080518082019091525f81526060602082015281526020019060019003908161029d5790505b5090505f5b82811015610417575f8585838181106102e4576102e4611767565b90506020028101906102f6919061177b565b6102ff9061198b565b602081015180519192509080158061031c57508260400151518114155b1561033a5760405163251f56a160e21b815260040160405180910390fd5b5f5b818110156103d3575f83828151811061035757610357611767565b602002602001015190506103ca6040518060a00160405280875f015181526020018381526020018760400151858151811061039457610394611767565b6020026020010151815260200187606001516001600160a01b0316815260200187608001516001600160401b0316815250610b77565b5060010161033c565b506040518060400160405280845f01518152602001838152508585815181106103fe576103fe611767565b60200260200101819052505050508060010190506102c9565b50604051634cb7e9e560e01b81526001600160a01b037f00000000000000000000000000000000000000000000000000000000000000001690634cb7e9e5903490610466908590600401611a84565b5f604051808303818588803b15801561047d575f5ffd5b505af115801561048f573d5f5f3e3d5ffd5b505050505050505050565b6060600280546104a990611b3a565b80601f01602080910402602001604051908101604052809291908181526020018280546104d590611b3a565b80156105205780601f106104f757610100808354040283529160200191610520565b820191905f5260205f20905b81548152906001019060200180831161050357829003601f168201915b5050505050905090565b5f61053c61053783611c70565b610d34565b5f7f00000000000000000000000000000000000000000000000000000000000000006001600160a01b031663f17325e7346040518060400160405280875f013581526020018780602001906105919190611ce5565b61059a90611cf9565b8152506040518363ffffffff1660e01b81526004016105b99190611d67565b60206040518083038185885af11580156105d5573d5f5f3e3d5ffd5b50505050506040513d601f19601f820116820180604052508101906105fa9190611d93565b905061060c60c0840160a08501611daa565b5f82815260036020526040902080546001600160a01b0319166001600160a01b039290921691909117905592915050565b60606106687f0000000000000000000000000000000000000000000000000000000000000000610eb4565b6106917f0000000000000000000000000000000000000000000000000000000000000000610eb4565b6106ba7f0000000000000000000000000000000000000000000000000000000000000000610eb4565b6040516020016106cc93929190611dda565b604051602081830303815290604052905090565b5f6060805f5f5f60606106f1610f43565b6106f9610f6f565b604080515f80825260208201909252600f60f81b9b939a50919850469750309650945092509050565b6060815f816001600160401b0381111561073e5761073e611753565b60405190808252806020026020018201604052801561078357816020015b604080518082019091525f81526060602082015281526020019060019003908161075c5790505b5090505f5b8281101561092257368686838181106107a3576107a3611767565b90506020028101906107b5919061177b565b9050365f6107c66020840184611e19565b9092509050808015806107e757506107e16040850185611e5e565b90508114155b156108055760405163251f56a160e21b815260040160405180910390fd5b5f5b818110156108d6576108ce6040518060a00160405280875f0135815260200186868581811061083857610838611767565b905060200281019061084a9190611ce5565b61085390611cf9565b81526020016108656040890189611e5e565b8581811061087557610875611767565b90506060020180360381019061088b9190611ea2565b81526020016108a06080890160608a01611daa565b6001600160a01b031681526020016108be60a0890160808a01611ebc565b6001600160401b03169052610d34565b600101610807565b506040805180820190915284358152602081016108f38486611ed5565b81525086868151811061090857610908611767565b602002602001018190525050505050806001019050610788565b505f7f00000000000000000000000000000000000000000000000000000000000000006001600160a01b03166344adc90e34846040518363ffffffff1660e01b81526004016109719190611f37565b5f6040518083038185885af115801561098c573d5f5f3e3d5ffd5b50505050506040513d5f823e601f3d908101601f191682016040526109b49190810190611feb565b90505f805b84811015610a8557368888838181106109d4576109d4611767565b90506020028101906109e6919061177b565b9050365f6109f76020840184611e19565b9092509050805f5b81811015610a7557610a176080860160608701611daa565b60035f8a8a81518110610a2c57610a2c611767565b602002602001015181526020019081526020015f205f6101000a8154816001600160a01b0302191690836001600160a01b031602179055508660010196508060010190506109ff565b50505050508060010190506109b9565b509093505050505b92915050565b610aaa610aa536839003830183612071565b610b77565b7f00000000000000000000000000000000000000000000000000000000000000006001600160a01b03166346926267346040518060400160405280855f0135815260200185602001803603810190610b0291906120dd565b90526040516001600160e01b031960e085901b16815281516004820152602091820151805160248301529091015160448201526064015f604051808303818588803b158015610b4f575f5ffd5b505af1158015610b61573d5f5f3e3d5ffd5b505050505050565b5f610b72610f9c565b905090565b60808101516001600160401b031615801590610ba85750426001600160401b031681608001516001600160401b0316105b15610bc657604051631ab7da6b60e01b815260040160405180910390fd5b60208082015180515f90815260039092526040909120546001600160a01b031680610c045760405163c5723b5160e01b815260040160405180910390fd5b82606001516001600160a01b0316816001600160a01b031614610c3a57604051634ca8886760e01b815260040160405180910390fd5b6040830151610c48816110c5565b606080850151855185516020808801516080808b0151604080517f78a69a78c1a55cdff5cbf949580b410778cd9e4d1ecbe6f06a7fa8dc2441b57d958101959095526001600160a01b0390971696840196909652958201939093529384015260a08301526001600160401b031660c08201525f90610cdf9060e0015b60405160208183030381529060405280519060200120611183565b905084606001516001600160a01b0316610d0682845f0151856020015186604001516111af565b6001600160a01b031614610d2d57604051638baa579f60e01b815260040160405180910390fd5b5050505050565b60808101516001600160401b031615801590610d655750426001600160401b031681608001516001600160401b0316105b15610d8357604051631ab7da6b60e01b815260040160405180910390fd5b60208101516040820151610d96816110c5565b5f610e607fea02ffba7dcb45f6fc649714d23f315eef12e3b27f9a7735d8d8bf41eb2b1af15f1b8560600151865f0151865f01518760200151886040015189606001518a60800151805190602001208b60a001518d60800151604051602001610cc49a99989796959493929190998a526001600160a01b0398891660208b015260408a01979097529490961660608801526001600160401b03928316608088015290151560a087015260c086015260e0850193909352610100840152166101208201526101400190565b905083606001516001600160a01b0316610e8782845f0151856020015186604001516111af565b6001600160a01b031614610eae57604051638baa579f60e01b815260040160405180910390fd5b50505050565b60605f610ec0836111db565b60010190505f816001600160401b03811115610ede57610ede611753565b6040519080825280601f01601f191660200182016040528015610f08576020820181803683370190505b5090508181016020015b5f19016f181899199a1a9b1b9c1cb0b131b232b360811b600a86061a8153600a8504945084610f1257509392505050565b6060610b727f00000000000000000000000000000000000000000000000000000000000000005f6112b2565b6060610b727f000000000000000000000000000000000000000000000000000000000000000060016112b2565b5f306001600160a01b037f000000000000000000000000000000000000000000000000000000000000000016148015610ff457507f000000000000000000000000000000000000000000000000000000000000000046145b1561101e57507f000000000000000000000000000000000000000000000000000000000000000090565b610b72604080517f8b73c3c69bb8fe3d512ecc4cf759cc79239f7b179b0ffacaa9a75d522b39400f60208201527f0000000000000000000000000000000000000000000000000000000000000000918101919091527f000000000000000000000000000000000000000000000000000000000000000060608201524660808201523060a08201525f9060c00160405160208183030381529060405280519060200120905090565b8051602080830151604080850151905160f89490941b6001600160f81b03191692840192909252602183015260418201525f90606101604051602081830303815290604052905060048160405161111c91906120f7565b9081526040519081900360200190205460ff161561114d5760405163333a6a0960e21b815260040160405180910390fd5b600160048260405161115f91906120f7565b908152604051908190036020019020805491151560ff199092169190911790555050565b5f610a8d61118f610f9c565b8360405161190160f01b8152600281019290925260228201526042902090565b5f5f5f5f6111bf8888888861135b565b9250925092506111cf8282611423565b50909695505050505050565b5f8072184f03e93ff9f4daa797ed6e38ed64bf6a1f0160401b83106112195772184f03e93ff9f4daa797ed6e38ed64bf6a1f0160401b830492506040015b6d04ee2d6d415b85acef81000000008310611245576d04ee2d6d415b85acef8100000000830492506020015b662386f26fc10000831061126357662386f26fc10000830492506010015b6305f5e100831061127b576305f5e100830492506008015b612710831061128f57612710830492506004015b606483106112a1576064830492506002015b600a8310610a8d5760010192915050565b606060ff83146112cc576112c5836114e4565b9050610a8d565b8180546112d890611b3a565b80601f016020809104026020016040519081016040528092919081815260200182805461130490611b3a565b801561134f5780601f106113265761010080835404028352916020019161134f565b820191905f5260205f20905b81548152906001019060200180831161133257829003601f168201915b50505050509050610a8d565b5f80807f7fffffffffffffffffffffffffffffff5d576e7357a4501ddfe92f46681b20a084111561139457505f91506003905082611419565b604080515f808252602082018084528a905260ff891692820192909252606081018790526080810186905260019060a0016020604051602081039080840390855afa1580156113e5573d5f5f3e3d5ffd5b5050604051601f1901519150506001600160a01b03811661141057505f925060019150829050611419565b92505f91508190505b9450945094915050565b5f82600381111561143657611436612102565b0361143f575050565b600182600381111561145357611453612102565b036114715760405163f645eedf60e01b815260040160405180910390fd5b600282600381111561148557611485612102565b036114ab5760405163fce698f760e01b8152600481018290526024015b60405180910390fd5b60038260038111156114bf576114bf612102565b036114e0576040516335e2f38360e21b8152600481018290526024016114a2565b5050565b60605f6114f083611521565b6040805160208082528183019092529192505f91906020820181803683375050509182525060208101929092525090565b5f60ff8216601f811115610a8d57604051632cd44ac360e21b815260040160405180910390fd5b5f5f83601f840112611558575f5ffd5b5081356001600160401b0381111561156e575f5ffd5b6020830191508360208260051b8501011115611588575f5ffd5b9250929050565b5f5f602083850312156115a0575f5ffd5b82356001600160401b038111156115b5575f5ffd5b6115c185828601611548565b90969095509350505050565b5f602082840312156115dd575f5ffd5b5035919050565b5f81518084528060208401602086015e5f602082860101526020601f19601f83011685010191505092915050565b602081525f61162460208301846115e4565b9392505050565b5f6020828403121561163b575f5ffd5b81356001600160401b03811115611650575f5ffd5b820160e08185031215611624575f5ffd5b60ff60f81b8816815260e060208201525f61167f60e08301896115e4565b828103604084015261169181896115e4565b606084018890526001600160a01b038716608085015260a0840186905283810360c0850152845180825260208087019350909101905f5b818110156116e65783518352602093840193909201916001016116c8565b50909b9a5050505050505050505050565b602080825282518282018190525f918401906040840190835b8181101561172e578351835260209384019390920191600101611710565b509095945050505050565b5f61010082840312801561174b575f5ffd5b509092915050565b634e487b7160e01b5f52604160045260245ffd5b634e487b7160e01b5f52603260045260245ffd5b5f8235609e1983360301811261178f575f5ffd5b9190910192915050565b60405160a081016001600160401b03811182821017156117bb576117bb611753565b60405290565b60405160c081016001600160401b03811182821017156117bb576117bb611753565b604051601f8201601f191681016001600160401b038111828210171561180b5761180b611753565b604052919050565b5f6001600160401b0382111561182b5761182b611753565b5060051b60200190565b5f60408284031215611845575f5ffd5b604080519081016001600160401b038111828210171561186757611867611753565b604052823581526020928301359281019290925250919050565b5f60608284031215611891575f5ffd5b604051606081016001600160401b03811182821017156118b3576118b3611753565b604052905080823560ff811681146118c9575f5ffd5b815260208381013590820152604092830135920191909152919050565b5f82601f8301126118f5575f5ffd5b813561190861190382611813565b6117e3565b80828252602082019150602060608402860101925085831115611929575f5ffd5b602085015b83811015611950576119408782611881565b835260209092019160600161192e565b5095945050505050565b80356001600160a01b0381168114611970575f5ffd5b919050565b80356001600160401b0381168114611970575f5ffd5b5f60a0823603121561199b575f5ffd5b6119a3611799565b8235815260208301356001600160401b038111156119bf575f5ffd5b830136601f8201126119cf575f5ffd5b80356119dd61190382611813565b8082825260208201915060208360061b8501019250368311156119fe575f5ffd5b6020840193505b82841015611a2a57611a173685611835565b8252602082019150604084019350611a05565b602085015250505060408301356001600160401b03811115611a4a575f5ffd5b611a56368286016118e6565b604083015250611a686060840161195a565b6060820152611a7960808401611975565b608082015292915050565b5f602082016020835280845180835260408501915060408160051b8601019250602086015f5b82811015611b2e57868503603f19018452815180518652602090810151604082880181905281519088018190529101905f9060608801905b80831015611b1657611aff82855180518252602090810151910152565b604082019150602084019350600183019250611ae2565b50965050506020938401939190910190600101611aaa565b50929695505050505050565b600181811c90821680611b4e57607f821691505b602082108103611b6c57634e487b7160e01b5f52602260045260245ffd5b50919050565b5f82601f830112611b81575f5ffd5b81356001600160401b03811115611b9a57611b9a611753565b611bad601f8201601f19166020016117e3565b818152846020838601011115611bc1575f5ffd5b816020850160208301375f918101602001919091529392505050565b5f60c08284031215611bed575f5ffd5b611bf56117c1565b9050611c008261195a565b8152611c0e60208301611975565b602082015260408201358015158114611c25575f5ffd5b60408201526060828101359082015260808201356001600160401b03811115611c4c575f5ffd5b611c5884828501611b72565b60808301525060a09182013591810191909152919050565b5f60e08236031215611c80575f5ffd5b611c88611799565b8235815260208301356001600160401b03811115611ca4575f5ffd5b611cb036828601611bdd565b602083015250611cc33660408501611881565b6040820152611cd460a0840161195a565b6060820152611a7960c08401611975565b5f823560be1983360301811261178f575f5ffd5b5f610a8d3683611bdd565b60018060a01b0381511682526001600160401b036020820151166020830152604081015115156040830152606081015160608301525f608082015160c06080850152611d5360c08501826115e4565b60a093840151949093019390935250919050565b60208152815160208201525f6020830151604080840152611d8b6060840182611d04565b949350505050565b5f60208284031215611da3575f5ffd5b5051919050565b5f60208284031215611dba575f5ffd5b6116248261195a565b5f81518060208401855e5f93019283525090919050565b5f611de58286611dc3565b601760f91b8152611df96001820186611dc3565b9050601760f91b8152611e0f6001820185611dc3565b9695505050505050565b5f5f8335601e19843603018112611e2e575f5ffd5b8301803591506001600160401b03821115611e47575f5ffd5b6020019150600581901b3603821315611588575f5ffd5b5f5f8335601e19843603018112611e73575f5ffd5b8301803591506001600160401b03821115611e8c575f5ffd5b6020019150606081023603821315611588575f5ffd5b5f60608284031215611eb2575f5ffd5b6116248383611881565b5f60208284031215611ecc575f5ffd5b61162482611975565b5f611ee261190384611813565b8381526020810190600585901b840136811115611efd575f5ffd5b845b8181101561172e5780356001600160401b03811115611f1c575f5ffd5b611f2836828901611bdd565b85525060209384019301611eff565b5f602082016020835280845180835260408501915060408160051b8601019250602086015f5b82811015611b2e57603f19878603018452815180518652602090810151604082880181905281519088018190529101906060600582901b8801810191908801905f5b81811015611fd157605f198a8503018352611fbb848651611d04565b6020958601959094509290920191600101611f9f565b509197505050602094850194929092019150600101611f5d565b5f60208284031215611ffb575f5ffd5b81516001600160401b03811115612010575f5ffd5b8201601f81018413612020575f5ffd5b805161202e61190382611813565b8082825260208201915060208360051b85010192508683111561204f575f5ffd5b6020840193505b82841015611e0f578351825260209384019390910190612056565b5f610100828403128015612083575f5ffd5b5061208c611799565b8235815261209d8460208501611835565b60208201526120af8460608501611881565b60408201526120c060c0840161195a565b60608201526120d160e08401611975565b60808201529392505050565b5f604082840312156120ed575f5ffd5b6116248383611835565b5f6116248284611dc3565b634e487b7160e01b5f52602160045260245ffdfea2646970667358221220b78f0a67d74d51309354799ca84c5e6e4163d6055c8950c3474434251bbf544064736f6c634300081c0033",
  "linkReferences": {},
  "deployedLinkReferences": {}
}