{
  "_format": "hh-sol-artifact-1",
  "contractName": "ExpirationTimeResolver",
  "sourceName": "contracts/eas/resolver/examples/ExpirationTimeResolver.sol",
  "abi": [
    {
      "inputs": [
        {
          "internalType": "contract IEAS",
          "name": "eas",
          "type": "address"
        },
        {
          "internalType": "uint256",
          "name": "validAfter",
          "type": "uint256"
        }
      ],
      "stateMutability": "nonpayable",
      "type": "constructor"
    },
    {
      "inputs": [],
      "name": "AccessDenied",
      "type": "error"
    },
    {
      "inputs": [],
      "name": "InsufficientValue",
      "type": "error"
    },
    {
      "inputs": [],
      "name": "InvalidEAS",
      "type": "error"
    },
    {
      "inputs": [],
      "name": "InvalidLength",
      "type": "error"
    },
    {
      "inputs": [],
      "name": "NotPayable",
      "type": "error"
    },
    {
      "inputs": [
        {
          "components": [
            {
              "internalType": "bytes32",
              "name": "uid",
              "type": "bytes32"
            },
            {
              "internalType": "bytes32",
              "name": "schema",
              "type": "bytes32"
            },
            {
              "internalType": "uint64",
              "name": "time",
              "type": "uint64"
            },
            {
              "internalType": "uint64",
              "name": "expirationTime",
              "type": "uint64"
            },
            {
              "internalType": "uint64",
              "name": "revocationTime",
              "type": "uint64"
            },
            {
              "internalType": "bytes32",
              "name": "refUID",
              "type": "bytes32"
            },
            {
              "internalType": "address",
              "name": "recipient",
              "type": "address"
            },
            {
              "internalType": "address",
              "name": "attester",
              "type": "address"
            },
            {
              "internalType": "bool",
              "name": "revocable",
              "type": "bool"
            },
            {
              "internalType": "bytes",
              "name": "data",
              "type": "bytes"
            }
          ],
          "internalType": "struct Attestation",
          "name": "attestation",
          "type": "tuple"
        }
      ],
      "name": "attest",
      "outputs": [
        {
          "internalType": "bool",
          "name": "",
          "type": "bool"
        }
      ],
      "stateMutability": "payable",
      "type": "function"
    },
    {
      "inputs": [],
      "name": "isPayable",
      "outputs": [
        {
          "internalType": "bool",
          "name": "",
          "type": "bool"
        }
      ],
      "stateMutability": "pure",
      "type": "function"
    },
    {
      "inputs": [
        {
          "components": [
            {
              "internalType": "bytes32",
              "name": "uid",
              "type": "bytes32"
            },
            {
              "internalType": "bytes32",
              "name": "schema",
              "type": "bytes32"
            },
            {
              "internalType": "uint64",
              "name": "time",
              "type": "uint64"
            },
            {
              "internalType": "uint64",
              "name": "expirationTime",
              "type": "uint64"
            },
            {
              "internalType": "uint64",
              "name": "revocationTime",
              "type": "uint64"
            },
            {
              "internalType": "bytes32",
              "name": "refUID",
              "type": "bytes32"
            },
            {
              "internalType": "address",
              "name": "recipient",
              "type": "address"
            },
            {
              "internalType": "address",
              "name": "attester",
              "type": "address"
            },
            {
              "internalType": "bool",
              "name": "revocable",
              "type": "bool"
            },
            {
              "internalType": "bytes",
              "name": "data",
              "type": "bytes"
            }
          ],
          "internalType": "struct Attestation[]",
          "name": "attestations",
          "type": "tuple[]"
        },
        {
          "internalType": "uint256[]",
          "name": "values",
          "type": "uint256[]"
        }
      ],
      "name": "multiAttest",
      "outputs": [
        {
          "internalType": "bool",
          "name": "",
          "type": "bool"
        }
      ],
      "stateMutability": "payable",
      "type": "function"
    },
    {
      "inputs": [
        {
          "components": [
            {
              "internalType": "bytes32",
              "name": "uid",
              "type": "bytes32"
            },
            {
              "internalType": "bytes32",
              "name": "schema",
              "type": "bytes32"
            },
            {
              "internalType": "uint64",
              "name": "time",
              "type": "uint64"
            },
            {
              "internalType": "uint64",
              "name": "expirationTime",
              "type": "uint64"
            },
            {
              "internalType": "uint64",
              "name": "revocationTime",
              "type": "uint64"
            },
            {
              "internalType": "bytes32",
              "name": "refUID",
              "type": "bytes32"
            },
            {
              "internalType": "address",
              "name": "recipient",
              "type": "address"
            },
            {
              "internalType": "address",
              "name": "attester",
              "type": "address"
            },
            {
              "internalType": "bool",
              "name": "revocable",
              "type": "bool"
            },
            {
              "internalType": "bytes",
              "name": "data",
              "type": "bytes"
            }
          ],
          "internalType": "struct Attestation[]",
          "name": "attestations",
          "type": "tuple[]"
        },
        {
          "internalType": "uint256[]",
          "name": "values",
          "type": "uint256[]"
        }
      ],
      "name": "multiRevoke",
      "outputs": [
        {
          "internalType": "bool",
          "name": "",
          "type": "bool"
        }
      ],
      "stateMutability": "payable",
      "type": "function"
    },
    {
      "inputs": [
        {
          "components": [
            {
              "internalType": "bytes32",
              "name": "uid",
              "type": "bytes32"
            },
            {
              "internalType": "bytes32",
              "name": "schema",
              "type": "bytes32"
            },
            {
              "internalType": "uint64",
              "name": "time",
              "type": "uint64"
            },
            {
              "internalType": "uint64",
              "name": "expirationTime",
              "type": "uint64"
            },
            {
              "internalType": "uint64",
              "name": "revocationTime",
              "type": "uint64"
            },
            {
              "internalType": "bytes32",
              "name": "refUID",
              "type": "bytes32"
            },
            {
              "internalType": "address",
              "name": "recipient",
              "type": "address"
            },
            {
              "internalType": "address",
              "name": "attester",
              "type": "address"
            },
            {
              "internalType": "bool",
              "name": "revocable",
              "type": "bool"
            },
            {
              "internalType": "bytes",
              "name": "data",
              "type": "bytes"
            }
          ],
          "internalType": "struct Attestation",
          "name": "attestation",
          "type": "tuple"
        }
      ],
      "name": "revoke",
      "outputs": [
        {
          "internalType": "bool",
          "name": "",
          "type": "bool"
        }
      ],
      "stateMutability": "payable",
      "type": "function"
    },
    {
      "inputs": [],
      "name": "version",
      "outputs": [
        {
          "internalType": "string",
          "name": "",
          "type": "string"
        }
      ],
      "stateMutability": "view",
      "type": "function"
    },
    {
      "stateMutability": "payable",
      "type": "receive"
    }
  ],
  "bytecode": "0x610120604052348015610010575f5ffd5b5060405161086738038061086783398101604081905261002f9161007b565b6001608052600460a0525f60c052816001600160a01b038116610065576040516341bc07ff60e11b815260040160405180910390fd5b6001600160a01b031660e05261010052506100b2565b5f5f6040838503121561008c575f5ffd5b82516001600160a01b03811681146100a2575f5ffd5b6020939093015192949293505050565b60805160a05160c05160e051610100516107786100ef5f395f61043d01525f6103fa01525f61016a01525f61014101525f61011801526107785ff3fe608060405260043610610057575f3560e01c806354fd4d501461007957806388e5b2d9146100a357806391db0b7e146100c6578063ce46e046146100d9578063e49617e1146100eb578063e60c3505146100fe575f5ffd5b3661007557604051631574f9f360e01b815260040160405180910390fd5b5f5ffd5b348015610084575f5ffd5b5061008d610111565b60405161009a9190610556565b60405180910390f35b6100b66100b13660046105d3565b6101b4565b604051901515815260200161009a565b6100b66100d43660046105d3565b61027f565b3480156100e4575f5ffd5b505f6100b6565b6100b66100f936600461063f565b61033a565b6100b661010c36600461063f565b61034c565b606061013c7f000000000000000000000000000000000000000000000000000000000000000061035f565b6101657f000000000000000000000000000000000000000000000000000000000000000061035f565b61018e7f000000000000000000000000000000000000000000000000000000000000000061035f565b6040516020016101a093929190610695565b604051602081830303815290604052905090565b5f6101bd6103ef565b838281146101de5760405163251f56a160e21b815260040160405180910390fd5b345f5b8281101561026f575f8686838181106101fc576101fc6106d4565b905060200201359050828111156102265760405163044044a560e21b815260040160405180910390fd5b61025389898481811061023b5761023b6106d4565b905060200281019061024d91906106e8565b50600190565b610263575f945050505050610277565b909103906001016101e1565b506001925050505b949350505050565b5f6102886103ef565b838281146102a95760405163251f56a160e21b815260040160405180910390fd5b345f5b8281101561026f575f8686838181106102c7576102c76106d4565b905060200201359050828111156102f15760405163044044a560e21b815260040160405180910390fd5b61031e898984818110610306576103066106d4565b905060200281019061031891906106e8565b8261043a565b61032e575f945050505050610277565b909103906001016102ac565b5f6103436103ef565b60015b92915050565b5f6103556103ef565b610346823461043a565b60605f61036b8361047f565b60010190505f8167ffffffffffffffff81111561038a5761038a610707565b6040519080825280601f01601f1916602001820160405280156103b4576020820181803683370190505b5090508181016020015b5f19016f181899199a1a9b1b9c1cb0b131b232b360811b600a86061a8153600a85049450846103be57509392505050565b336001600160a01b037f0000000000000000000000000000000000000000000000000000000000000000161461043857604051634ca8886760e01b815260040160405180910390fd5b565b5f7f000000000000000000000000000000000000000000000000000000000000000061046c608085016060860161071b565b67ffffffffffffffff1610159392505050565b5f8072184f03e93ff9f4daa797ed6e38ed64bf6a1f0160401b83106104bd5772184f03e93ff9f4daa797ed6e38ed64bf6a1f0160401b830492506040015b6d04ee2d6d415b85acef810000000083106104e9576d04ee2d6d415b85acef8100000000830492506020015b662386f26fc10000831061050757662386f26fc10000830492506010015b6305f5e100831061051f576305f5e100830492506008015b612710831061053357612710830492506004015b60648310610545576064830492506002015b600a83106103465760010192915050565b602081525f82518060208401528060208501604085015e5f604082850101526040601f19601f83011684010191505092915050565b5f5f83601f84011261059b575f5ffd5b50813567ffffffffffffffff8111156105b2575f5ffd5b6020830191508360208260051b85010111156105cc575f5ffd5b9250929050565b5f5f5f5f604085870312156105e6575f5ffd5b843567ffffffffffffffff8111156105fc575f5ffd5b6106088782880161058b565b909550935050602085013567ffffffffffffffff811115610627575f5ffd5b6106338782880161058b565b95989497509550505050565b5f6020828403121561064f575f5ffd5b813567ffffffffffffffff811115610665575f5ffd5b82016101408185031215610677575f5ffd5b9392505050565b5f81518060208401855e5f93019283525090919050565b5f6106a0828661067e565b601760f91b81526106b4600182018661067e565b9050601760f91b81526106ca600182018561067e565b9695505050505050565b634e487b7160e01b5f52603260045260245ffd5b5f823561013e198336030181126106fd575f5ffd5b9190910192915050565b634e487b7160e01b5f52604160045260245ffd5b5f6020828403121561072b575f5ffd5b813567ffffffffffffffff81168114610677575f5ffdfea26469706673582212203908b772477132f1871e30dad23d5e6a91f41e908792a023dda2512fe61c4d1564736f6c634300081c0033",
  "linkReferences": {},
  "deployedLinkReferences": {}
}