{
  "_format": "hh-sol-artifact-1",
  "contractName": "Indexer",
  "sourceName": "contracts/eas/Indexer.sol",
  "abi": [
    {
      "inputs": [
        {
          "internalType": "contract IEAS",
          "name": "eas",
          "type": "address"
        }
      ],
      "stateMutability": "nonpayable",
      "type": "constructor"
    },
    {
      "inputs": [],
      "name": "InvalidAttestation",
      "type": "error"
    },
    {
      "inputs": [],
      "name": "InvalidEAS",
      "type": "error"
    },
    {
      "inputs": [],
      "name": "InvalidOffset",
      "type": "error"
    },
    {
      "anonymous": false,
      "inputs": [
        {
          "indexed": true,
          "internalType": "bytes32",
          "name": "uid",
          "type": "bytes32"
        }
      ],
      "name": "Indexed",
      "type": "event"
    },
    {
      "inputs": [],
      "name": "getEAS",
      "outputs": [
        {
          "internalType": "contract IEAS",
          "name": "",
          "type": "address"
        }
      ],
      "stateMutability": "view",
      "type": "function"
    },
    {
      "inputs": [
        {
          "internalType": "address",
          "name": "recipient",
          "type": "address"
        },
        {
          "internalType": "bytes32",
          "name": "schemaUID",
          "type": "bytes32"
        }
      ],
      "name": "getReceivedAttestationUIDCount",
      "outputs": [
        {
          "internalType": "uint256",
          "name": "",
          "type": "uint256"
        }
      ],
      "stateMutability": "view",
      "type": "function"
    },
    {
      "inputs": [
        {
          "internalType": "address",
          "name": "recipient",
          "type": "address"
        },
        {
          "internalType": "bytes32",
          "name": "schemaUID",
          "type": "bytes32"
        },
        {
          "internalType": "uint256",
          "name": "start",
          "type": "uint256"
        },
        {
          "internalType": "uint256",
          "name": "length",
          "type": "uint256"
        },
        {
          "internalType": "bool",
          "name": "reverseOrder",
          "type": "bool"
        }
      ],
      "name": "getReceivedAttestationUIDs",
      "outputs": [
        {
          "internalType": "bytes32[]",
          "name": "",
          "type": "bytes32[]"
        }
      ],
      "stateMutability": "view",
      "type": "function"
    },
    {
      "inputs": [
        {
          "internalType": "bytes32",
          "name": "schemaUID",
          "type": "bytes32"
        }
      ],
      "name": "getSchemaAttestationUIDCount",
      "outputs": [
        {
          "internalType": "uint256",
          "name": "",
          "type": "uint256"
        }
      ],
      "stateMutability": "view",
      "type": "function"
    },
    {
      "inputs": [
        {
          "internalType": "bytes32",
          "name": "schemaUID",
          "type": "bytes32"
        },
        {
          "internalType": "uint256",
          "name": "start",
          "type": "uint256"
        },
        {
          "internalType": "uint256",
          "name": "length",
          "type": "uint256"
        },
        {
          "internalType": "bool",
          "name": "reverseOrder",
          "type": "bool"
        }
      ],
      "name": "getSchemaAttestationUIDs",
      "outputs": [
        {
          "internalType": "bytes32[]",
          "name": "",
          "type": "bytes32[]"
        }
      ],
      "stateMutability": "view",
      "type": "function"
    },
    {
      "inputs": [
        {
          "internalType": "bytes32",
          "name": "schemaUID",
          "type": "bytes32"
        },
        {
          "internalType": "address",
          "name": "attester",
          "type": "address"
        },
        {
          "internalType": "address",
          "name": "recipient",
          "type": "address"
        }
      ],
      "name": "getSchemaAttesterRecipientAttestationUIDCount",
      "outputs": [
        {
          "internalType": "uint256",
          "name": "",
          "type": "uint256"
        }
      ],
      "stateMutability": "view",
      "type": "function"
    },
    {
      "inputs": [
        {
          "internalType": "bytes32",
          "name": "schemaUID",
          "type": "bytes32"
        },
        {
          "internalType": "address",
          "name": "attester",
          "type": "address"
        },
        {
          "internalType": "address",
          "name": "recipient",
          "type": "address"
        },
        {
          "internalType": "uint256",
          "name": "start",
          "type": "uint256"
        },
        {
          "internalType": "uint256",
          "name": "length",
          "type": "uint256"
        },
        {
          "internalType": "bool",
          "name": "reverseOrder",
          "type": "bool"
        }
      ],
      "name": "getSchemaAttesterRecipientAttestationUIDs",
      "outputs": [
        {
          "internalType": "bytes32[]",
          "name": "",
          "type": "bytes32[]"
        }
      ],
      "stateMutability": "view",
      "type": "function"
    },
    {
      "inputs": [
        {
          "internalType": "address",
          "name": "attester",
          "type": "address"
        },
        {
          "internalType": "bytes32",
          "name": "schemaUID",
          "type": "bytes32"
        }
      ],
      "name": "getSentAttestationUIDCount",
      "outputs": [
        {
          "internalType": "uint256",
          "name": "",
          "type": "uint256"
        }
      ],
      "stateMutability": "view",
      "type": "function"
    },
    {
      "inputs": [
        {
          "internalType": "address",
          "name": "attester",
          "type": "address"
        },
        {
          "internalType": "bytes32",
          "name": "schemaUID",
          "type": "bytes32"
        },
        {
          "internalType": "uint256",
          "name": "start",
          "type": "uint256"
        },
        {
          "internalType": "uint256",
          "name": "length",
          "type": "uint256"
        },
        {
          "internalType": "bool",
          "name": "reverseOrder",
          "type": "bool"
        }
      ],
      "name": "getSentAttestationUIDs",
      "outputs": [
        {
          "internalType": "bytes32[]",
          "name": "",
          "type": "bytes32[]"
        }
      ],
      "stateMutability": "view",
      "type": "function"
    },
    {
      "inputs": [
        {
          "internalType": "bytes32",
          "name": "attestationUID",
          "type": "bytes32"
        }
      ],
      "name": "indexAttestation",
      "outputs": [],
      "stateMutability": "nonpayable",
      "type": "function"
    },
    {
      "inputs": [
        {
          "internalType": "bytes32[]",
          "name": "attestationUIDs",
          "type": "bytes32[]"
        }
      ],
      "name": "indexAttestations",
      "outputs": [],
      "stateMutability": "nonpayable",
      "type": "function"
    },
    {
      "inputs": [
        {
          "internalType": "bytes32",
          "name": "attestationUID",
          "type": "bytes32"
        }
      ],
      "name": "isAttestationIndexed",
      "outputs": [
        {
          "internalType": "bool",
          "name": "",
          "type": "bool"
        }
      ],
      "stateMutability": "view",
      "type": "function"
    },
    {
      "inputs": [],
      "name": "version",
      "outputs": [
        {
          "internalType": "string",
          "name": "",
          "type": "string"
        }
      ],
      "stateMutability": "view",
      "type": "function"
    }
  ],
  "bytecode": "0x610100604052348015610010575f5ffd5b50604051610f8b380380610f8b83398101604081905261002f91610075565b6001608052600460a0525f60c0526001600160a01b038116610064576040516341bc07ff60e11b815260040160405180910390fd5b6001600160a01b031660e0526100a2565b5f60208284031215610085575f5ffd5b81516001600160a01b038116811461009b575f5ffd5b9392505050565b60805160a05160c05160e051610eaf6100dc5f395f81816101ab015261074901525f6102fe01525f6102d501525f6102ac0152610eaf5ff3fe608060405234801561000f575f5ffd5b50600436106100cb575f3560e01c8063715ecdf611610088578063b616352a11610063578063b616352a1461022d578063bbbdc81814610242578063ea51994b14610255578063ec864cba14610292575f5ffd5b8063715ecdf6146101d557806389a82fbe146101e8578063af288efe1461021a575f5ffd5b80632412e9cc146100cf578063288a0a7b146101155780632f45f90e1461014a57806354fd4d501461016957806363bbf81b1461017e57806365c40b9c1461019e575b5f5ffd5b6101026100dd3660046109c1565b6001600160a01b03919091165f90815260208181526040808320938352929052205490565b6040519081526020015b60405180910390f35b6101026101233660046109c1565b6001600160a01b03919091165f908152600160209081526040808320938352929052205490565b6101026101583660046109eb565b5f9081526003602052604090205490565b6101716102a5565b60405161010c9190610a02565b61019161018c366004610a44565b610348565b60405161010c9190610a82565b6040516001600160a01b037f000000000000000000000000000000000000000000000000000000000000000016815260200161010c565b6101916101e3366004610ac4565b6103be565b61020a6101f63660046109eb565b5f9081526004602052604090205460ff1690565b604051901515815260200161010c565b610191610228366004610b27565b61044b565b61024061023b366004610b79565b6104ca565b005b6102406102503660046109eb565b610504565b610102610263366004610bea565b5f9283526002602090815260408085206001600160a01b03948516865282528085209290931684525290205490565b6101916102a0366004610b27565b610510565b60606102d07f0000000000000000000000000000000000000000000000000000000000000000610587565b6102f97f0000000000000000000000000000000000000000000000000000000000000000610587565b6103227f0000000000000000000000000000000000000000000000000000000000000000610587565b60405160200161033493929190610c40565b604051602081830303815290604052905090565b60606103b360035f8781526020019081526020015f208054806020026020016040519081016040528092919081815260200182805480156103a657602002820191905f5260205f20905b815481526020019060010190808311610392575b5050505050858585610617565b90505b949350505050565b5f8681526002602090815260408083206001600160a01b03808a1685529083528184209088168452825291829020805483518184028101840190945280845260609361044093909291908301828280156103a657602002820191905f5260205f2090815481526020019060010190808311610392575050505050858585610617565b979650505050505050565b6001600160a01b0385165f9081526020818152604080832087845282529182902080548351818402810184019094528084526060936104c093909291908301828280156103a657602002820191905f5260205f2090815481526020019060010190808311610392575050505050858585610617565b9695505050505050565b805f5b818110156104fe576104f68484838181106104ea576104ea610c75565b90506020020135610718565b6001016104cd565b50505050565b61050d81610718565b50565b6001600160a01b0385165f90815260016020908152604080832087845282529182902080548351818402810184019094528084526060936104c093909291908301828280156103a657602002820191905f5260205f2090815481526020019060010190808311610392575050505050858585610617565b60605f610593836108d5565b60010190505f8167ffffffffffffffff8111156105b2576105b2610c89565b6040519080825280601f01601f1916602001820160405280156105dc576020820181803683370190505b5090508181016020015b5f19016f181899199a1a9b1b9c1cb0b131b232b360811b600a86061a8153600a85049450846105e657509392505050565b83516060905f819003610639575050604080515f8152602081019091526103b6565b8085106106585760405162ed0ab960e11b815260040160405180910390fd5b8385810182101561066857508481035b5f8167ffffffffffffffff81111561068257610682610c89565b6040519080825280602002602001820160405280156106ab578160200160208202803683370190505b5090505f5b8281101561070c5788866106c6578189016106cf565b81890160010185035b815181106106df576106df610c75565b60200260200101518282815181106106f9576106f9610c75565b60209081029190910101526001016106b0565b50979650505050505050565b5f8181526004602052604090205460ff16156107315750565b6040516328c44a9960e21b8152600481018290525f907f00000000000000000000000000000000000000000000000000000000000000006001600160a01b03169063a3112a64906024015f60405180830381865afa158015610795573d5f5f3e3d5ffd5b505050506040513d5f823e601f3d908101601f191682016040526107bc9190810190610d84565b8051909150806107df5760405163bd8ba84d60e01b815260040160405180910390fd5b60e082015160c08301516020808501515f878152600483526040808220805460ff191660019081179091558383526003855281832080548083018255908452858420018a90556001600160a01b03808716808552848752838520868652875283852080548085018255908652878620018c9055908816808552828752838520868652875283852080548085018255908652878620018c905585855260028752838520908552865282842090845285528183208054918201815583529382209093018890559151909185917f2178f435e9624d54115e1d50a7313c90518a363b292678118444c0a239f11cf99190a2505050505050565b5f8072184f03e93ff9f4daa797ed6e38ed64bf6a1f0160401b83106109135772184f03e93ff9f4daa797ed6e38ed64bf6a1f0160401b830492506040015b6d04ee2d6d415b85acef8100000000831061093f576d04ee2d6d415b85acef8100000000830492506020015b662386f26fc10000831061095d57662386f26fc10000830492506010015b6305f5e1008310610975576305f5e100830492506008015b612710831061098957612710830492506004015b6064831061099b576064830492506002015b600a83106109a7576001015b92915050565b6001600160a01b038116811461050d575f5ffd5b5f5f604083850312156109d2575f5ffd5b82356109dd816109ad565b946020939093013593505050565b5f602082840312156109fb575f5ffd5b5035919050565b602081525f82518060208401528060208501604085015e5f604082850101526040601f19601f83011684010191505092915050565b801515811461050d575f5ffd5b5f5f5f5f60808587031215610a57575f5ffd5b8435935060208501359250604085013591506060850135610a7781610a37565b939692955090935050565b602080825282518282018190525f918401906040840190835b81811015610ab9578351835260209384019390920191600101610a9b565b509095945050505050565b5f5f5f5f5f5f60c08789031215610ad9575f5ffd5b863595506020870135610aeb816109ad565b94506040870135610afb816109ad565b9350606087013592506080870135915060a0870135610b1981610a37565b809150509295509295509295565b5f5f5f5f5f60a08688031215610b3b575f5ffd5b8535610b46816109ad565b94506020860135935060408601359250606086013591506080860135610b6b81610a37565b809150509295509295909350565b5f5f60208385031215610b8a575f5ffd5b823567ffffffffffffffff811115610ba0575f5ffd5b8301601f81018513610bb0575f5ffd5b803567ffffffffffffffff811115610bc6575f5ffd5b8560208260051b8401011115610bda575f5ffd5b6020919091019590945092505050565b5f5f5f60608486031215610bfc575f5ffd5b833592506020840135610c0e816109ad565b91506040840135610c1e816109ad565b809150509250925092565b5f81518060208401855e5f93019283525090919050565b5f610c4b8286610c29565b601760f91b8152610c5f6001820186610c29565b9050601760f91b81526104c06001820185610c29565b634e487b7160e01b5f52603260045260245ffd5b634e487b7160e01b5f52604160045260245ffd5b604051610140810167ffffffffffffffff81118282101715610cc157610cc1610c89565b60405290565b805167ffffffffffffffff81168114610cde575f5ffd5b919050565b8051610cde816109ad565b8051610cde81610a37565b5f82601f830112610d08575f5ffd5b815167ffffffffffffffff811115610d2257610d22610c89565b604051601f8201601f19908116603f0116810167ffffffffffffffff81118282101715610d5157610d51610c89565b604052818152838201602001851015610d68575f5ffd5b8160208501602083015e5f918101602001919091529392505050565b5f60208284031215610d94575f5ffd5b815167ffffffffffffffff811115610daa575f5ffd5b82016101408185031215610dbc575f5ffd5b610dc4610c9d565b8151815260208083015190820152610dde60408301610cc7565b6040820152610def60608301610cc7565b6060820152610e0060808301610cc7565b608082015260a08281015190820152610e1b60c08301610ce3565b60c0820152610e2c60e08301610ce3565b60e0820152610e3e6101008301610cee565b61010082015261012082015167ffffffffffffffff811115610e5e575f5ffd5b610e6a86828501610cf9565b6101208301525094935050505056fea2646970667358221220d225748ac0cdf2732719e33c67752fc28089236dc46276e50a605ce5b763b9c064736f6c634300081c0033",
  "linkReferences": {},
  "deployedLinkReferences": {}
}