{
  "_format": "hh-sol-artifact-1",
  "contractName": "ReputationNFT",
  "sourceName": "contracts/ReputationNFT.sol",
  "abi": [
    {
      "inputs": [],
      "stateMutability": "nonpayable",
      "type": "constructor"
    },
    {
      "inputs": [
        {
          "internalType": "address",
          "name": "sender",
          "type": "address"
        },
        {
          "internalType": "uint256",
          "name": "tokenId",
          "type": "uint256"
        },
        {
          "internalType": "address",
          "name": "owner",
          "type": "address"
        }
      ],
      "name": "ERC721IncorrectOwner",
      "type": "error"
    },
    {
      "inputs": [
        {
          "internalType": "address",
          "name": "operator",
          "type": "address"
        },
        {
          "internalType": "uint256",
          "name": "tokenId",
          "type": "uint256"
        }
      ],
      "name": "ERC721InsufficientApproval",
      "type": "error"
    },
    {
      "inputs": [
        {
          "internalType": "address",
          "name": "approver",
          "type": "address"
        }
      ],
      "name": "ERC721InvalidApprover",
      "type": "error"
    },
    {
      "inputs": [
        {
          "internalType": "address",
          "name": "operator",
          "type": "address"
        }
      ],
      "name": "ERC721InvalidOperator",
      "type": "error"
    },
    {
      "inputs": [
        {
          "internalType": "address",
          "name": "owner",
          "type": "address"
        }
      ],
      "name": "ERC721InvalidOwner",
      "type": "error"
    },
    {
      "inputs": [
        {
          "internalType": "address",
          "name": "receiver",
          "type": "address"
        }
      ],
      "name": "ERC721InvalidReceiver",
      "type": "error"
    },
    {
      "inputs": [
        {
          "internalType": "address",
          "name": "sender",
          "type": "address"
        }
      ],
      "name": "ERC721InvalidSender",
      "type": "error"
    },
    {
      "inputs": [
        {
          "internalType": "uint256",
          "name": "tokenId",
          "type": "uint256"
        }
      ],
      "name": "ERC721NonexistentToken",
      "type": "error"
    },
    {
      "inputs": [
        {
          "internalType": "address",
          "name": "owner",
          "type": "address"
        }
      ],
      "name": "OwnableInvalidOwner",
      "type": "error"
    },
    {
      "inputs": [
        {
          "internalType": "address",
          "name": "account",
          "type": "address"
        }
      ],
      "name": "OwnableUnauthorizedAccount",
      "type": "error"
    },
    {
      "anonymous": false,
      "inputs": [
        {
          "indexed": true,
          "internalType": "address",
          "name": "owner",
          "type": "address"
        },
        {
          "indexed": true,
          "internalType": "address",
          "name": "approved",
          "type": "address"
        },
        {
          "indexed": true,
          "internalType": "uint256",
          "name": "tokenId",
          "type": "uint256"
        }
      ],
      "name": "Approval",
      "type": "event"
    },
    {
      "anonymous": false,
      "inputs": [
        {
          "indexed": true,
          "internalType": "address",
          "name": "owner",
          "type": "address"
        },
        {
          "indexed": true,
          "internalType": "address",
          "name": "operator",
          "type": "address"
        },
        {
          "indexed": false,
          "internalType": "bool",
          "name": "approved",
          "type": "bool"
        }
      ],
      "name": "ApprovalForAll",
      "type": "event"
    },
    {
      "anonymous": false,
      "inputs": [
        {
          "indexed": true,
          "internalType": "address",
          "name": "previousOwner",
          "type": "address"
        },
        {
          "indexed": true,
          "internalType": "address",
          "name": "newOwner",
          "type": "address"
        }
      ],
      "name": "OwnershipTransferred",
      "type": "event"
    },
    {
      "anonymous": false,
      "inputs": [
        {
          "indexed": true,
          "internalType": "address",
          "name": "agent",
          "type": "address"
        },
        {
          "indexed": false,
          "internalType": "uint256",
          "name": "tokenId",
          "type": "uint256"
        },
        {
          "indexed": false,
          "internalType": "string",
          "name": "attestationUID",
          "type": "string"
        }
      ],
      "name": "ReputationMinted",
      "type": "event"
    },
    {
      "anonymous": false,
      "inputs": [
        {
          "indexed": true,
          "internalType": "address",
          "name": "agent",
          "type": "address"
        },
        {
          "indexed": false,
          "internalType": "uint256",
          "name": "tokenId",
          "type": "uint256"
        },
        {
          "indexed": false,
          "internalType": "string",
          "name": "newAttestationUID",
          "type": "string"
        }
      ],
      "name": "ReputationUpdated",
      "type": "event"
    },
    {
      "anonymous": false,
      "inputs": [
        {
          "indexed": true,
          "internalType": "address",
          "name": "from",
          "type": "address"
        },
        {
          "indexed": true,
          "internalType": "address",
          "name": "to",
          "type": "address"
        },
        {
          "indexed": true,
          "internalType": "uint256",
          "name": "tokenId",
          "type": "uint256"
        }
      ],
      "name": "Transfer",
      "type": "event"
    },
    {
      "inputs": [
        {
          "internalType": "address",
          "name": "",
          "type": "address"
        }
      ],
      "name": "agentTokenId",
      "outputs": [
        {
          "internalType": "uint256",
          "name": "",
          "type": "uint256"
        }
      ],
      "stateMutability": "view",
      "type": "function"
    },
    {
      "inputs": [
        {
          "internalType": "address",
          "name": "to",
          "type": "address"
        },
        {
          "internalType": "uint256",
          "name": "tokenId",
          "type": "uint256"
        }
      ],
      "name": "approve",
      "outputs": [],
      "stateMutability": "nonpayable",
      "type": "function"
    },
    {
      "inputs": [
        {
          "internalType": "address",
          "name": "owner",
          "type": "address"
        }
      ],
      "name": "balanceOf",
      "outputs": [
        {
          "internalType": "uint256",
          "name": "",
          "type": "uint256"
        }
      ],
      "stateMutability": "view",
      "type": "function"
    },
    {
      "inputs": [
        {
          "internalType": "uint256",
          "name": "tokenId",
          "type": "uint256"
        }
      ],
      "name": "getApproved",
      "outputs": [
        {
          "internalType": "address",
          "name": "",
          "type": "address"
        }
      ],
      "stateMutability": "view",
      "type": "function"
    },
    {
      "inputs": [
        {
          "internalType": "address",
          "name": "owner",
          "type": "address"
        },
        {
          "internalType": "address",
          "name": "operator",
          "type": "address"
        }
      ],
      "name": "isApprovedForAll",
      "outputs": [
        {
          "internalType": "bool",
          "name": "",
          "type": "bool"
        }
      ],
      "stateMutability": "view",
      "type": "function"
    },
    {
      "inputs": [
        {
          "internalType": "address",
          "name": "agent",
          "type": "address"
        },
        {
          "internalType": "string",
          "name": "attestationUID",
          "type": "string"
        }
      ],
      "name": "mintReputation",
      "outputs": [
        {
          "internalType": "uint256",
          "name": "",
          "type": "uint256"
        }
      ],
      "stateMutability": "nonpayable",
      "type": "function"
    },
    {
      "inputs": [],
      "name": "name",
      "outputs": [
        {
          "internalType": "string",
          "name": "",
          "type": "string"
        }
      ],
      "stateMutability": "view",
      "type": "function"
    },
    {
      "inputs": [],
      "name": "owner",
      "outputs": [
        {
          "internalType": "address",
          "name": "",
          "type": "address"
        }
      ],
      "stateMutability": "view",
      "type": "function"
    },
    {
      "inputs": [
        {
          "internalType": "uint256",
          "name": "tokenId",
          "type": "uint256"
        }
      ],
      "name": "ownerOf",
      "outputs": [
        {
          "internalType": "address",
          "name": "",
          "type": "address"
        }
      ],
      "stateMutability": "view",
      "type": "function"
    },
    {
      "inputs": [],
      "name": "renounceOwnership",
      "outputs": [],
      "stateMutability": "nonpayable",
      "type": "function"
    },
    {
      "inputs": [
        {
          "internalType": "address",
          "name": "from",
          "type": "address"
        },
        {
          "internalType": "address",
          "name": "to",
          "type": "address"
        },
        {
          "internalType": "uint256",
          "name": "tokenId",
          "type": "uint256"
        }
      ],
      "name": "safeTransferFrom",
      "outputs": [],
      "stateMutability": "nonpayable",
      "type": "function"
    },
    {
      "inputs": [
        {
          "internalType": "address",
          "name": "from",
          "type": "address"
        },
        {
          "internalType": "address",
          "name": "to",
          "type": "address"
        },
        {
          "internalType": "uint256",
          "name": "tokenId",
          "type": "uint256"
        },
        {
          "internalType": "bytes",
          "name": "data",
          "type": "bytes"
        }
      ],
      "name": "safeTransferFrom",
      "outputs": [],
      "stateMutability": "nonpayable",
      "type": "function"
    },
    {
      "inputs": [
        {
          "internalType": "address",
          "name": "operator",
          "type": "address"
        },
        {
          "internalType": "bool",
          "name": "approved",
          "type": "bool"
        }
      ],
      "name": "setApprovalForAll",
      "outputs": [],
      "stateMutability": "nonpayable",
      "type": "function"
    },
    {
      "inputs": [
        {
          "internalType": "bytes4",
          "name": "interfaceId",
          "type": "bytes4"
        }
      ],
      "name": "supportsInterface",
      "outputs": [
        {
          "internalType": "bool",
          "name": "",
          "type": "bool"
        }
      ],
      "stateMutability": "view",
      "type": "function"
    },
    {
      "inputs": [],
      "name": "symbol",
      "outputs": [
        {
          "internalType": "string",
          "name": "",
          "type": "string"
        }
      ],
      "stateMutability": "view",
      "type": "function"
    },
    {
      "inputs": [
        {
          "internalType": "uint256",
          "name": "tokenId",
          "type": "uint256"
        }
      ],
      "name": "tokenURI",
      "outputs": [
        {
          "internalType": "string",
          "name": "",
          "type": "string"
        }
      ],
      "stateMutability": "view",
      "type": "function"
    },
    {
      "inputs": [
        {
          "internalType": "address",
          "name": "from",
          "type": "address"
        },
        {
          "internalType": "address",
          "name": "to",
          "type": "address"
        },
        {
          "internalType": "uint256",
          "name": "tokenId",
          "type": "uint256"
        }
      ],
      "name": "transferFrom",
      "outputs": [],
      "stateMutability": "nonpayable",
      "type": "function"
    },
    {
      "inputs": [
        {
          "internalType": "address",
          "name": "newOwner",
          "type": "address"
        }
      ],
      "name": "transferOwnership",
      "outputs": [],
      "stateMutability": "nonpayable",
      "type": "function"
    },
    {
      "inputs": [
        {
          "internalType": "address",
          "name": "agent",
          "type": "address"
        },
        {
          "internalType": "string",
          "name": "newAttestationUID",
          "type": "string"
        }
      ],
      "name": "updateReputation",
      "outputs": [],
      "stateMutability": "nonpayable",
      "type": "function"
    }
  ],
  "bytecode": "0x608060405234801561000f575f5ffd5b50336040518060400160405280601481526020017f41657468657269616c2052657075746174696f6e000000000000000000000000815250604051806040016040528060048152602001630415245560e41b815250815f908161007291906101a7565b50600161007f82826101a7565b5050506001600160a01b0381166100af57604051631e4fbdf760e01b81525f600482015260240160405180910390fd5b6100b8816100be565b50610261565b600680546001600160a01b038381166001600160a01b0319831681179093556040519116919082907f8be0079c531659141344cd1fd0a4f28419497f9722a3daafe3b4186f6b6457e0905f90a35050565b634e487b7160e01b5f52604160045260245ffd5b600181811c9082168061013757607f821691505b60208210810361015557634e487b7160e01b5f52602260045260245ffd5b50919050565b601f8211156101a257805f5260205f20601f840160051c810160208510156101805750805b601f840160051c820191505b8181101561019f575f815560010161018c565b50505b505050565b81516001600160401b038111156101c0576101c061010f565b6101d4816101ce8454610123565b8461015b565b6020601f821160018114610206575f83156101ef5750848201515b5f19600385901b1c1916600184901b17845561019f565b5f84815260208120601f198516915b828110156102355787850151825560209485019460019092019101610215565b508482101561025257868401515f19600387901b60f8161c191681555b50505050600190811b01905550565b6113e28061026e5f395ff3fe608060405234801561000f575f5ffd5b506004361061011c575f3560e01c806370a08231116100a9578063b88d4fde1161006e578063b88d4fde1461025d578063c87b56dd14610270578063ddf25af614610283578063e985e9c514610296578063f2fde38b146102a9575f5ffd5b806370a0823114610216578063715018a6146102295780638da5cb5b1461023157806395d89b4114610242578063a22cb4651461024a575f5ffd5b8063095ea7b3116100ef578063095ea7b3146101b557806323b872dd146101ca5780632b4e7232146101dd57806342842e0e146101f05780636352211e14610203575f5ffd5b806301ffc9a71461012057806306fdde0314610148578063077bb6841461015d578063081812fc1461018a575b5f5ffd5b61013361012e366004610ede565b6102bc565b60405190151581526020015b60405180910390f35b61015061030d565b60405161013f9190610f2e565b61017c61016b366004610f5b565b60086020525f908152604090205481565b60405190815260200161013f565b61019d610198366004610f74565b61039c565b6040516001600160a01b03909116815260200161013f565b6101c86101c3366004610f8b565b6103c3565b005b6101c86101d8366004610fb3565b6103d2565b6101c86101eb366004610fed565b610460565b6101c86101fe366004610fb3565b610534565b61019d610211366004610f74565b610553565b61017c610224366004610f5b565b61055d565b6101c86105a2565b6006546001600160a01b031661019d565b6101506105b5565b6101c861025836600461106b565b6105c4565b6101c861026b3660046110b8565b6105cf565b61015061027e366004610f74565b6105e7565b61017c610291366004610fed565b6106df565b6101336102a4366004611195565b6107e5565b6101c86102b7366004610f5b565b610812565b5f6001600160e01b031982166380ac58cd60e01b14806102ec57506001600160e01b03198216635b5e139f60e01b145b8061030757506301ffc9a760e01b6001600160e01b03198316145b92915050565b60605f805461031b906111c6565b80601f0160208091040260200160405190810160405280929190818152602001828054610347906111c6565b80156103925780601f1061036957610100808354040283529160200191610392565b820191905f5260205f20905b81548152906001019060200180831161037557829003601f168201915b5050505050905090565b5f6103a68261084f565b505f828152600460205260409020546001600160a01b0316610307565b6103ce828233610887565b5050565b6001600160a01b03821661040057604051633250574960e11b81525f60048201526024015b60405180910390fd5b5f61040c838333610894565b9050836001600160a01b0316816001600160a01b03161461045a576040516364283d7b60e01b81526001600160a01b03808616600483015260248201849052821660448201526064016103f7565b50505050565b61046861090d565b6001600160a01b0383165f90815260086020526040812054908190036104d05760405162461bcd60e51b815260206004820152601760248201527f4e6f2072657075746174696f6e204e465420666f756e6400000000000000000060448201526064016103f7565b5f8181526009602052604090206104e8838583611242565b50836001600160a01b03167fc17e77081800e4bec45161da763d23d62f41146fb2629ee32a8fea0765743a12828585604051610526939291906112fc565b60405180910390a250505050565b61054e83838360405180602001604052805f8152506105cf565b505050565b5f6103078261084f565b5f6001600160a01b038216610587576040516322718ad960e21b81525f60048201526024016103f7565b506001600160a01b03165f9081526003602052604090205490565b6105aa61090d565b6105b35f61093a565b565b60606001805461031b906111c6565b6103ce33838361098b565b6105da8484846103d2565b61045a3385858585610a52565b5f818152600260205260409020546060906001600160a01b03166106445760405162461bcd60e51b8152602060048201526014602482015273151bdad95b88191bd95cc81b9bdd08195e1a5cdd60621b60448201526064016103f7565b5f828152600960205260409020805461065c906111c6565b80601f0160208091040260200160405190810160405280929190818152602001828054610688906111c6565b80156106d35780601f106106aa576101008083540402835291602001916106d3565b820191905f5260205f20905b8154815290600101906020018083116106b657829003601f168201915b50505050509050919050565b5f6106e861090d565b6001600160a01b0384165f908152600860205260409020541561074d5760405162461bcd60e51b815260206004820152601960248201527f52657075746174696f6e20616c7265616479206d696e7465640000000000000060448201526064016103f7565b60078054905f61075c83611331565b909155505060075461076e8582610b7a565b5f818152600960205260409020610786848683611242565b506001600160a01b0385165f8181526008602052604090819020839055517fdc6a673fbd61fe60377885d624fe71f80826939d11716215bd274ddfb2c60327906107d5908490889088906112fc565b60405180910390a2949350505050565b6001600160a01b039182165f90815260056020908152604080832093909416825291909152205460ff1690565b61081a61090d565b6001600160a01b03811661084357604051631e4fbdf760e01b81525f60048201526024016103f7565b61084c8161093a565b50565b5f818152600260205260408120546001600160a01b03168061030757604051637e27328960e01b8152600481018490526024016103f7565b61054e8383836001610b93565b5f828152600260205260408120546001600160a01b031680156108f95760405162461bcd60e51b815260206004820152601b60248201527f52657075746174696f6e204e465420697320736f756c626f756e64000000000060448201526064016103f7565b610904858585610c97565b95945050505050565b6006546001600160a01b031633146105b35760405163118cdaa760e01b81523360048201526024016103f7565b600680546001600160a01b038381166001600160a01b0319831681179093556040519116919082907f8be0079c531659141344cd1fd0a4f28419497f9722a3daafe3b4186f6b6457e0905f90a35050565b6001600160a01b0383166109b45760405163a9fbf51f60e01b81525f60048201526024016103f7565b6001600160a01b0382166109e657604051630b61174360e31b81526001600160a01b03831660048201526024016103f7565b6001600160a01b038381165f81815260056020908152604080832094871680845294825291829020805460ff191686151590811790915591519182527f17307eab39ab6107e8899845ad3d59bd9653f200f220920489ca2b5937696c31910160405180910390a3505050565b6001600160a01b0383163b15610b7357604051630a85bd0160e11b81526001600160a01b0384169063150b7a0290610a94908890889087908790600401611355565b6020604051808303815f875af1925050508015610ace575060408051601f3d908101601f19168201909252610acb91810190611391565b60015b610b35573d808015610afb576040519150601f19603f3d011682016040523d82523d5f602084013e610b00565b606091505b5080515f03610b2d57604051633250574960e11b81526001600160a01b03851660048201526024016103f7565b805160208201fd5b6001600160e01b03198116630a85bd0160e11b14610b7157604051633250574960e11b81526001600160a01b03851660048201526024016103f7565b505b5050505050565b6103ce828260405180602001604052805f815250610d89565b8080610ba757506001600160a01b03821615155b15610c68575f610bb68461084f565b90506001600160a01b03831615801590610be25750826001600160a01b0316816001600160a01b031614155b8015610bf55750610bf381846107e5565b155b15610c1e5760405163a9fbf51f60e01b81526001600160a01b03841660048201526024016103f7565b8115610c665783856001600160a01b0316826001600160a01b03167f8c5be1e5ebec7d5bd14f71427d1e84f3dd0314c0f7b2291e5b200ac8c7c3b92560405160405180910390a45b505b50505f90815260046020526040902080546001600160a01b0319166001600160a01b0392909216919091179055565b5f828152600260205260408120546001600160a01b0390811690831615610cc357610cc3818486610da0565b6001600160a01b03811615610cfd57610cde5f855f5f610b93565b6001600160a01b0381165f90815260036020526040902080545f190190555b6001600160a01b03851615610d2b576001600160a01b0385165f908152600360205260409020805460010190555b5f8481526002602052604080822080546001600160a01b0319166001600160a01b0389811691821790925591518793918516917fddf252ad1be2c89b69c2b068fc378daa952ba7f163c4a11628f55a4df523b3ef91a4949350505050565b610d938383610e04565b61054e335f858585610a52565b610dab838383610e65565b61054e576001600160a01b038316610dd957604051637e27328960e01b8152600481018290526024016103f7565b60405163177e802f60e01b81526001600160a01b0383166004820152602481018290526044016103f7565b6001600160a01b038216610e2d57604051633250574960e11b81525f60048201526024016103f7565b5f610e3983835f610894565b90506001600160a01b0381161561054e576040516339e3563760e11b81525f60048201526024016103f7565b5f6001600160a01b03831615801590610ec15750826001600160a01b0316846001600160a01b03161480610e9e5750610e9e84846107e5565b80610ec157505f828152600460205260409020546001600160a01b038481169116145b949350505050565b6001600160e01b03198116811461084c575f5ffd5b5f60208284031215610eee575f5ffd5b8135610ef981610ec9565b9392505050565b5f81518084528060208401602086015e5f602082860101526020601f19601f83011685010191505092915050565b602081525f610ef96020830184610f00565b80356001600160a01b0381168114610f56575f5ffd5b919050565b5f60208284031215610f6b575f5ffd5b610ef982610f40565b5f60208284031215610f84575f5ffd5b5035919050565b5f5f60408385031215610f9c575f5ffd5b610fa583610f40565b946020939093013593505050565b5f5f5f60608486031215610fc5575f5ffd5b610fce84610f40565b9250610fdc60208501610f40565b929592945050506040919091013590565b5f5f5f60408486031215610fff575f5ffd5b61100884610f40565b9250602084013567ffffffffffffffff811115611023575f5ffd5b8401601f81018613611033575f5ffd5b803567ffffffffffffffff811115611049575f5ffd5b86602082840101111561105a575f5ffd5b939660209190910195509293505050565b5f5f6040838503121561107c575f5ffd5b61108583610f40565b915060208301358015158114611099575f5ffd5b809150509250929050565b634e487b7160e01b5f52604160045260245ffd5b5f5f5f5f608085870312156110cb575f5ffd5b6110d485610f40565b93506110e260208601610f40565b925060408501359150606085013567ffffffffffffffff811115611104575f5ffd5b8501601f81018713611114575f5ffd5b803567ffffffffffffffff81111561112e5761112e6110a4565b604051601f8201601f19908116603f0116810167ffffffffffffffff8111828210171561115d5761115d6110a4565b604052818152828201602001891015611174575f5ffd5b816020840160208301375f6020838301015280935050505092959194509250565b5f5f604083850312156111a6575f5ffd5b6111af83610f40565b91506111bd60208401610f40565b90509250929050565b600181811c908216806111da57607f821691505b6020821081036111f857634e487b7160e01b5f52602260045260245ffd5b50919050565b601f82111561054e57805f5260205f20601f840160051c810160208510156112235750805b601f840160051c820191505b81811015610b73575f815560010161122f565b67ffffffffffffffff83111561125a5761125a6110a4565b61126e8361126883546111c6565b836111fe565b5f601f84116001811461129f575f85156112885750838201355b5f19600387901b1c1916600186901b178355610b73565b5f83815260208120601f198716915b828110156112ce57868501358255602094850194600190920191016112ae565b50868210156112ea575f1960f88860031b161c19848701351681555b505060018560011b0183555050505050565b83815260406020820152816040820152818360608301375f818301606090810191909152601f909201601f1916010192915050565b5f6001820161134e57634e487b7160e01b5f52601160045260245ffd5b5060010190565b6001600160a01b03858116825284166020820152604081018390526080606082018190525f9061138790830184610f00565b9695505050505050565b5f602082840312156113a1575f5ffd5b8151610ef981610ec956fea26469706673582212206534e2ea0f3300faddff4bbf5c2dd04f25546a8e0e1b815d0018fdc1a326f4eb64736f6c634300081c0033",
  "linkReferences": {},
  "deployedLinkReferences": {}
}