{
  "_format": "hh-sol-artifact-1",
  "contractName": "TestEIP1271Verifier",
  "sourceName": "contracts/eas/tests/eip1271/TestEIP1271Verifier.sol",
  "abi": [
    {
      "inputs": [
        {
          "internalType": "string",
          "name": "name",
          "type": "string"
        }
      ],
      "stateMutability": "nonpayable",
      "type": "constructor"
    },
    {
      "inputs": [],
      "name": "DeadlineExpired",
      "type": "error"
    },
    {
      "inputs": [],
      "name": "InvalidNonce",
      "type": "error"
    },
    {
      "inputs": [],
      "name": "InvalidShortString",
      "type": "error"
    },
    {
      "inputs": [],
      "name": "InvalidSignature",
      "type": "error"
    },
    {
      "inputs": [
        {
          "internalType": "string",
          "name": "str",
          "type": "string"
        }
      ],
      "name": "StringTooLong",
      "type": "error"
    },
    {
      "anonymous": false,
      "inputs": [],
      "name": "EIP712DomainChanged",
      "type": "event"
    },
    {
      "anonymous": false,
      "inputs": [
        {
          "indexed": false,
          "internalType": "uint256",
          "name": "oldNonce",
          "type": "uint256"
        },
        {
          "indexed": false,
          "internalType": "uint256",
          "name": "newNonce",
          "type": "uint256"
        }
      ],
      "name": "NonceIncreased",
      "type": "event"
    },
    {
      "inputs": [],
      "name": "eip712Domain",
      "outputs": [
        {
          "internalType": "bytes1",
          "name": "fields",
          "type": "bytes1"
        },
        {
          "internalType": "string",
          "name": "name",
          "type": "string"
        },
        {
          "internalType": "string",
          "name": "version",
          "type": "string"
        },
        {
          "internalType": "uint256",
          "name": "chainId",
          "type": "uint256"
        },
        {
          "internalType": "address",
          "name": "verifyingContract",
          "type": "address"
        },
        {
          "internalType": "bytes32",
          "name": "salt",
          "type": "bytes32"
        },
        {
          "internalType": "uint256[]",
          "name": "extensions",
          "type": "uint256[]"
        }
      ],
      "stateMutability": "view",
      "type": "function"
    },
    {
      "inputs": [],
      "name": "getAttestTypeHash",
      "outputs": [
        {
          "internalType": "bytes32",
          "name": "",
          "type": "bytes32"
        }
      ],
      "stateMutability": "pure",
      "type": "function"
    },
    {
      "inputs": [],
      "name": "getDomainSeparator",
      "outputs": [
        {
          "internalType": "bytes32",
          "name": "",
          "type": "bytes32"
        }
      ],
      "stateMutability": "view",
      "type": "function"
    },
    {
      "inputs": [],
      "name": "getName",
      "outputs": [
        {
          "internalType": "string",
          "name": "",
          "type": "string"
        }
      ],
      "stateMutability": "view",
      "type": "function"
    },
    {
      "inputs": [
        {
          "internalType": "address",
          "name": "account",
          "type": "address"
        }
      ],
      "name": "getNonce",
      "outputs": [
        {
          "internalType": "uint256",
          "name": "",
          "type": "uint256"
        }
      ],
      "stateMutability": "view",
      "type": "function"
    },
    {
      "inputs": [],
      "name": "getRevokeTypeHash",
      "outputs": [
        {
          "internalType": "bytes32",
          "name": "",
          "type": "bytes32"
        }
      ],
      "stateMutability": "pure",
      "type": "function"
    },
    {
      "inputs": [
        {
          "internalType": "uint256",
          "name": "newNonce",
          "type": "uint256"
        }
      ],
      "name": "increaseNonce",
      "outputs": [],
      "stateMutability": "nonpayable",
      "type": "function"
    },
    {
      "inputs": [
        {
          "components": [
            {
              "internalType": "bytes32",
              "name": "schema",
              "type": "bytes32"
            },
            {
              "components": [
                {
                  "internalType": "address",
                  "name": "recipient",
                  "type": "address"
                },
                {
                  "internalType": "uint64",
                  "name": "expirationTime",
                  "type": "uint64"
                },
                {
                  "internalType": "bool",
                  "name": "revocable",
                  "type": "bool"
                },
                {
                  "internalType": "bytes32",
                  "name": "refUID",
                  "type": "bytes32"
                },
                {
                  "internalType": "bytes",
                  "name": "data",
                  "type": "bytes"
                },
                {
                  "internalType": "uint256",
                  "name": "value",
                  "type": "uint256"
                }
              ],
              "internalType": "struct AttestationRequestData",
              "name": "data",
              "type": "tuple"
            },
            {
              "components": [
                {
                  "internalType": "uint8",
                  "name": "v",
                  "type": "uint8"
                },
                {
                  "internalType": "bytes32",
                  "name": "r",
                  "type": "bytes32"
                },
                {
                  "internalType": "bytes32",
                  "name": "s",
                  "type": "bytes32"
                }
              ],
              "internalType": "struct Signature",
              "name": "signature",
              "type": "tuple"
            },
            {
              "internalType": "address",
              "name": "attester",
              "type": "address"
            },
            {
              "internalType": "uint64",
              "name": "deadline",
              "type": "uint64"
            }
          ],
          "internalType": "struct DelegatedAttestationRequest",
          "name": "request",
          "type": "tuple"
        }
      ],
      "name": "verifyAttest",
      "outputs": [],
      "stateMutability": "nonpayable",
      "type": "function"
    },
    {
      "inputs": [
        {
          "components": [
            {
              "internalType": "bytes32",
              "name": "schema",
              "type": "bytes32"
            },
            {
              "components": [
                {
                  "internalType": "bytes32",
                  "name": "uid",
                  "type": "bytes32"
                },
                {
                  "internalType": "uint256",
                  "name": "value",
                  "type": "uint256"
                }
              ],
              "internalType": "struct RevocationRequestData",
              "name": "data",
              "type": "tuple"
            },
            {
              "components": [
                {
                  "internalType": "uint8",
                  "name": "v",
                  "type": "uint8"
                },
                {
                  "internalType": "bytes32",
                  "name": "r",
                  "type": "bytes32"
                },
                {
                  "internalType": "bytes32",
                  "name": "s",
                  "type": "bytes32"
                }
              ],
              "internalType": "struct Signature",
              "name": "signature",
              "type": "tuple"
            },
            {
              "internalType": "address",
              "name": "revoker",
              "type": "address"
            },
            {
              "internalType": "uint64",
              "name": "deadline",
              "type": "uint64"
            }
          ],
          "internalType": "struct DelegatedRevocationRequest",
          "name": "request",
          "type": "tuple"
        }
      ],
      "name": "verifyRevoke",
      "outputs": [],
      "stateMutability": "nonpayable",
      "type": "function"
    },
    {
      "inputs": [],
      "name": "version",
      "outputs": [
        {
          "internalType": "string",
          "name": "",
          "type": "string"
        }
      ],
      "stateMutability": "view",
      "type": "function"
    }
  ],
  "bytecode": "0x6101c0604052348015610010575f5ffd5b5060405161165e38038061165e83398101604081905261002f916101b6565b6040805180820190915260058152640312e342e360dc1b60208201526001608052600460a0525f60c08190528291908290829061006d90839061012a565b6101805261007c81600161012a565b6101a05281516020808401919091206101405281519082012061016052466101005261010b6101405161016051604080517f8b73c3c69bb8fe3d512ecc4cf759cc79239f7b179b0ffacaa9a75d522b39400f60208201529081019290925260608201524660808201523060a08201525f9060c00160405160208183030381529060405280519060200120905090565b60e05250503061012052600261012183826102ea565b505050506103fc565b5f6020835110156101455761013e8361015c565b9050610156565b8161015084826102ea565b5060ff90505b92915050565b5f5f829050601f8151111561018f578260405163305a27a960e01b815260040161018691906103a4565b60405180910390fd5b805161019a826103d9565b179392505050565b634e487b7160e01b5f52604160045260245ffd5b5f602082840312156101c6575f5ffd5b81516001600160401b038111156101db575f5ffd5b8201601f810184136101eb575f5ffd5b80516001600160401b03811115610204576102046101a2565b604051601f8201601f19908116603f011681016001600160401b0381118282101715610232576102326101a2565b604052818152828201602001861015610249575f5ffd5b8160208401602083015e5f91810160200191909152949350505050565b600181811c9082168061027a57607f821691505b60208210810361029857634e487b7160e01b5f52602260045260245ffd5b50919050565b601f8211156102e557805f5260205f20601f840160051c810160208510156102c35750805b601f840160051c820191505b818110156102e2575f81556001016102cf565b50505b505050565b81516001600160401b03811115610303576103036101a2565b610317816103118454610266565b8461029e565b6020601f821160018114610349575f83156103325750848201515b5f19600385901b1c1916600184901b1784556102e2565b5f84815260208120601f198516915b828110156103785787850151825560209485019460019092019101610358565b508482101561039557868401515f19600387901b60f8161c191681555b50505050600190811b01905550565b602081525f82518060208401528060208501604085015e5f604082850101526040601f19601f83011684010191505092915050565b80516020808301519190811015610298575f1960209190910360031b1b16919050565b60805160a05160c05160e05161010051610120516101405161016051610180516101a0516111f361046b5f395f61047501525f61044901525f61087301525f61084b01525f6107a601525f6107d001525f6107fa01525f61028601525f61025d01525f61023401526111f35ff3fe608060405234801561000f575f5ffd5b506004361061009b575f3560e01c806384b0196e1161006357806384b0196e1461012e578063b82b7acc14610149578063b83010d31461015c578063dda94e2114610182578063ed24911d14610195575f5ffd5b806312b11a171461009f57806317d7de7c146100d45780632d0335ab146100e957806354fd4d501461011157806379f7573a14610119575b5f5ffd5b7ffeb2925a02bae3dae48d424a0437a2b6ac939aa9230ddc55a1a76f065d9880765b6040519081526020015b60405180910390f35b6100dc61019d565b6040516100cb9190610cd8565b6100c16100f7366004610d05565b6001600160a01b03165f9081526003602052604090205490565b6100dc61022d565b61012c610127366004610d1e565b6102d0565b005b61013661034e565b6040516100cb9796959493929190610d35565b61012c610157366004610f4f565b610390565b7fb5d556f07587ec0f08cf386545cc4362c702a001650c2058002615ee5c9d1e756100c1565b61012c610190366004611077565b61039c565b6100c16103a5565b6060600280546101ac906110f7565b80601f01602080910402602001604051908101604052809291908181526020018280546101d8906110f7565b80156102235780601f106101fa57610100808354040283529160200191610223565b820191905f5260205f20905b81548152906001019060200180831161020657829003601f168201915b5050505050905090565b60606102587f00000000000000000000000000000000000000000000000000000000000000006103b3565b6102817f00000000000000000000000000000000000000000000000000000000000000006103b3565b6102aa7f00000000000000000000000000000000000000000000000000000000000000006103b3565b6040516020016102bc93929190611146565b604051602081830303815290604052905090565b335f908152600360205260409020548082116102ff57604051633ab3447f60e11b815260040160405180910390fd5b335f9081526003602090815260409182902084905581518381529081018490527f57b09af877df9068fd60a69d7b21f5576b8b38955812d6ae4ac52942f1e38fb7910160405180910390a15050565b5f6060805f5f5f606061035f610442565b61036761046e565b604080515f80825260208201909252600f60f81b9b939a50919850469750309650945092509050565b6103998161049b565b50565b61039981610689565b5f6103ae61079a565b905090565b60605f6103bf836108c3565b60010190505f816001600160401b038111156103dd576103dd610dcb565b6040519080825280601f01601f191660200182016040528015610407576020820181803683370190505b5090508181016020015b5f19016f181899199a1a9b1b9c1cb0b131b232b360811b600a86061a8153600a850494508461041157509392505050565b60606103ae7f00000000000000000000000000000000000000000000000000000000000000005f61099b565b60606103ae7f0000000000000000000000000000000000000000000000000000000000000000600161099b565b60808101516001600160401b0316158015906104cc5750426001600160401b031681608001516001600160401b0316105b156104ea57604051631ab7da6b60e01b815260040160405180910390fd5b6020808201516040808401516060808601518651855186880151868801519488015160808901518051908b012060a08a01516001600160a01b0387165f9081526003909c52988b2080549a9b989a9899610609997ffeb2925a02bae3dae48d424a0437a2b6ac939aa9230ddc55a1a76f065d988076999493928c61056d83611185565b919050558e608001516040516020016105ee9b9a999897969594939291909a8b526001600160a01b03998a1660208c015260408b01989098529590971660608901526001600160401b03938416608089015291151560a088015260c087015260e0860152610100850193909352610120840152166101408201526101600190565b60405160208183030381529060405280519060200120610a45565b905061066684606001518284602001518560400151865f015160405160200161065293929190928352602083019190915260f81b6001600160f81b031916604082015260410190565b604051602081830303815290604052610a71565b61068357604051638baa579f60e01b815260040160405180910390fd5b50505050565b60808101516001600160401b0316158015906106ba5750426001600160401b031681608001516001600160401b0316105b156106d857604051631ab7da6b60e01b815260040160405180910390fd5b602080820151604080840151606085015185518451858701516001600160a01b0384165f90815260039098529487208054969794969495610609957fb5d556f07587ec0f08cf386545cc4362c702a001650c2058002615ee5c9d1e75959493928861074283611185565b909155506080808c01516040805160208101999099526001600160a01b039097169688019690965260608701949094529285019190915260a084015260c08301526001600160401b031660e0820152610100016105ee565b5f306001600160a01b037f0000000000000000000000000000000000000000000000000000000000000000161480156107f257507f000000000000000000000000000000000000000000000000000000000000000046145b1561081c57507f000000000000000000000000000000000000000000000000000000000000000090565b6103ae604080517f8b73c3c69bb8fe3d512ecc4cf759cc79239f7b179b0ffacaa9a75d522b39400f60208201527f0000000000000000000000000000000000000000000000000000000000000000918101919091527f000000000000000000000000000000000000000000000000000000000000000060608201524660808201523060a08201525f9060c00160405160208183030381529060405280519060200120905090565b5f8072184f03e93ff9f4daa797ed6e38ed64bf6a1f0160401b83106109015772184f03e93ff9f4daa797ed6e38ed64bf6a1f0160401b830492506040015b6d04ee2d6d415b85acef8100000000831061092d576d04ee2d6d415b85acef8100000000830492506020015b662386f26fc10000831061094b57662386f26fc10000830492506010015b6305f5e1008310610963576305f5e100830492506008015b612710831061097757612710830492506004015b60648310610989576064830492506002015b600a8310610995576001015b92915050565b606060ff83146109b5576109ae83610ae4565b9050610995565b8180546109c1906110f7565b80601f01602080910402602001604051908101604052809291908181526020018280546109ed906110f7565b8015610a385780601f10610a0f57610100808354040283529160200191610a38565b820191905f5260205f20905b815481529060010190602001808311610a1b57829003601f168201915b5050505050905092915050565b5f610995610a5161079a565b8360405161190160f01b8152600281019290925260228201526042902090565b5f836001600160a01b03163b5f03610acf575f5f610a8f8585610b21565b5090925090505f816003811115610aa857610aa86111a9565b148015610ac65750856001600160a01b0316826001600160a01b0316145b92505050610add565b610ada848484610b6a565b90505b9392505050565b60605f610af083610bbb565b6040805160208082528183019092529192505f91906020820181803683375050509182525060208101929092525090565b5f5f5f8351604103610b58576020840151604085015160608601515f1a610b4a88828585610be2565b955095509550505050610b63565b505081515f91506002905b9250925092565b805160408051630b135d3f60e11b8082526004820186905260248201929092525f92906020820185604483015e60205f60648401838a5afa9050825f5114601f3d1116811693505050509392505050565b5f60ff8216601f81111561099557604051632cd44ac360e21b815260040160405180910390fd5b5f80807f7fffffffffffffffffffffffffffffff5d576e7357a4501ddfe92f46681b20a0841115610c1b57505f91506003905082610ca0565b604080515f808252602082018084528a905260ff891692820192909252606081018790526080810186905260019060a0016020604051602081039080840390855afa158015610c6c573d5f5f3e3d5ffd5b5050604051601f1901519150506001600160a01b038116610c9757505f925060019150829050610ca0565b92505f91508190505b9450945094915050565b5f81518084528060208401602086015e5f602082860101526020601f19601f83011685010191505092915050565b602081525f610add6020830184610caa565b80356001600160a01b0381168114610d00575f5ffd5b919050565b5f60208284031215610d15575f5ffd5b610add82610cea565b5f60208284031215610d2e575f5ffd5b5035919050565b60ff60f81b8816815260e060208201525f610d5360e0830189610caa565b8281036040840152610d658189610caa565b606084018890526001600160a01b038716608085015260a0840186905283810360c0850152845180825260208087019350909101905f5b81811015610dba578351835260209384019390920191600101610d9c565b50909b9a5050505050505050505050565b634e487b7160e01b5f52604160045260245ffd5b60405160a081016001600160401b0381118282101715610e0157610e01610dcb565b60405290565b60405160c081016001600160401b0381118282101715610e0157610e01610dcb565b604080519081016001600160401b0381118282101715610e0157610e01610dcb565b80356001600160401b0381168114610d00575f5ffd5b5f82601f830112610e70575f5ffd5b81356001600160401b03811115610e8957610e89610dcb565b604051601f8201601f19908116603f011681016001600160401b0381118282101715610eb757610eb7610dcb565b604052818152838201602001851015610ece575f5ffd5b816020850160208301375f918101602001919091529392505050565b5f60608284031215610efa575f5ffd5b604051606081016001600160401b0381118282101715610f1c57610f1c610dcb565b604052905080823560ff81168114610f32575f5ffd5b815260208381013590820152604092830135920191909152919050565b5f60208284031215610f5f575f5ffd5b81356001600160401b03811115610f74575f5ffd5b820160e08185031215610f85575f5ffd5b610f8d610ddf565b8135815260208201356001600160401b03811115610fa9575f5ffd5b820160c08187031215610fba575f5ffd5b610fc2610e07565b610fcb82610cea565b8152610fd960208301610e4b565b602082015260408201358015158114610ff0575f5ffd5b60408201526060828101359082015260808201356001600160401b03811115611017575f5ffd5b61102388828501610e61565b60808301525060a0918201359181019190915260208201526110488560408401610eea565b604082015261105960a08301610cea565b606082015261106a60c08301610e4b565b6080820152949350505050565b5f8183036101008112801561108a575f5ffd5b50611093610ddf565b833581526040601f19830112156110a8575f5ffd5b6110b0610e29565b6020858101358252604086013581830152820181905291506110d58560608601610eea565b60408201526110e660c08501610cea565b606082015261106a60e08501610e4b565b600181811c9082168061110b57607f821691505b60208210810361112957634e487b7160e01b5f52602260045260245ffd5b50919050565b5f81518060208401855e5f93019283525090919050565b5f611151828661112f565b601760f91b8152611165600182018661112f565b9050601760f91b815261117b600182018561112f565b9695505050505050565b5f600182016111a257634e487b7160e01b5f52601160045260245ffd5b5060010190565b634e487b7160e01b5f52602160045260245ffdfea26469706673582212201ac0205a01daadee36983cb240b520401eb062f4468ef0781549836314d7933d64736f6c634300081c0033",
  "linkReferences": {},
  "deployedLinkReferences": {}
}