{
  "_format": "hh-sol-artifact-1",
  "contractName": "AgentRegistry",
  "sourceName": "contracts/AgentRegistry.sol",
  "abi": [
    {
      "inputs": [
        {
          "internalType": "address",
          "name": "_reputationNFT",
          "type": "address"
        }
      ],
      "stateMutability": "nonpayable",
      "type": "constructor"
    },
    {
      "inputs": [],
      "name": "AccessControlBadConfirmation",
      "type": "error"
    },
    {
      "inputs": [
        {
          "internalType": "address",
          "name": "account",
          "type": "address"
        },
        {
          "internalType": "bytes32",
          "name": "neededRole",
          "type": "bytes32"
        }
      ],
      "name": "AccessControlUnauthorizedAccount",
      "type": "error"
    },
    {
      "anonymous": false,
      "inputs": [
        {
          "indexed": true,
          "internalType": "address",
          "name": "agent",
          "type": "address"
        }
      ],
      "name": "AgentRegistered",
      "type": "event"
    },
    {
      "anonymous": false,
      "inputs": [
        {
          "indexed": true,
          "internalType": "address",
          "name": "agent",
          "type": "address"
        },
        {
          "indexed": false,
          "internalType": "uint256",
          "name": "slashPoints",
          "type": "uint256"
        },
        {
          "indexed": false,
          "internalType": "uint256",
          "name": "newScore",
          "type": "uint256"
        }
      ],
      "name": "AgentSlashed",
      "type": "event"
    },
    {
      "anonymous": false,
      "inputs": [
        {
          "indexed": true,
          "internalType": "address",
          "name": "agent",
          "type": "address"
        },
        {
          "indexed": false,
          "internalType": "uint256",
          "name": "newScore",
          "type": "uint256"
        },
        {
          "indexed": false,
          "internalType": "string",
          "name": "easUID",
          "type": "string"
        }
      ],
      "name": "CreditScoreUpdated",
      "type": "event"
    },
    {
      "anonymous": false,
      "inputs": [
        {
          "indexed": true,
          "internalType": "bytes32",
          "name": "role",
          "type": "bytes32"
        },
        {
          "indexed": true,
          "internalType": "bytes32",
          "name": "previousAdminRole",
          "type": "bytes32"
        },
        {
          "indexed": true,
          "internalType": "bytes32",
          "name": "newAdminRole",
          "type": "bytes32"
        }
      ],
      "name": "RoleAdminChanged",
      "type": "event"
    },
    {
      "anonymous": false,
      "inputs": [
        {
          "indexed": true,
          "internalType": "bytes32",
          "name": "role",
          "type": "bytes32"
        },
        {
          "indexed": true,
          "internalType": "address",
          "name": "account",
          "type": "address"
        },
        {
          "indexed": true,
          "internalType": "address",
          "name": "sender",
          "type": "address"
        }
      ],
      "name": "RoleGranted",
      "type": "event"
    },
    {
      "anonymous": false,
      "inputs": [
        {
          "indexed": true,
          "internalType": "bytes32",
          "name": "role",
          "type": "bytes32"
        },
        {
          "indexed": true,
          "internalType": "address",
          "name": "account",
          "type": "address"
        },
        {
          "indexed": true,
          "internalType": "address",
          "name": "sender",
          "type": "address"
        }
      ],
      "name": "RoleRevoked",
      "type": "event"
    },
    {
      "anonymous": false,
      "inputs": [
        {
          "indexed": true,
          "internalType": "address",
          "name": "agent",
          "type": "address"
        },
        {
          "indexed": false,
          "internalType": "bool",
          "name": "status",
          "type": "bool"
        }
      ],
      "name": "WhitelistStatusChanged",
      "type": "event"
    },
    {
      "inputs": [],
      "name": "DEFAULT_ADMIN_ROLE",
      "outputs": [
        {
          "internalType": "bytes32",
          "name": "",
          "type": "bytes32"
        }
      ],
      "stateMutability": "view",
      "type": "function"
    },
    {
      "inputs": [],
      "name": "MANAGER_ROLE",
      "outputs": [
        {
          "internalType": "bytes32",
          "name": "",
          "type": "bytes32"
        }
      ],
      "stateMutability": "view",
      "type": "function"
    },
    {
      "inputs": [],
      "name": "WHITELIST_THRESHOLD",
      "outputs": [
        {
          "internalType": "uint256",
          "name": "",
          "type": "uint256"
        }
      ],
      "stateMutability": "view",
      "type": "function"
    },
    {
      "inputs": [
        {
          "internalType": "address",
          "name": "",
          "type": "address"
        }
      ],
      "name": "agents",
      "outputs": [
        {
          "internalType": "bool",
          "name": "isRegistered",
          "type": "bool"
        },
        {
          "internalType": "uint256",
          "name": "creditScore",
          "type": "uint256"
        },
        {
          "internalType": "string",
          "name": "easAttestationUID",
          "type": "string"
        },
        {
          "internalType": "bool",
          "name": "isWhitelisted",
          "type": "bool"
        },
        {
          "internalType": "uint256",
          "name": "lastUpdated",
          "type": "uint256"
        }
      ],
      "stateMutability": "view",
      "type": "function"
    },
    {
      "inputs": [
        {
          "internalType": "address",
          "name": "agent",
          "type": "address"
        }
      ],
      "name": "getAgent",
      "outputs": [
        {
          "components": [
            {
              "internalType": "bool",
              "name": "isRegistered",
              "type": "bool"
            },
            {
              "internalType": "uint256",
              "name": "creditScore",
              "type": "uint256"
            },
            {
              "internalType": "string",
              "name": "easAttestationUID",
              "type": "string"
            },
            {
              "internalType": "bool",
              "name": "isWhitelisted",
              "type": "bool"
            },
            {
              "internalType": "uint256",
              "name": "lastUpdated",
              "type": "uint256"
            }
          ],
          "internalType": "struct AgentRegistry.Agent",
          "name": "",
          "type": "tuple"
        }
      ],
      "stateMutability": "view",
      "type": "function"
    },
    {
      "inputs": [],
      "name": "getRegisteredAgents",
      "outputs": [
        {
          "internalType": "address[]",
          "name": "",
          "type": "address[]"
        }
      ],
      "stateMutability": "view",
      "type": "function"
    },
    {
      "inputs": [
        {
          "internalType": "bytes32",
          "name": "role",
          "type": "bytes32"
        }
      ],
      "name": "getRoleAdmin",
      "outputs": [
        {
          "internalType": "bytes32",
          "name": "",
          "type": "bytes32"
        }
      ],
      "stateMutability": "view",
      "type": "function"
    },
    {
      "inputs": [
        {
          "internalType": "bytes32",
          "name": "role",
          "type": "bytes32"
        },
        {
          "internalType": "address",
          "name": "account",
          "type": "address"
        }
      ],
      "name": "grantRole",
      "outputs": [],
      "stateMutability": "nonpayable",
      "type": "function"
    },
    {
      "inputs": [
        {
          "internalType": "bytes32",
          "name": "role",
          "type": "bytes32"
        },
        {
          "internalType": "address",
          "name": "account",
          "type": "address"
        }
      ],
      "name": "hasRole",
      "outputs": [
        {
          "internalType": "bool",
          "name": "",
          "type": "bool"
        }
      ],
      "stateMutability": "view",
      "type": "function"
    },
    {
      "inputs": [],
      "name": "registerAgent",
      "outputs": [],
      "stateMutability": "nonpayable",
      "type": "function"
    },
    {
      "inputs": [
        {
          "internalType": "uint256",
          "name": "",
          "type": "uint256"
        }
      ],
      "name": "registeredAgents",
      "outputs": [
        {
          "internalType": "address",
          "name": "",
          "type": "address"
        }
      ],
      "stateMutability": "view",
      "type": "function"
    },
    {
      "inputs": [
        {
          "internalType": "bytes32",
          "name": "role",
          "type": "bytes32"
        },
        {
          "internalType": "address",
          "name": "callerConfirmation",
          "type": "address"
        }
      ],
      "name": "renounceRole",
      "outputs": [],
      "stateMutability": "nonpayable",
      "type": "function"
    },
    {
      "inputs": [],
      "name": "reputationNFT",
      "outputs": [
        {
          "internalType": "contract ReputationNFT",
          "name": "",
          "type": "address"
        }
      ],
      "stateMutability": "view",
      "type": "function"
    },
    {
      "inputs": [
        {
          "internalType": "bytes32",
          "name": "role",
          "type": "bytes32"
        },
        {
          "internalType": "address",
          "name": "account",
          "type": "address"
        }
      ],
      "name": "revokeRole",
      "outputs": [],
      "stateMutability": "nonpayable",
      "type": "function"
    },
    {
      "inputs": [
        {
          "internalType": "address",
          "name": "agent",
          "type": "address"
        },
        {
          "internalType": "bool",
          "name": "status",
          "type": "bool"
        }
      ],
      "name": "setWhitelisted",
      "outputs": [],
      "stateMutability": "nonpayable",
      "type": "function"
    },
    {
      "inputs": [
        {
          "internalType": "address",
          "name": "agent",
          "type": "address"
        },
        {
          "internalType": "uint256",
          "name": "points",
          "type": "uint256"
        }
      ],
      "name": "slashAgent",
      "outputs": [],
      "stateMutability": "nonpayable",
      "type": "function"
    },
    {
      "inputs": [
        {
          "internalType": "bytes4",
          "name": "interfaceId",
          "type": "bytes4"
        }
      ],
      "name": "supportsInterface",
      "outputs": [
        {
          "internalType": "bool",
          "name": "",
          "type": "bool"
        }
      ],
      "stateMutability": "view",
      "type": "function"
    },
    {
      "inputs": [],
      "name": "totalAgents",
      "outputs": [
        {
          "internalType": "uint256",
          "name": "",
          "type": "uint256"
        }
      ],
      "stateMutability": "view",
      "type": "function"
    },
    {
      "inputs": [
        {
          "internalType": "address",
          "name": "agent",
          "type": "address"
        },
        {
          "internalType": "uint256",
          "name": "score",
          "type": "uint256"
        },
        {
          "internalType": "string",
          "name": "easUID",
          "type": "string"
        }
      ],
      "name": "updateCreditScore",
      "outputs": [],
      "stateMutability": "nonpayable",
      "type": "function"
    }
  ],
  "bytecode": "0x608060405234801561000f575f5ffd5b5060405161157f38038061157f83398101604081905261002e91610132565b6100385f33610089565b506100637f241ecf16d79d0f8dbfb92cbc07fe17840425976cf0667f022fe9877caa831b0833610089565b50600180546001600160a01b0319166001600160a01b039290921691909117905561015f565b5f828152602081815260408083206001600160a01b038516845290915281205460ff16610129575f838152602081815260408083206001600160a01b03861684529091529020805460ff191660011790556100e13390565b6001600160a01b0316826001600160a01b0316847f2f8788117e7eff1d82e926ec794901d17c78024a50270940304540a733656f0d60405160405180910390a450600161012c565b505f5b92915050565b5f60208284031215610142575f5ffd5b81516001600160a01b0381168114610158575f5ffd5b9392505050565b6114138061016c5f395ff3fe608060405234801561000f575f5ffd5b506004361061011c575f3560e01c806391d14854116100a9578063d547741f1161006e578063d547741f1461024c578063ec87621c1461025f578063fa48864914610286578063fb3551ff14610299578063fd66091e146102b9575f5ffd5b806391d14854146101ec5780639281aa0b146101ff578063a217fddf14610212578063a7bd211c14610219578063c505371214610244575f5ffd5b806336568abe116100ef57806336568abe146101955780635838050a146101a8578063690aa3e6146101b1578063875ff280146101c45780639028cb1a146101d9575f5ffd5b806301ffc9a714610120578063248a9ca3146101485780632f2ff15d1461017857806335eb52081461018d575b5f5ffd5b61013361012e366004610e8d565b6102dd565b60405190151581526020015b60405180910390f35b61016a610156366004610ebb565b5f9081526020819052604090206001015490565b60405190815260200161013f565b61018b610186366004610eed565b610313565b005b61018b61033d565b61018b6101a3366004610eed565b610495565b61016a6101f481565b61018b6101bf366004610f17565b6104cd565b6101cc6106a8565b60405161013f9190610f3f565b61018b6101e7366004610f8a565b610708565b6101336101fa366004610eed565b61087f565b61018b61020d36600461100d565b6108a7565b61016a5f81565b61022c610227366004610ebb565b61094a565b6040516001600160a01b03909116815260200161013f565b60035461016a565b61018b61025a366004610eed565b610972565b61016a7f241ecf16d79d0f8dbfb92cbc07fe17840425976cf0667f022fe9877caa831b0881565b60015461022c906001600160a01b031681565b6102ac6102a7366004611046565b610996565b60405161013f919061108d565b6102cc6102c7366004611046565b610ab3565b60405161013f9594939291906110e0565b5f6001600160e01b03198216637965db0b60e01b148061030d57506301ffc9a760e01b6001600160e01b03198316145b92915050565b5f8281526020819052604090206001015461032d81610b71565b6103378383610b7e565b50505050565b335f9081526002602052604090205460ff16156103965760405162461bcd60e51b8152602060048201526012602482015271105b1c9958591e481c9959da5cdd195c995960721b60448201526064015b60405180910390fd5b6040805160a08101825260018082525f60208084018281528551808301875283815285870190815260608601849052426080870152338452600292839052959092208451815460ff191690151517815591519282019290925592519192919082019061040290826111a4565b5060608201516003828101805460ff19169215159290921790915560809092015160049091015580546001810182555f9182527fc2575a0e9e593c00f959f8c92f12db2869c3395a3b0502d05e2516446f71f85b018054336001600160a01b0319909116811790915560405190917f82d0829d9d481e4cb9913897f9b9c903271c4db68c7b3324071d2a7e3b2c5ff091a2565b6001600160a01b03811633146104be5760405163334bd91960e11b815260040160405180910390fd5b6104c88282610c0d565b505050565b7f241ecf16d79d0f8dbfb92cbc07fe17840425976cf0667f022fe9877caa831b086104f781610b71565b6001600160a01b0383165f9081526002602052604090205460ff1661052e5760405162461bcd60e51b815260040161038d9061125f565b6001600160a01b0383165f90815260026020526040902060010154821115610570576001600160a01b0383165f908152600260205260408120600101556105a0565b6001600160a01b0383165f908152600260205260408120600101805484929061059a90849061128d565b90915550505b6001600160a01b0383165f81815260026020908152604091829020600101548251868152918201527f33ecbd1838b95de3fee74f0a2087b7ad175c89e5c03b32c5c5e4f04d77c0617e910160405180910390a26001600160a01b0383165f9081526002602081905260409091206001810154910180546104c8928692909161062790611128565b80601f016020809104026020016040519081016040528092919081815260200182805461065390611128565b801561069e5780601f106106755761010080835404028352916020019161069e565b820191905f5260205f20905b81548152906001019060200180831161068157829003601f168201915b5050505050610c76565b606060038054806020026020016040519081016040528092919081815260200182805480156106fe57602002820191905f5260205f20905b81546001600160a01b031681526001909101906020018083116106e0575b5050505050905090565b7f241ecf16d79d0f8dbfb92cbc07fe17840425976cf0667f022fe9877caa831b0861073281610b71565b6001600160a01b0385165f9081526002602052604090205460ff166107695760405162461bcd60e51b815260040161038d9061125f565b6103e88411156107b05760405162461bcd60e51b815260206004820152601260248201527153636f7265206f7574206f662072616e676560701b604482015260640161038d565b6001600160a01b0385165f90815260026020819052604090912060018101869055016107dd8385836112ac565b506001600160a01b0385165f818152600260205260409081902042600490910155517f20c4f18f66e2a8fc67b7f1c91b3c44a72189e2e824caa7075c958b1e86c870d99061083090879087908790611366565b60405180910390a2610878858585858080601f0160208091040260200160405190810160405280939291908181526020018383808284375f92019190915250610c7692505050565b5050505050565b5f918252602082815260408084206001600160a01b0393909316845291905290205460ff1690565b5f6108b181610b71565b6001600160a01b0383165f9081526002602052604090205460ff166108e85760405162461bcd60e51b815260040161038d9061125f565b6001600160a01b0383165f81815260026020908152604091829020600301805460ff191686151590811790915591519182527f8daaf060c3306c38e068a75c054bf96ecd85a3db1252712c4d93632744c42e0d910160405180910390a2505050565b60038181548110610959575f80fd5b5f918252602090912001546001600160a01b0316905081565b5f8281526020819052604090206001015461098c81610b71565b6103378383610c0d565b6109c86040518060a001604052805f151581526020015f8152602001606081526020015f151581526020015f81525090565b6001600160a01b0382165f90815260026020818152604092839020835160a081018552815460ff161515815260018201549281019290925291820180549193840191610a1390611128565b80601f0160208091040260200160405190810160405280929190818152602001828054610a3f90611128565b8015610a8a5780601f10610a6157610100808354040283529160200191610a8a565b820191905f5260205f20905b815481529060010190602001808311610a6d57829003601f168201915b5050509183525050600382015460ff161515602082015260049091015460409091015292915050565b600260208190525f918252604090912080546001820154928201805460ff909216939291610ae090611128565b80601f0160208091040260200160405190810160405280929190818152602001828054610b0c90611128565b8015610b575780601f10610b2e57610100808354040283529160200191610b57565b820191905f5260205f20905b815481529060010190602001808311610b3a57829003601f168201915b505050506003830154600490930154919260ff1691905085565b610b7b8133610e50565b50565b5f610b89838361087f565b610c06575f838152602081815260408083206001600160a01b03861684529091529020805460ff19166001179055610bbe3390565b6001600160a01b0316826001600160a01b0316847f2f8788117e7eff1d82e926ec794901d17c78024a50270940304540a733656f0d60405160405180910390a450600161030d565b505f61030d565b5f610c18838361087f565b15610c06575f838152602081815260408083206001600160a01b0386168085529252808320805460ff1916905551339286917ff6391f5c32d9c69d2a47ea670b442974b53935d1edc7fd64eb21e047a839171b9190a450600161030d565b6001600160a01b0383165f908152600260205260409020600301546101f48310159060ff1615158114610d01576001600160a01b0384165f81815260026020908152604091829020600301805460ff191685151590811790915591519182527f8daaf060c3306c38e068a75c054bf96ecd85a3db1252712c4d93632744c42e0d910160405180910390a25b6001546040516301deeda160e21b81526001600160a01b0386811660048301529091169063077bb68490602401602060405180830381865afa158015610d49573d5f5f3e3d5ffd5b505050506040513d601f19601f82011682018060405250810190610d6d919061139b565b5f03610deb57600154604051636ef92d7b60e11b81526001600160a01b039091169063ddf25af690610da590879086906004016113b2565b6020604051808303815f875af1158015610dc1573d5f5f3e3d5ffd5b505050506040513d601f19601f82011682018060405250810190610de5919061139b565b50610337565b6001546040516315a7391960e11b81526001600160a01b0390911690632b4e723290610e1d90879086906004016113b2565b5f604051808303815f87803b158015610e34575f5ffd5b505af1158015610e46573d5f5f3e3d5ffd5b5050505050505050565b610e5a828261087f565b610e895760405163e2517d3f60e01b81526001600160a01b03821660048201526024810183905260440161038d565b5050565b5f60208284031215610e9d575f5ffd5b81356001600160e01b031981168114610eb4575f5ffd5b9392505050565b5f60208284031215610ecb575f5ffd5b5035919050565b80356001600160a01b0381168114610ee8575f5ffd5b919050565b5f5f60408385031215610efe575f5ffd5b82359150610f0e60208401610ed2565b90509250929050565b5f5f60408385031215610f28575f5ffd5b610f3183610ed2565b946020939093013593505050565b602080825282518282018190525f918401906040840190835b81811015610f7f5783516001600160a01b0316835260209384019390920191600101610f58565b509095945050505050565b5f5f5f5f60608587031215610f9d575f5ffd5b610fa685610ed2565b935060208501359250604085013567ffffffffffffffff811115610fc8575f5ffd5b8501601f81018713610fd8575f5ffd5b803567ffffffffffffffff811115610fee575f5ffd5b876020828401011115610fff575f5ffd5b949793965060200194505050565b5f5f6040838503121561101e575f5ffd5b61102783610ed2565b91506020830135801515811461103b575f5ffd5b809150509250929050565b5f60208284031215611056575f5ffd5b610eb482610ed2565b5f81518084528060208401602086015e5f602082860101526020601f19601f83011685010191505092915050565b60208152815115156020820152602082015160408201525f604083015160a060608401526110be60c084018261105f565b9050606084015115156080840152608084015160a08401528091505092915050565b851515815284602082015260a060408201525f61110060a083018661105f565b931515606083015250608001529392505050565b634e487b7160e01b5f52604160045260245ffd5b600181811c9082168061113c57607f821691505b60208210810361115a57634e487b7160e01b5f52602260045260245ffd5b50919050565b601f8211156104c857805f5260205f20601f840160051c810160208510156111855750805b601f840160051c820191505b81811015610878575f8155600101611191565b815167ffffffffffffffff8111156111be576111be611114565b6111d2816111cc8454611128565b84611160565b6020601f821160018114611204575f83156111ed5750848201515b5f19600385901b1c1916600184901b178455610878565b5f84815260208120601f198516915b828110156112335787850151825560209485019460019092019101611213565b508482101561125057868401515f19600387901b60f8161c191681555b50505050600190811b01905550565b6020808252601490820152731059d95b9d081b9bdd081c9959da5cdd195c995960621b604082015260600190565b8181038181111561030d57634e487b7160e01b5f52601160045260245ffd5b67ffffffffffffffff8311156112c4576112c4611114565b6112d8836112d28354611128565b83611160565b5f601f841160018114611309575f85156112f25750838201355b5f19600387901b1c1916600186901b178355610878565b5f83815260208120601f198716915b828110156113385786850135825560209485019460019092019101611318565b5086821015611354575f1960f88860031b161c19848701351681555b505060018560011b0183555050505050565b83815260406020820152816040820152818360608301375f818301606090810191909152601f909201601f1916010192915050565b5f602082840312156113ab575f5ffd5b5051919050565b6001600160a01b03831681526040602082018190525f906113d59083018461105f565b94935050505056fea264697066735822122012c50f9378c2aaacc586a32d87941a2537c2c5abb053dc37d420d40c4fd19d1964736f6c634300081c0033",
  "linkReferences": {},
  "deployedLinkReferences": {}
}