{
  "_format": "hh-sol-artifact-1",
  "contractName": "AgentRegistry",
  "sourceName": "contracts/AgentRegistry.sol",
  "abi": [
    {
      "inputs": [
        {
          "internalType": "address",
          "name": "_reputationNFT",
          "type": "address"
        }
      ],
      "stateMutability": "nonpayable",
      "type": "constructor"
    },
    {
      "inputs": [
        {
          "internalType": "address",
          "name": "owner",
          "type": "address"
        }
      ],
      "name": "OwnableInvalidOwner",
      "type": "error"
    },
    {
      "inputs": [
        {
          "internalType": "address",
          "name": "account",
          "type": "address"
        }
      ],
      "name": "OwnableUnauthorizedAccount",
      "type": "error"
    },
    {
      "anonymous": false,
      "inputs": [
        {
          "indexed": true,
          "internalType": "address",
          "name": "agent",
          "type": "address"
        }
      ],
      "name": "AgentRegistered",
      "type": "event"
    },
    {
      "anonymous": false,
      "inputs": [
        {
          "indexed": true,
          "internalType": "address",
          "name": "agent",
          "type": "address"
        },
        {
          "indexed": false,
          "internalType": "uint256",
          "name": "newScore",
          "type": "uint256"
        },
        {
          "indexed": false,
          "internalType": "string",
          "name": "easUID",
          "type": "string"
        }
      ],
      "name": "CreditScoreUpdated",
      "type": "event"
    },
    {
      "anonymous": false,
      "inputs": [
        {
          "indexed": true,
          "internalType": "address",
          "name": "previousOwner",
          "type": "address"
        },
        {
          "indexed": true,
          "internalType": "address",
          "name": "newOwner",
          "type": "address"
        }
      ],
      "name": "OwnershipTransferred",
      "type": "event"
    },
    {
      "anonymous": false,
      "inputs": [
        {
          "indexed": true,
          "internalType": "address",
          "name": "agent",
          "type": "address"
        },
        {
          "indexed": false,
          "internalType": "bool",
          "name": "status",
          "type": "bool"
        }
      ],
      "name": "WhitelistStatusChanged",
      "type": "event"
    },
    {
      "inputs": [],
      "name": "WHITELIST_THRESHOLD",
      "outputs": [
        {
          "internalType": "uint256",
          "name": "",
          "type": "uint256"
        }
      ],
      "stateMutability": "view",
      "type": "function"
    },
    {
      "inputs": [
        {
          "internalType": "address",
          "name": "",
          "type": "address"
        }
      ],
      "name": "agents",
      "outputs": [
        {
          "internalType": "bool",
          "name": "isRegistered",
          "type": "bool"
        },
        {
          "internalType": "uint256",
          "name": "creditScore",
          "type": "uint256"
        },
        {
          "internalType": "string",
          "name": "easAttestationUID",
          "type": "string"
        },
        {
          "internalType": "bool",
          "name": "isWhitelisted",
          "type": "bool"
        },
        {
          "internalType": "uint256",
          "name": "lastUpdated",
          "type": "uint256"
        }
      ],
      "stateMutability": "view",
      "type": "function"
    },
    {
      "inputs": [
        {
          "internalType": "address",
          "name": "agent",
          "type": "address"
        }
      ],
      "name": "getAgent",
      "outputs": [
        {
          "components": [
            {
              "internalType": "bool",
              "name": "isRegistered",
              "type": "bool"
            },
            {
              "internalType": "uint256",
              "name": "creditScore",
              "type": "uint256"
            },
            {
              "internalType": "string",
              "name": "easAttestationUID",
              "type": "string"
            },
            {
              "internalType": "bool",
              "name": "isWhitelisted",
              "type": "bool"
            },
            {
              "internalType": "uint256",
              "name": "lastUpdated",
              "type": "uint256"
            }
          ],
          "internalType": "struct AgentRegistry.Agent",
          "name": "",
          "type": "tuple"
        }
      ],
      "stateMutability": "view",
      "type": "function"
    },
    {
      "inputs": [],
      "name": "getRegisteredAgents",
      "outputs": [
        {
          "internalType": "address[]",
          "name": "",
          "type": "address[]"
        }
      ],
      "stateMutability": "view",
      "type": "function"
    },
    {
      "inputs": [],
      "name": "owner",
      "outputs": [
        {
          "internalType": "address",
          "name": "",
          "type": "address"
        }
      ],
      "stateMutability": "view",
      "type": "function"
    },
    {
      "inputs": [],
      "name": "registerAgent",
      "outputs": [],
      "stateMutability": "nonpayable",
      "type": "function"
    },
    {
      "inputs": [
        {
          "internalType": "uint256",
          "name": "",
          "type": "uint256"
        }
      ],
      "name": "registeredAgents",
      "outputs": [
        {
          "internalType": "address",
          "name": "",
          "type": "address"
        }
      ],
      "stateMutability": "view",
      "type": "function"
    },
    {
      "inputs": [],
      "name": "renounceOwnership",
      "outputs": [],
      "stateMutability": "nonpayable",
      "type": "function"
    },
    {
      "inputs": [],
      "name": "reputationNFT",
      "outputs": [
        {
          "internalType": "contract ReputationNFT",
          "name": "",
          "type": "address"
        }
      ],
      "stateMutability": "view",
      "type": "function"
    },
    {
      "inputs": [
        {
          "internalType": "address",
          "name": "agent",
          "type": "address"
        },
        {
          "internalType": "bool",
          "name": "status",
          "type": "bool"
        }
      ],
      "name": "setWhitelisted",
      "outputs": [],
      "stateMutability": "nonpayable",
      "type": "function"
    },
    {
      "inputs": [],
      "name": "totalAgents",
      "outputs": [
        {
          "internalType": "uint256",
          "name": "",
          "type": "uint256"
        }
      ],
      "stateMutability": "view",
      "type": "function"
    },
    {
      "inputs": [
        {
          "internalType": "address",
          "name": "newOwner",
          "type": "address"
        }
      ],
      "name": "transferOwnership",
      "outputs": [],
      "stateMutability": "nonpayable",
      "type": "function"
    },
    {
      "inputs": [
        {
          "internalType": "address",
          "name": "agent",
          "type": "address"
        },
        {
          "internalType": "uint256",
          "name": "score",
          "type": "uint256"
        },
        {
          "internalType": "string",
          "name": "easUID",
          "type": "string"
        }
      ],
      "name": "updateCreditScore",
      "outputs": [],
      "stateMutability": "nonpayable",
      "type": "function"
    }
  ],
  "bytecode": "0x608060405234801561000f575f5ffd5b5060405161102138038061102183398101604081905261002e916100d1565b338061005357604051631e4fbdf760e01b81525f600482015260240160405180910390fd5b61005c81610082565b50600180546001600160a01b0319166001600160a01b03929092169190911790556100fe565b5f80546001600160a01b038381166001600160a01b0319831681178455604051919092169283917f8be0079c531659141344cd1fd0a4f28419497f9722a3daafe3b4186f6b6457e09190a35050565b5f602082840312156100e1575f5ffd5b81516001600160a01b03811681146100f7575f5ffd5b9392505050565b610f168061010b5f395ff3fe608060405234801561000f575f5ffd5b50600436106100cb575f3560e01c80639281aa0b11610088578063f2fde38b11610063578063f2fde38b14610177578063fa4886491461018a578063fb3551ff1461019d578063fd66091e146101bd575f5ffd5b80639281aa0b14610149578063a7bd211c1461015c578063c50537121461016f575f5ffd5b806335eb5208146100cf5780635838050a146100d9578063715018a6146100f5578063875ff280146100fd5780638da5cb5b146101125780639028cb1a14610136575b5f5ffd5b6100d76101e1565b005b6100e26101f481565b6040519081526020015b60405180910390f35b6100d7610339565b61010561034c565b6040516100ec9190610a43565b5f546001600160a01b03165b6040516001600160a01b0390911681526020016100ec565b6100d7610144366004610aa9565b6103ac565b6100d7610157366004610b2c565b6106c1565b61011e61016a366004610b65565b610788565b6003546100e2565b6100d7610185366004610b7c565b6107b0565b60015461011e906001600160a01b031681565b6101b06101ab366004610b7c565b6107ed565b6040516100ec9190610bca565b6101d06101cb366004610b7c565b61090a565b6040516100ec959493929190610c1d565b335f9081526002602052604090205460ff161561023a5760405162461bcd60e51b8152602060048201526012602482015271105b1c9958591e481c9959da5cdd195c995960721b60448201526064015b60405180910390fd5b6040805160a08101825260018082525f60208084018281528551808301875283815285870190815260608601849052426080870152338452600292839052959092208451815460ff19169015151781559151928201929092559251919291908201906102a69082610ce6565b5060608201516003828101805460ff19169215159290921790915560809092015160049091015580546001810182555f9182527fc2575a0e9e593c00f959f8c92f12db2869c3395a3b0502d05e2516446f71f85b018054336001600160a01b0319909116811790915560405190917f82d0829d9d481e4cb9913897f9b9c903271c4db68c7b3324071d2a7e3b2c5ff091a2565b6103416109c8565b61034a5f6109f4565b565b606060038054806020026020016040519081016040528092919081815260200182805480156103a257602002820191905f5260205f20905b81546001600160a01b03168152600190910190602001808311610384575b5050505050905090565b6103b46109c8565b6001600160a01b0384165f9081526002602052604090205460ff166104125760405162461bcd60e51b81526020600482015260146024820152731059d95b9d081b9bdd081c9959da5cdd195c995960621b6044820152606401610231565b6103e88311156104595760405162461bcd60e51b815260206004820152601260248201527153636f7265206f7574206f662072616e676560701b6044820152606401610231565b6001600160a01b0384165f9081526002602081905260409091206001810185905501610486828483610da1565b506001600160a01b0384165f818152600260205260409081902042600490910155517f20c4f18f66e2a8fc67b7f1c91b3c44a72189e2e824caa7075c958b1e86c870d9906104d990869086908690610e83565b60405180910390a26001600160a01b0384165f908152600260205260409020600301546101f48410159060ff161515811461056c576001600160a01b0385165f81815260026020908152604091829020600301805460ff191685151590811790915591519182527f8daaf060c3306c38e068a75c054bf96ecd85a3db1252712c4d93632744c42e0d910160405180910390a25b6001546040516301deeda160e21b81526001600160a01b0387811660048301529091169063077bb68490602401602060405180830381865afa1580156105b4573d5f5f3e3d5ffd5b505050506040513d601f19601f820116820180604052508101906105d89190610ea5565b5f0361065857600154604051636ef92d7b60e11b81526001600160a01b039091169063ddf25af69061061290889087908790600401610ebc565b6020604051808303815f875af115801561062e573d5f5f3e3d5ffd5b505050506040513d601f19601f820116820180604052508101906106529190610ea5565b506106ba565b6001546040516315a7391960e11b81526001600160a01b0390911690632b4e72329061068c90889087908790600401610ebc565b5f604051808303815f87803b1580156106a3575f5ffd5b505af11580156106b5573d5f5f3e3d5ffd5b505050505b5050505050565b6106c96109c8565b6001600160a01b0382165f9081526002602052604090205460ff166107275760405162461bcd60e51b81526020600482015260146024820152731059d95b9d081b9bdd081c9959da5cdd195c995960621b6044820152606401610231565b6001600160a01b0382165f81815260026020908152604091829020600301805460ff191685151590811790915591519182527f8daaf060c3306c38e068a75c054bf96ecd85a3db1252712c4d93632744c42e0d910160405180910390a25050565b60038181548110610797575f80fd5b5f918252602090912001546001600160a01b0316905081565b6107b86109c8565b6001600160a01b0381166107e157604051631e4fbdf760e01b81525f6004820152602401610231565b6107ea816109f4565b50565b61081f6040518060a001604052805f151581526020015f8152602001606081526020015f151581526020015f81525090565b6001600160a01b0382165f90815260026020818152604092839020835160a081018552815460ff16151581526001820154928101929092529182018054919384019161086a90610c65565b80601f016020809104026020016040519081016040528092919081815260200182805461089690610c65565b80156108e15780601f106108b8576101008083540402835291602001916108e1565b820191905f5260205f20905b8154815290600101906020018083116108c457829003601f168201915b5050509183525050600382015460ff161515602082015260049091015460409091015292915050565b600260208190525f918252604090912080546001820154928201805460ff90921693929161093790610c65565b80601f016020809104026020016040519081016040528092919081815260200182805461096390610c65565b80156109ae5780601f10610985576101008083540402835291602001916109ae565b820191905f5260205f20905b81548152906001019060200180831161099157829003601f168201915b505050506003830154600490930154919260ff1691905085565b5f546001600160a01b0316331461034a5760405163118cdaa760e01b8152336004820152602401610231565b5f80546001600160a01b038381166001600160a01b0319831681178455604051919092169283917f8be0079c531659141344cd1fd0a4f28419497f9722a3daafe3b4186f6b6457e09190a35050565b602080825282518282018190525f918401906040840190835b81811015610a835783516001600160a01b0316835260209384019390920191600101610a5c565b509095945050505050565b80356001600160a01b0381168114610aa4575f5ffd5b919050565b5f5f5f5f60608587031215610abc575f5ffd5b610ac585610a8e565b935060208501359250604085013567ffffffffffffffff811115610ae7575f5ffd5b8501601f81018713610af7575f5ffd5b803567ffffffffffffffff811115610b0d575f5ffd5b876020828401011115610b1e575f5ffd5b949793965060200194505050565b5f5f60408385031215610b3d575f5ffd5b610b4683610a8e565b915060208301358015158114610b5a575f5ffd5b809150509250929050565b5f60208284031215610b75575f5ffd5b5035919050565b5f60208284031215610b8c575f5ffd5b610b9582610a8e565b9392505050565b5f81518084528060208401602086015e5f602082860101526020601f19601f83011685010191505092915050565b60208152815115156020820152602082015160408201525f604083015160a06060840152610bfb60c0840182610b9c565b9050606084015115156080840152608084015160a08401528091505092915050565b851515815284602082015260a060408201525f610c3d60a0830186610b9c565b931515606083015250608001529392505050565b634e487b7160e01b5f52604160045260245ffd5b600181811c90821680610c7957607f821691505b602082108103610c9757634e487b7160e01b5f52602260045260245ffd5b50919050565b601f821115610ce157805f5260205f20601f840160051c81016020851015610cc25750805b601f840160051c820191505b818110156106ba575f8155600101610cce565b505050565b815167ffffffffffffffff811115610d0057610d00610c51565b610d1481610d0e8454610c65565b84610c9d565b6020601f821160018114610d46575f8315610d2f5750848201515b5f19600385901b1c1916600184901b1784556106ba565b5f84815260208120601f198516915b82811015610d755787850151825560209485019460019092019101610d55565b5084821015610d9257868401515f19600387901b60f8161c191681555b50505050600190811b01905550565b67ffffffffffffffff831115610db957610db9610c51565b610dcd83610dc78354610c65565b83610c9d565b5f601f841160018114610dfe575f8515610de75750838201355b5f19600387901b1c1916600186901b1783556106ba565b5f83815260208120601f198716915b82811015610e2d5786850135825560209485019460019092019101610e0d565b5086821015610e49575f1960f88860031b161c19848701351681555b505060018560011b0183555050505050565b81835281816020850137505f828201602090810191909152601f909101601f19169091010190565b838152604060208201525f610e9c604083018486610e5b565b95945050505050565b5f60208284031215610eb5575f5ffd5b5051919050565b6001600160a01b03841681526040602082018190525f90610e9c9083018486610e5b56fea2646970667358221220158066bba7aba335830dac63e9ac0df3f95af85ce08df9b052db3fcc0b29c3d164736f6c634300081c0033",
  "linkReferences": {},
  "deployedLinkReferences": {}
}